:020000040800F2
:100000000000022079130008990E0008A10E0008D4
:10001000A50E0008A90E0008AD0E000800000000A3
:10002000000000000000000000000000719B0008BC
:10003000B10E000800000000019C0008659C00084B
:10004000C9130008C9130008C9130008C913000820
:10005000C9130008C9130008C9130008C913000810
:10006000C9130008C9130008C9130008B50E000819
:10007000C9130008C9130008C9130008C9130008F0
:10008000C9130008C9130008C10E0008C9130008ED
:10009000DD0E0008C9130008C9130008C9130008C1
:1000A000C9130008E90E0008C9130008C9130008A5
:1000B000050F0008190F0008C9130008C91300082C
:1000C000C9130008C9130008C9130008C9130008A0
:1000D000C9130008C9130008C9130008C913000890
:1000E000C9130008C9130008C9130008C913000880
:1000F000250F0008C9130008C9130008C913000818
:10010000C9130008C9130008C9130008C91300085F
:10011000C9130008C9130008C9130008C91300084F
:10012000C9130008C9130008C9130008C91300083F
:10013000C9130008C9130008C9130008C91300082F
:10014000C9130008C9130008C9130008C91300081F
:10015000C9130008C9130008C9130008C91300080F
:10016000C9130008C9130008C9130008C9130008FF
:10017000C9130008C9130008C9130008C9130008EF
:10018000C9130008C9130008C9130008C9130008DF
:10019000C913000800000000310F0008C91300084F
:1001A000C9130008C9130008C9130008C9130008BF
:1001B000C9130008C9130008C9130008C9130008AF
:1001C000C9130008C9130008C9130008C91300089F
:0801D000C9130008C91300085F
:1001E00010B5054C237833B9044B13B10448AFF371
:1001F00000800123237010BDCC0B00200000000004
:10020000BCCB000808B5034B1BB103490348AFF34F
:10021000008008BD00000000D00B0020BCCB00080F
:10022000844641EA000313F003036DD1403A41D301
:1002300051F8043B40F8043B51F8043B40F8043BC0
:1002400051F8043B40F8043B51F8043B40F8043BB0
:1002500051F8043B40F8043B51F8043B40F8043BA0
:1002600051F8043B40F8043B51F8043B40F8043B90
:1002700051F8043B40F8043B51F8043B40F8043B80
:1002800051F8043B40F8043B51F8043B40F8043B70
:1002900051F8043B40F8043B51F8043B40F8043B60
:1002A00051F8043B40F8043B51F8043B40F8043B50
:1002B000403ABDD2303211D351F8043B40F8043BF0
:1002C00051F8043B40F8043B51F8043B40F8043B30
:1002D00051F8043B40F8043B103AEDD20C3205D300
:1002E00051F8043B40F8043B043AF9D2043208D0F8
:1002F000D2071CBF11F8013B00F8013B01D30B886A
:1003000003806046704700BF082A13D38B078DD047
:1003100010F003038AD0C3F10403D21ADB071CBF19
:1003200011F8013B00F8013B80D331F8023B20F883
:10033000023B7BE7043AD9D3013A11F8013B00F8BC
:10034000013BF9D20B7803704B7843708B78837044
:100350006046704700B587B0CDE904239DF824308E
:100360009DF820C00191002B14BF4FF08042002265
:100370000221BCF1000F0CBF012302230291694648
:100380000092039302F03EFB10B907B05DF804FB46
:1003900000F0B8FC07B05DF804FB00BF38B50446B8
:1003A0000D4602F061FBB8B900220121204602F09F
:1003B00015FCD0B900220821204602F00FFCE8B954
:1003C0002368134A93421FD0124A934203BF124B31
:1003D00000201D60012038BD00F094FC00220121A6
:1003E000204602F0FBFB0028E4D000F08BFC00224A
:1003F0000821204602F0F2FB0028E1D000F082FC48
:100400002368034A9342DFD1044B00201D6038BDAE
:1004100000640040006800404C0C0020480C0020A4
:10042000CB0709D50368114A934210B5044611D091
:100430000F4A934201D010BD70470E4B2046A3F1E6
:100440002802402102F028FB0B4B0C481B68BDE83A
:1004500010401847074B4021A3F1280202F01CFB73
:10046000074B06481B6898472368E1E70064004093
:1004700000680040400C00204C0C0020180C0020AC
:10048000480C00200B0709D50368114A934210B5A8
:10049000044611D00F4A934201D010BD70470E4B55
:1004A0002046A3F12802412102F0F6FA0B4B0C483A
:1004B0001B68BDE810401847074B4121A3F12802F3
:1004C00002F0EAFA074B06481B6898472368E1E701
:1004D0000064004000680040100C00204C0C00201C
:1004E000E80B0020480C002010B5002492B03C22FC
:1004F000214603A8CDE9004402940CF029F93348C1
:100500004FF4A0124FF0A0410123C0E900128483F0
:100510000422C0E90244C0E904438261036280F816
:10052000244080F83840C46380F8404000F070FFF9
:1005300000283AD1002325480093694601F032FF94
:1005400000283FD122492148032209240023CDE974
:10055000031405929C210B924FF48072CDE90D1289
:100560000893ADF830308DF832308DF83C307F2272
:10057000042303A9CDE9062301F0E6FBF8B9154AE7
:10058000124840F20F1303A9CDE9032301F0DCFB6D
:1005900090B9114A0D4840F2152303A9CDE9032370
:1005A00001F0D2FB20B912B010BD00F0ABFBC1E7E7
:1005B00000F0A8FB12B010BD00F0A4FBE9E700F0CA
:1005C000A1FBDCE700F09EFBBCE700BF540C002061
:1005D00002003004040060080800900C10B590B0D0
:1005E0003C22002101A80CF0B3F8264C2648002339
:1005F0004FF4A0110122C0E9004183830421C0E926
:100600000233C0E904328161026280F8243080F84C
:100610003830C36380F8403000F0FAFE38BB1B4925
:100620001948042209240023CDE901140392022170
:1006300005929C2206930991ADF828308DF82A3056
:100640000B928DF8343080227F2301A90C92049301
:1006500001F07AFB90B90E4A0B4840F20F1301A942
:10066000CDE9012301F070FB20B910B010BD00F0FE
:1006700049FBD4E700F046FB10B010BD00F042FB90
:10068000E9E700BF00010050C00C00208000501DB1
:100690000001802130B504469FB00021542209A8F2
:1006A000CDE90411CDE9061108910CF051F8236849
:1006B000B3F1A04F04D03F4A93423BD01FB030BDAE
:1006C0004FF400424FF0005309A809921A9304F026
:1006D0006BFB002867D1384A13680133012B136084
:1006E00009D1364BDA6C42F40052DA64DB6C03F465
:1006F00000530093009B314BD86C40F00100D8644C
:10070000DB6C03F0010301930024032304A90722F7
:100710004FF09040CDE90423019D069402F0A8FB20
:1007200022460521122001F001FF122001F03CFFBA
:100730001FB030BD4FF400424FF0005309A809929A
:100740001A9304F031FB002830D11B4A136801339F
:10075000012B136009D1194BDA6C42F40052DA64B0
:10076000DB6C03F400530293029B144B1448D96CC6
:1007700041F00401D964DB6C03F00403039300240B
:10078000032304A90622CDE90423039D069402F065
:100790006FFB22460521122001F0C8FE122001F055
:1007A00003FF1FB030BD00F0ADFA94E700F0AAFAE5
:1007B000CBE700BF00010050500C002000100240A9
:1007C0000008004808B50BF043FA012009F026F9AB
:1007D000FBE700BF044B036010B48023034C0C60A4
:1007E0005DF8044B13607047E4270020E4250020E7
:1007F00010B5244CA646BEE80F009CB0EC46ACE811
:100800000F009EE807008CE807000021684609F009
:10081000D3F81D4B04F11C0E1860BEE80F000DF15B
:100820001C0CACE80F009EE807008CE807000021D4
:1008300007A809F0C1F8154B04F1380E1860BEE89E
:100840000F000DF1380CACE80F009EE807008CE8B3
:10085000070000210EA809F0AFF80D4B04F1540C6D
:100860001860BCE80F0015AC0FC49CE8070084E8D2
:100870000700002115A809F09FF8064B18601CB06E
:1008800010BD00BF8CD4000884210020E02500208A
:100890002C0D00208821002038B51048104D002371
:1008A00001220A240D21C0E90053C0E90233C0E946
:1008B0000D330382C3630323C0E90621C0E90A2183
:1008C0008274446144620362036301F061FF00B912
:1008D00038BDBDE8384000F015BA00BF3828002008
:1008E0000068004030B504469DB00021542207A89E
:1008F000CDE90211CDE9041106910BF029FF1F4B40
:1009000022689A4201D01DB030BD4FF480524FF0A2
:10091000007307A80792159304F046FA50BB184BD2
:1009200018489A6D42F000729A659A6D02F0007252
:100930000092009ADA6C42F00202DA64DB6C03F097
:10094000020301934FF440520223CDE90223002415
:10095000092302A9CDE90543019D049402F088FA18
:1009600022460521562001F0E1FD562001F01CFE33
:100970001DB030BD00F0C6F9D1E700BF00680040EF
:10098000001002400004004870B500248AB0CDE990
:100990000544CDE90744284B0994D96C274E41F012
:1009A0002001D964D96C01F0200101910199D96C21
:1009B00041F00401D964D96C01F00401029102995B
:1009C000D96C41F00101D964D96C01F001010391A6
:1009D0000399D96C41F00201D964DB6C03F0020386
:1009E0002246049310214FF09040049B02F03EFBFE
:1009F00022463046302102F039FB012505A910239B
:100A00004FF09040CDE90535CDE9074402F030FACA
:100A10003046302305A90593CDE90654089402F029
:100A200027FA07230648079405A9CDE9053402F003
:100A30001FFA0AB070BD00BF001002400008004855
:100A40000004004810B51A481A4C1B490023012223
:100A5000C0E90041C0E90232C0E90433C0E906330D
:100A6000036202F02FFC78B91148002102F084FDE6
:100A700090B90F48002102F0A9FDA8B90F4A5368A8
:100A800043F48013536010BD00F03CF90848002186
:100A900002F072FD0028ECD000F034F90448002187
:100AA00002F094FD0028E9D000F02CF9E6E700BF41
:100AB000FC2800200054004072218000000001400A
:100AC0002DE9F04104469EB00021542209A8CDE949
:100AD0000411CDE9061108910BF03AFE304B226863
:100AE0009A4202D01EB0BDE8F081402309A80993C4
:100AF00004F05AF900284DD12A4DEB6C43F0010364
:100B0000EB64EB6C03F001030193019BEB6C43F08E
:100B10000203EB64EB6C03F002030026029304274C
:100B20004FF400434FF0120804A94FF09040029A8E
:100B3000049308970696CDF81480079602F098F96A
:100B40001948089704A98027CDE90666CDF81480D6
:100B5000049702F08DF9AB6D43F40013AB65AB6DF8
:100B6000124D03F400130393114B039A2B601122CF
:100B700010232846C5E90123C5E90367C5E90566D1
:100B8000C5E9076601F01EFD38B9A563AC621EB069
:100B9000BDE8F08100F0B6F8AEE700F0B3F8F4E796
:100BA0000054004000100240000400489C2800202F
:100BB0000800024010B594B03822002106A80BF0BE
:100BC000C7FD0020CDE90100CDE90300059003F049
:100BD00083FC212206924FF48032079201220223E5
:100BE00003240C9206A85522CDE90D34CDE90F322D
:100BF000CDE91133139303F0F5FC08B172B6FEE7AB
:100C0000042103460F220DEB0100CDE90124CDE9BB
:100C10000333059303F06AFF08B172B6FEE704F0F0
:100C2000ABF814B010BD00BF00B5012483B000F0D4
:100C3000CDFBFFF7BFFFFFF7A7FEFFF755FCFFF760
:100C4000CDFCFFF729FE00F05FF800F0D9F900F0C5
:100C5000EDFA00F09FF9FFF7F5FE00F009FA06F053
:100C600061FF06F07DFC07F0CFFF234622462146B8
:100C70002046CDE9004406F09DFC0A4804F030FE11
:100C8000094804F02DFE3C21084804F079FF08488B
:100C9000446104F0FDFA09F0ABFDFFF7A9FD08F08F
:100CA00085FEFEE7A02A0020EC2A0020082A00206A
:100CB000542900200E4A0368934210B512D00D4A01
:100CC000934200D010BD0C4B0C4A012119701378CF
:100CD0000B44DBB20A2B1370F4D1094B00201070C7
:100CE000197010BD044600F081FB2368E7E700BFE0
:100CF00000040040004401405229002050290020F7
:100D00005129002072B6FEE710B51148114C4FF47E
:100D100082720023C0E900424FF470614FF4007208
:100D2000C0E902312824826107210822C0E9043386
:100D3000C0E90743C0E90933C0E90B13426304F07B
:100D4000A7FA00B910BDBDE81040FFF7DBBF00BF38
:100D5000542900200030014010B5184A016888B0BD
:100D600000239142CDE90333CDE90533079301D048
:100D700008B010BD03F1804303F50433E0201A6E80
:100D800042F480521A661A6E02F480520192019A5D
:100D9000DA6C42F00102DA64DB6C039003F00103C9
:100DA00002930224052303A94FF09040029A049471
:100DB000079302F05DF808B010BD00BF003001409D
:100DC0000F4B10B5186E40F0010018661C6E82B013
:100DD00004F001040094009C9C6D44F080549C65D8
:100DE0009B6D03F08053019300220F216FF00100EF
:100DF000019B01F09BFB02B0BDE8104003F0EABB91
:100E0000001002401F4B70B59A6D1F4C42F0020259
:100E10009A659B6D88B003F0020301A90293064610
:100E200003A8029B03F086FF03F072FF174A1849DC
:100E3000A2FB00239B0C013B0022C4E900132046C7
:100E400040F2E7332261A260E36005F047F905460E
:100E500010B1284608B070BD204604F041FD05469B
:100E60000028F6D11D2001F09FFB0F2E01D901258E
:100E7000EFE72A4631461D2001F058FB054B1E6066
:100E8000E7E700BF00100240B829002083DE1B43C3
:100E9000000400400800002008B503F077FFFEE7DB
:100EA000FEE700BFFEE700BFFEE700BFFEE700BFB2
:100EB000704700BF014801F01DBC00BF9C28002006
:100EC00008B5044800F0D0FBBDE80840024800F037
:100ED000CBBB00BF540C0020C00C0020014802F026
:100EE0000BBC00BF8CBF002008B5044804F096FF7F
:100EF000BDE80840024804F091BF00BF082A002066
:100F0000542A002008B5034804F088FF0CF0A4FA26
:100F100008BD00BFA02A0020014804F07FBF00BF29
:100F2000B8290020014804F079BF00BFEC2A002056
:100F3000014801F0D9BE00BF3828002010B50C4C84
:100F40000C4B0D492268591A2AB11044884207D81F
:100F50002060104610BD094A226010448842F7D92B
:100F60000BF0C4FB0C234FF0FF320360104610BDA2
:100F7000042A00200000022000040000C0C4002059
:100F8000034AD2F8883043F47003C2F888307047BF
:100F900000ED00E000B58DB02022002104A80BF088
:100FA000D7FB1548154901604FF6FF710023012258
:100FB000C16003A9CDE90033C0E90133C0E90433BE
:100FC0000293836103920592099205F0EBF858B9F8
:100FD0000023094802936946CDE9003305F0D2FAAF
:100FE00028B90DB05DF804FBFFF78CFEF0E7FFF7C2
:100FF00089FE0DB05DF804FB082A0020002C01409A
:1010000000B51A4889B04FF080420023026044F2D4
:101010006722CDE90433CDE90633CDE90133C0E9D8
:101020000133C0E903230393836105F057F890B9B6
:101030004FF480530D48049304A904F003FE90B9C3
:1010400000230A48019301A9039305F09BFA28B9EC
:1010500009B05DF804FBFFF755FEE9E7FFF752FE24
:1010600009B05DF804FBFFF74DFEE9E7A02A002078
:1010700010B50A480A4C0023A92142F20F72C0E9B8
:101080000041C0E90232C0E90433836105F026F86B
:1010900000B910BDBDE81040FFF734BE542A00204F
:1010A0000044014030B51B4B026889B000249A42CD
:1010B000CDE90344CDE90544079401D009B030BD22
:1010C00003F5644303A91A6E42F400621A661A6EAD
:1010D00002F400620192019ADA6C42F00102DA64D1
:1010E000DB6C03F0010302934FF440720223CDE95D
:1010F00003234FF0904006230793029D01F0B8FEB2
:1011000022460521192001F011FA192001F04CFAAC
:1011100009B030BD002C014000B50368B3F1804F29
:1011200083B005D0184A934218D003B05DF804FB91
:1011300003F504331C20996D41F0010199659B6D05
:1011400003F00103009300220521009B01F0EEF95A
:101150001C2003B05DF804EB01F026BA0B4B196EAE
:1011600041F4003119661B6E03F40033019319201A
:1011700000220521019B01F0D9F9192003B05DF887
:1011800004EB01F011BA00BF00440140001002401E
:101190000E4B02689A4200D0704703F55C4300B5DD
:1011A000196E41F4005119661B6E83B003F40053AD
:1011B00001932C2000220521019B01F0B7F92C207E
:1011C00003B05DF804EB01F0EFB900BF003401405B
:1011D00030B5144A016887B000239142CDE901334C
:1011E000CDE90333059301D007B030BD03F180434F
:1011F00003F504330224DA6C0B4842F00402DA648B
:10120000DB6C03F0040300934FF4EE55042301A9B3
:10121000CDE90154CDE90443009A01F029FE07B05D
:1012200030BD00BF003401400008004830B5002444
:1012300099B04F4D0194342221460BA8CDE90244C8
:10124000CDE90544CDE90744CDE9094404940BF008
:101250007FFA484A2023AB6041F29A03C5E9002493
:10126000C5E90334012280232846C5E9052304F09B
:1012700067FF002863D1702301934FF4001200230D
:101280003B4801A9CDE9022305F07CF900286CD187
:101290000022602336480A9204A9CDE90432CDE940
:1012A0000622CDE9082205F027F800285AD12A683D
:1012B0002F48936923F00803936104A9042205F0E1
:1012C0001BF800284BD12A682948936923F400634E
:1012D000936104A9082205F00FF800283CD12A6880
:1012E0002348D36923F00803D36104A941F2900392
:1012F0000C22059305F000F858BB29681C48CA6900
:1013000022F400620023CA614FF40052CDE90F328B
:1013100032244FF000720BA9CDE90B33CDE90D3427
:10132000CDE91133CDE91332CDE91533179305F02B
:1013300085F938B90E48FFF74BFF19B030BDFFF7FC
:10134000E1FC98E7FFF7DEFC0948FFF741FF19B021
:1013500030BDFFF7D7FCD0E7FFF7D4FCBFE7FFF7BE
:10136000D1FCB0E7FFF7CEFCA1E7FFF7CBFC8FE79E
:10137000EC2A0020003401400D488546FFF700FEAE
:101380000C480D490D4A002302E0D458C4500433E0
:10139000C4188C42F9D30A4A0A4C002301E01360B6
:1013A0000432A242FBD30BF0A7F9FFF73DFCFEE7A6
:1013B0000000022000000020CC0B00203CE80008C8
:1013C000CC0B0020C0C40020FEE7000010B50320B5
:1013D00001F09AF80F20FFF715FD10B10124204607
:1013E00010BD0446FFF7ECFC204610BD034A04493B
:1013F000136809680B441360704700BF382B002046
:1014000004000020014B1868704700BF382B0020F3
:1014100030B583B000230193002800F0DD80C56D56
:101420000446002D00F0C58022689368980005D519
:10143000936823F0204323F03F0393609368D9001F
:1014400019D47E4B7E481B6891689B09A0FB03035F
:1014500021F010419B0921F03F0101335B0041F075
:10146000805191600193019B2BB1019B013B019342
:10147000019B002BF9D19368DB0000F18B80E36DB9
:1014800043F01003E365236E012003432366936852
:1014900013F0040FE36D40F08580DD0600F18280DB
:1014A000E36D23F4817343F00203E3659368D90786
:1014B00019D4B2F1A04F00F0AF80624B9A4200F015
:1014C000B480614903F5806389689B680B435F4979
:1014D00089680B43DB0706D45D498B68656823F494
:1014E0007C132B438B60E568E36B94F824102B434B
:1014F000A5682B43657F012943EA453343EA01434D
:1015000065D0E16A21B1256B01F4787129430B4361
:10151000D568504929400B43D3601369616B23F0B0
:1015200040630B43136193681D0724D4D16894F87A
:101530003830257F21F480415B0021F0020143EA2D
:1015400085330B432169D3601369002947D043F4E5
:1015500080331361D2F8C03023F47F5323F03F036C
:101560000B43C2F8C03094F84030012B43D01369CC
:1015700023F0010313616369012B20D0136B23F067
:101580000F031363E36D23F0030343F00103E365EB
:1015900003B030BD936813F0040F4FF00000E36D0B
:1015A0003FF47BAFE36D012043F01003E36503B02C
:1015B00030BDFFF76FF8256684F8585034E7116B9B
:1015C000236A21F00F01013B0B431363DAE7A16AA1
:1015D000013943EA414394E7012003B030BD23F4CD
:1015E00080331361D2F8C03023F47F5323F03F03DC
:1015F000C2F8C030B7E71169636CA56C21F4FF61D4
:1016000021F004012B430B43E16C0B43216D0B4391
:1016100043F001031361AEE70A49936889680B43FD
:10162000D9073FF560AF0C4957E74FF0A0439B68DF
:1016300091680B43DB073FF556AFF4E7000000204D
:10164000632D3E05000100500004005000060050CC
:10165000000700500740F0FF00030050704700BF34
:10166000704700BF704700BFF8B50368B3F1A04FE3
:101670001E685F68044600F0D2809448944A9549F9
:10168000834218BF0A469568B10705F01F0502D5C9
:10169000BA0700F1B680700740F18680790740F103
:1016A0008380E26DD10603D4E26D42F40072E265FC
:1016B000DA6812F4406F21D1844A934200F0EC8042
:1016C00002F58062934200F01881DA68900415D424
:1016D0001A68110712D59A68520700F105815A68F5
:1016E00022F00C025A60E36D23F48073E365E36D2E
:1016F000DB0403D4E36D43F00103E3652046FFF709
:10170000ADFF23680C221A60B00654D5B90652D535
:10171000E26DD10603D4E26D42F40052E2656B49FA
:10172000DA6CD8688B4202F4C07200F0BB8001F51D
:1017300080618B4200F0C280D968D2B98A0100F181
:10174000A3801A68500614D5890212D49A68120729
:1017500000F1D7805A6822F060025A60E36D23F4EA
:101760008053E365E36DD80503D4E36D43F00103D3
:10177000E365204607F058F8236860221A603106B6
:1017800001D53A0659D4F00501D5F90560D4B20562
:1017900001D5B80545D4F10601D5FA0610D4710576
:1017A00001D57A0560D4F8BD3207ADD538073FF5CD
:1017B00078AFB006AAD47206E1D57806DFD5A7E7E0
:1017C000E26B7AB1002D7CD0B3F1A04F00F097808E
:1017D0003E48404A3E49834208BF0A46926812F496
:1017E000604F0BD0E36D43F48063E365236E43F0F9
:1017F000020323662046FFF735FF236810221A6094
:10180000CDE7E36DDB0603D4E36D43F40063E365EA
:10181000204600F097FA236802221A603BE72C4A20
:1018200031E7E36D43F48023E365204600F088FA56
:1018300023684FF400721A60ADE7E36D43F4803320
:10184000E3652046FFF70CFF236880221A609AE7C1
:10185000E36D43F40033E365204600F06FFA23683C
:101860004FF480721A6092E7E26D42F48042E265C2
:10187000226E4FF4806142F0080222662046196011
:10188000BDE8F84000F058BA00F4406001F400529E
:1018900002437FF46EAF54E74FF0A041092D1DD9EC
:1018A000CA6813E74FF0A04C002D3FF445AFA91FC5
:1018B00001297FF641AFDCF80C103EE7DFF818C0D5
:1018C000F2E7DA68D00799D58CE700BF0001005035
:1018D00000030050000700500004005040F2212295
:1018E000EA40D207DCD5F0E6E36D43F01003E36590
:1018F000236E43F00103236600E70649CEE7064A5C
:101900006CE7E36D43F01003E365236E43F00103DE
:1019100023662EE7000400500003005070B582B02B
:101920000022036801929A68D20734D499682C4A3D
:101930001142044632D19A6822F0004222F03F025E
:1019400042F00102B3F1A04F9A6047D02548264AE1
:101950002649834218BF0A4693681B0228D4FFF722
:1019600051FD23681A68D607054614D4204E9A689C
:10197000D00704D49A68324042F001029A60FFF71F
:1019800041FD431B022B236802D91A68D10705D5F4
:101990001A68D207EBD5002002B070BDE36D43F0AA
:1019A0001003E365236E01200343236602B070BD7C
:1019B000104B114A1B689B09A2FB03239B090133AF
:1019C00003EB43039B000193019B002BC7D0019BBA
:1019D000013B0193019B002BF9D1C0E7024ABBE711
:1019E0003F0000800001005000030050000700503D
:1019F000C0FFFF7F00000020632D3E0538B503685F
:101A00009A68950702D59B68002038BD9A68D4076C
:101A10002BD59A6802F00D02012A044608D0E36D26
:101A200043F01003E365236E01200343236638BDB2
:101A30009A6822F0004222F03F02032142F00202A3
:101A40009A601960FFF7DEFC23689B68D90705469A
:101A50000BD5FFF7D7FC401B0228236802D99A68F0
:101A6000D207DCD49B68DB07F3D4002038BD00BF6D
:101A700070B590F8582082B00023012A019340D01D
:101A8000012380F8583004460D46FFF7B7FFF0B940
:101A9000E26D266822F4885222F0020242F002022D
:101AA000E265B368184A23F0404305F0804123F013
:101AB0003F030B4343F00043B360B368002B0FDBDD
:101AC000E36D23F0030343F00103E36503E0E36DFB
:101AD00043F01003E365002384F8583002B070BD72
:101AE000019B01330193019B9342E6D9E36D23F0FF
:101AF0001203002243F01003E36584F8582001200C
:101B0000ECE7022002B070BD01DE040038B50368C6
:101B1000B3F1A04F044651D03848394A394983427D
:101B200018BF0A4695689A6811073DD4DA68DB6CDD
:101B300013F4C07F3AD094F85830012B34D00123ED
:101B400084F858302046FFF7E9FE002838D1E36DCD
:101B5000DA0549BF236E206623F008032366E36D90
:101B6000226823F4405323F0010343F48053E365D8
:101B7000224B9A4228D003F580639A4224D0E36D29
:101B800023F48013E36560210023116084F858304A
:101B9000D3689B0107D4936823F0004323F03F03ED
:101BA00043F00803936038BD022038BD002AC2DB31
:101BB000E36D43F020030120E36538BD104AB1E72F
:101BC000002384F8583038BD15F01F050DD0602370
:101BD000063D1360012D4FF0000384F85830D7D92B
:101BE000E36D43F48013E36538BDE36D23F48013A4
:101BF000E3656023136084F85850C9E70001005082
:101C0000000300500007005038B50368B3F1A04F3F
:101C1000044669D04448454A4549834208BF0A46BC
:101C200095689A68100755D4DA68DB6C13F4C07FA6
:101C300052D094F85830012B4CD0012384F85830FE
:101C40002046FFF76BFE002850D1E36DD90549BF50
:101C5000236E206623F008032366E26D236822F4D6
:101C6000405222F0010242F48052E2652E4A934231
:101C700005F01F054ED002F5806293424FD0194601
:101C8000E26D22F48012E26560221A60002284F87C
:101C90005820DA68920203D55A6842F480625A608A
:101CA000A269082A5A682DD022F040025A605A6868
:101CB00042F020025A608B4200D0DDB9DA6892010E
:101CC00007D49A6822F0004222F03F0242F0080254
:101CD0009A6038BD022038BD002AAADBE36D43F0CC
:101CE00020030120E36538BD114A99E7002384F8F9
:101CF000583038BD063D012DE0D9E36D43F4801323
:101D0000E36538BD22F020025A605A6842F0400272
:101D10005A60D0E74FF0A041002DB5D1B0E705499A
:101D2000002DB1D1ACE700BF00010050000700500A
:101D30000003005000040050704700BF704700BF10
:101D4000704700BF704700BF2DE9F04190F8583050
:101D500082B00022012B0192426900F09981012397
:101D600080F85830E2B10B6A012B19D0846E002C38
:101D700040F036818A6A002A00F065825D1ECC6AD6
:101D800002F07C032B432343D1E90024856604F051
:101D90001F05C2F38464AC401C434466036805E03D
:101DA0004B68092B00F008810A6803689C682707C4
:101DB00010D491F82540002C40F0F58091F8244093
:101DC000DD6891F82660240525F4401544EA465460
:101DD0002C43DC609C6814F0040474D09C680024DC
:101DE0009D68EE0714D4CF68AE4DD3F8B06007F00D
:101DF000180C25FA0CF5C2F3120E154026EA0E0C4B
:101E000045EA0C05C3F8B050A74DAF4200F00D8174
:101E1000A6490A4229D0B3F1A04F00F03781A44E61
:101E2000A449A54DB34218BF2946A44D8968AA42CA
:101E300001F0E07620D0A24DAA421DD0A14DAA42C9
:101E400040F04C81CD0110D4B3F1A04F00F053828B
:101E5000974D984A9849AB4218BF0A46936823F0B9
:101E6000E073334343F080739360002380F858306D
:101E7000204602B0BDE8F0810A02F6D4B3F1A04FCB
:101E800000F03B82904A9342EFD18B498A688F4B96
:101E900022F0E072324342F400021B688A608C4AEE
:101EA0009B09A2FB03239B0903EB43039B0018330D
:101EB0000193019B002BD8D0019B013B0193019B17
:101EC000002BF9D1D1E79D6815F0080588D18C6AFF
:101ED000002C40F09B8091F82540012CDC680CBF61
:101EE00044F0007424F00074DC60002491F8306049
:101EF000012E1E6900F0658126F002061E618E68C3
:101F0000B6F1004F00F049814FEAD25C0CF0040CAE
:101F100003F11407C2F304524FF0070E96400EFA75
:101F200002FE5CF8072022EA0E0216434CF8076016
:101F30005A6922F000425A61D1F810C0DE68BCF143
:101F4000040F00F0E58003F16002C6F3C10652F809
:101F50002C800F684FEA460E5E4E07F0F84708EAFD
:101F6000060637434E6906FA0EF63E4346F0004633
:101F700042F82C60D1F810C08F6952F82C6026F01E
:101F800080763E4342F82C600E7F0F69012E52F896
:101F9000276008BF4FF0007526F00076354342F801
:101FA00027500A681CE7DC6891F8265024F4401496
:101FB00044EA4554DC600DE78B6A0A68002B6CD05C
:101FC000CC6A03F07C03550C05F4785523431D437C
:101FD0000368414EDC6C34402C43DC644566E5E626
:101FE0000A684B68C2F3846503F01F039D40436E8B
:101FF000013C1D43846603684566002C7FF4D6AE21
:10200000DC6C354E34402543DD64CFE6CC6A002CD1
:102010003FF461AF91F82540012C00F06781DC6846
:1020200024F00074DC602C4660E7BEF1000F40F045
:10203000D380920E551C05F01F0CBCF1090F40F225
:1020400005810CEB4C02AD061E3A012605F0F84561
:10205000120506FA0CFC42F0007245EA0C052A4310
:10206000D70D8D6807F0040703F11406C2F304527C
:1020700005FA02FC4FF0070EBD590EFA02F225EAEE
:10208000020242EA0C02BA510A68C1E60949CCE6EA
:102090000224204602B0BDE8F081550C05F47855C5
:1020A00096E700BFFFFF070000007F4000000880A8
:1020B000000100500003005000070050000021C341
:1020C0001000C090000052C7000600500000002021
:1020D000632D3E0500F0FF0300401004AC4DAA4202
:1020E0007FF4C3AE49023FF5C0AEAA4A93423FF423
:1020F000BCAEA94902F50072B3F1A04F18BF0A4661
:10210000936823F0E073334343F480039360ACE6B9
:102110001A6E0A681D6EC2F31206C5F38465002E9E
:1021200000F0A08092FAA2F626B1B6FA86F6B54281
:1021300000F0E5805D6E5E6E03F16005C6F38466B7
:1021400003F1640C92FAA2F727B1B7FA87F7BE42FF
:1021500000F0EA80AE68AE6805F1080CC6F384664C
:1021600092FAA2F727B1B7FA87F7BE4200F0EF80E4
:10217000EE68EE680C35C6F3846692FAA2F7002F7B
:102180003FF42EAEB7FA87F7B7427FF429AE2A683C
:1021900022F000422A600A6822E6D70D07F0040701
:1021A00003F11406C2F304524FF0070C0CFA02FCC0
:1021B000BA5922EA0C02BA515A6942F000425A61F5
:1021C000BAE626F4FF7CD1E90D673E4346EA0C06E9
:1021D00046F002061E6192E692FAA2F5002D61D049
:1021E000B5FA85F5013505F01F05092D5AD992FA82
:1021F000A2F5002D00F0C980B5FA85F50135AD06D0
:1022000005F0F84592FAA2F6002E00F0BC80B6FA6E
:1022100086F6013606F01F06012707FA06F6354353
:1022200092FAA2F2002A00F0AC80B2FA82F20132F5
:1022300002F01F066FF01D07032212FB0672120543
:1022400042F000720BE7013B1D469DE5AE06012200
:1022500002FA0CF206F0F84616430CEB4C0212059B
:102260003243FDE6C2F38467BD4248D05D6E5E6EC8
:1022700003F16005C6F3846603F1640CBE4253D0DB
:10228000AE68AE6805F1080CC6F38466C2F38467D5
:10229000B7425CD0EE68EE680C35C6F38466C2F3D4
:1022A000846771E792FAA2F6002E64D0B6FA86F639
:1022B0000136B60606F0F84692FAA2F5002D58D07F
:1022C000B5FA85F5013505F01F05012707FA05F573
:1022D0002E4392FAA2F2002A50D0B2FA82F50135CA
:1022E00005F01F0505EB45052A05B9E7C66D46F063
:1022F0002006C665FAE5294AB0E52849C6E51A6E02
:102300001D4622F0004245F8602F5A6E0A685E6E44
:10231000C2F31207C6F3846603F1640C002F7FF446
:1023200011AFC2F38467A9E7DCF8002022F0004275
:10233000CCF80020AA680A68AE68C2F31207C6F398
:10234000846605F1080C002F7FF40AAF9EE7DCF8E5
:10235000002022F00042CCF80020EA680A68EE680B
:10236000C2F312070C35C6F38466002F7FF405AF65
:1023700095E70225ACE74FF080669DE74FF44012E9
:102380006EE7074A6BE6022649E74FF0806539E7BA
:10239000000084CB000100500007005000030050F3
:1023A000000050FE70B490F858300E68012B9DB0BC
:1023B00057D0026800240123B2F1A04F189480F88E
:1023C000583019940CD04A4DAA4248D0C26D80F8BA
:1023D000584042F02002C26518461DB070BC7047DC
:1023E000444B9B685B070CD59368C26D42F020029A
:1023F0000123C265002280F8582018461DB070BC29
:10240000704793685C07F0D4B2F1A04F2ED0394BDF
:102410009A422BD0002E59D0374A4C68936823F447
:102420006043234390F8384043EA44339360304B91
:102430009C6803F580739B682343304CA468234356
:10244000DB4303F0010343B194688B6824F47161AA
:102450001E4321F00F010E4396600023CAE7284B6C
:10246000BFE7022318461DB070BC7047AEB1254AC5
:102470004C68936823F46043234390F8384043EA60
:10248000443393601B4B4FF0A04292689B68134308
:10249000DB431C4A03F00103D5E71A4A936823F48F
:1024A000604393604FF0A041124B89689B68154AC6
:1024B0000B43DB4303F00103002BCED0916821F4E2
:1024C000716121F00F010023916093E70A4A0849E6
:1024D00093680B4C23F4604393608968A3680B43B3
:1024E000064989680B43DB4303F00103E4E700BFBF
:1024F000000400500001005000070050000600508A
:1025000000050050000300500749CA6803024FF657
:10251000FF0003F4E0630240134343F0BF6343F45E
:102520000033CB60704700BF00ED00E01C4BDB6860
:10253000C3F3022300B5C3F1070EBEF1040F03F18C
:10254000040C28BF4FF0040EBCF1060F1BD9033B4F
:102550004FF0FF3C0CFA03FC22EA0C024FF0FF3C68
:102560000CFA0EFC21EA0C019940002841EA020114
:102570000CDB00F16040090100F56140C9B280F850
:1025800000135DF804FB00221346E7E7054B00F05B
:102590000F0009010344C9B219765DF804FB00BFBE
:1025A00000ED00E0FCEC00E0002808DB044A4109F3
:1025B000012300F01F0003FA00F042F821007047E9
:1025C00000E100E000287AD070B53E4B04689C42E0
:1025D0005FD93D4A3D4B2244A3FB023212093C4BDA
:1025E0009200C0E91032D0E90253022180F8251090
:1025F0000169C6692B430B4341690B4381690B4356
:1026000033435FFA84FC314E2168ACF1080CA6FB21
:102610000C6C066A21F4FF4121F0700133430B4337
:1026200023602C4E274B2C49CCF3041C9C4298BFB2
:1026300031464FF0010E294CC4640EFA0CF35418C5
:10264000B5F5804F036584644FEA92022CD045684B
:10265000ECB2013D032D41F82240C6F8843029D860
:102660001F4B20492344013C9B0004F01F040EFA39
:1026700004F40022C0E91531C4651A601A4B5C6489
:1026800000230122C36380F8243080F825201846F7
:1026900070BD164A0D4B2244A3FB02321209144BA3
:1026A0009200C0E910329EE70024446041F82240C5
:1026B000C6F884300023C0E91533C365E0E7012084
:1026C000704700BF07040240F8FBFDBFCDCCCCCC67
:1026D0000004024000080240200802408008024036
:1026E0003F8200104009024000090240F8FFFDBF90
:1026F0000000024070B4436C066C056831682C68B9
:1027000003F01F0304229A400A420ED014F0040F73
:102710000BD02B689B0603D42B6823F004032B609B
:10272000036B7260CBB170BC184702229A400A4218
:1027300015D014F0020F12D02B68990606D42B681E
:1027400023F00A032B60012380F82530C36A7260EE
:10275000002180F82410002BE5D170BC70470822BE
:102760009A400A42F9D02207F7D52A68416B22F035
:102770000E022A60012202FA03F300247360C2638E
:1027800080F8244080F825200029E6D070BC084756
:10279000002800F009812DE9F84390F85C300446E8
:1027A00003F0FF02002B73D02268936923F010031B
:1027B0009361FEF727FE054604E0FEF723FE431B68
:1027C0000A2B5BD823689A691207F6D49A6942F0FB
:1027D00001029A61FEF716FE054604E0FEF712FEBE
:1027E000401B0A284AD822689369DB07F6D593690B
:1027F000764943F002038A42936100F0D080237C43
:10280000012B93690CBF23F0400343F04003936115
:10281000637C012B93690CBF43F4804323F4804312
:102820009361A37C012B93690CBF23F4805343F481
:10283000805393619369A068E16823F44073034374
:102840009361936923F0A40393611369012923F031
:102850001003136121D021B30229936900F0B180E4
:1028600043F0800393611369032943F0100313615C
:1028700017D1936943F02003936112E0236E032282
:1028800043F00103236684F85C200120BDE8F8834F
:1028900080F85D20FEF726F886E7936943F004038D
:1028A0009361D4E90613013B01391B0243EA4163FA
:1028B000216A01390B436169013943EA0143B0F5EB
:1028C000407FD3610ED1D4E90B03A16A013B0138EB
:1028D0001B01013943EA00230B43616A013943EAD2
:1028E0000143D360D2F8C030E06B394903438A42D8
:1028F000C2F8C0305AD0374B374E384F384D394870
:1029000001F580618A4218BF9946A3F1180318BFE8
:102910001E46A3F1D80318BF1F4601F57D51A3F150
:10292000D80301F1100118BF9C46A3F140030CBF6E
:102930008C469846A1F1400103F5387304BF8846E0
:10294000A94601F5387118BF1946A3F5547308BF9D
:102950000346D2F88000236420F4F81E606BA56B58
:102960004EEA0040C2F88000D2F88000C4F84480EB
:1029700020F0706040EA0560C2F88000C4E912C728
:10298000C4E91469002243F8042B8B42FBD30123D2
:10299000226684F85C30A2650020BDE8F883124B03
:1029A0006168C3F800152AE701207047DFF84890F6
:1029B0000E4E0F4FDFF844C0DFF8448009490D4B3D
:1029C000C7E743F0200393616BE700BF006400405A
:1029D0000068004078A6004000AD004028AC0040F0
:1029E00018AD0040A0AA004000600040B0A900401F
:1029F000D8A8004050A70040C8A9004000A8004047
:102A0000C0A7004090F85C20013A012A034605D98E
:102A1000026E42F0020201201A667047086830B464
:102A200078B9D1E90242D20642EA84721C6C4B6941
:102A30004D6813430A6943EA024344F8253030BC29
:102A40007047586C8A684B694C6843EA8273D1E9D5
:102A5000035200EBC40C42EA457240F834200020D7
:102A600030BCCCF80430704790F85C20012A034653
:102A700005D0026E42F0040201201A667047006819
:102A8000022283F85C208269002122F00102826127
:102A900008461966704700BF2DE9F041044690F8DA
:102AA0005C0002280DD14029256811D0D5F8980086
:102AB000070771D1236E43F4807301202366BDE8BC
:102AC000F081236E43F0080301202366BDE8F08106
:102AD000D5F890000707EDD0D5F89060C6F30060F8
:102AE000F60148BFD5F88000D5F8907048BFC0F314
:102AF0004020C7F3012707EB0008A06C08EBC806CD
:102B000000EBC600066806F080465660002E5FD1D6
:102B10000668C6F38A461660066806F00056966098
:102B2000066806F0004616618688D661B0F806C0D1
:102B30000CF00F0CC2F80CC0466806F48016566103
:102B4000466806F400169661C67906F07F0616629E
:102B5000214E476816F80CE04FEAD77CC2F824C033
:102B6000BEF1000F0FD003F1FF3E00F1070C6346EA
:102B70001CF8015F0EF8015FD568063B755D1B1AF6
:102B80009D42F4D8256840290CBFC5F89480C5F84B
:102B90009C800020BDE8F081D5F89860C6F3006005
:102BA000F60148BFD5F88000D5F8987048BFC0F34B
:102BB0000020C7F3012707EB0008E06C08EBC8060C
:102BC00000EBC600066806F080465660002E9FD0D7
:102BD000066826F060469EE73CD50008034690F85C
:102BE0005C000138012805D91A6E42F0020201206A
:102BF0001A6670471B6830B411F00705986D3DD018
:102C0000C4073BD4DC6D44F00104DC65CDB1C507DD
:102C100017D5D86D40F00200D8650C0604D5D3F85E
:102C2000DC001043C3F8DC00C80504D5D3F8E0008D
:102C30000243C3F8E0205A6D1143002030BC5965AF
:102C4000704711F0380F01D08407E2D411F4E07F0F
:102C500031D111F4F05F01D00407DAD411F4604FE0
:102C600001D0C506D5D411F4403F01D08406D0D49C
:102C700011F47C0FD1D04506CFD5CAE711F0380F3B
:102C800001D08407BED511F4E07F17D111F4F05FB5
:102C900001D00407B6D511F4604F01D0C406B1D5F8
:102CA00011F4403F01D08406ACD511F47C0FADD0B7
:102CB0004406ABD4A6E74507ABD4CAE74407A1D581
:102CC000E4E700BF704700BF704700BF704700BF18
:102CD000704700BF704700BF704700BF704700BF1C
:102CE000704700BF704700BF2DE9F84F03681A6DA9
:102CF000596D02EA010A1A6D596D02EA01091A6D4D
:102D0000596D1E6D02EA01085A6D1F6D16405A6D0D
:102D1000D3F854B01D6D1740690604460AF4E05A12
:102D200009F0070908F0380806F4710607F460276F
:102D300002D51BF0400F72D1EA0502D51BF4807F4B
:102D40005DD1BAF1000F4AD1B9F1000F35D1B8F118
:102D5000000F3CD1AB0502D51BF4007F74D12806CF
:102D600002D51BF0800F77D1A90402D51BF4005FB8
:102D70005AD12A0402D51BF4004F5DD16B040AD549
:102D80001BF4804F07D023684FF480421A65236EEE
:102D900043F0800323664FB926B123681E65236E76
:102DA0001E432666236E2BBBBDE8F88F2368394689
:102DB0001F652046FFF796FFEEE723684946C3F8F4
:102DC00050902046FDF72CFBB8F1000FC2D02368CD
:102DD0004146C3F850802046FDF754FBBAE723680C
:102DE0005146C3F850A02046FFF76CFFB9F1000F21
:102DF000ADD0E2E72046FFF773FFBDE8F88F236808
:102E0000D3F8D810D3F8E0204FF480701865114043
:102E10002046FFF75DFFBAF1000F95D0DFE74022B3
:102E20001A65FFF75BFF87E723684FF400521A65C6
:102E30002046FFF74FFF9CE723684FF400421A65D6
:102E40002046FFF749FF99E723684FF400721A659F
:102E50002046FFF739FF82E72368D3F8D410D3F870
:102E6000DC208020186511402046FFF72FFF7BE70C
:102E70002DE9F04F0C6885B0002C00F083804FF0F6
:102E8000000CDFF8D8A163464FF0010B89460BFA1E
:102E900003F515EA04086FD0D9F8047007F00302AF
:102EA000511E012971D9032A40F0B08002FA0CF2B8
:102EB000D143056829400A4317F4403F02605BD0C4
:102EC000DAF8602042F00102CAF86020DAF86020E7
:102ED00002F001020392039A23F0030202F18042FE
:102EE00002F5803203F003059168AD000F2606FA63
:102EF00005FEB0F1904F21EA0E0119D0514EB042BB
:102F000000F08F80504EB04200F08F804F4EB042A4
:102F100000F081804E4EB04200F08D804D4EB042A8
:102F20000CBF4FF0050E4FF0060E0EFA05F52943C3
:102F30009160494A484992686FEA0805FE0254BF09
:102F40002A4048EA02028A60CA68B902424954BF6C
:102F50002A4048EA0202CA6049683F4ABE0354BF99
:102F6000294048EA010151601268F9033A4954BF07
:102F70002A4048EA02020A60013334FA03F20CF1F3
:102F8000020C84D105B0BDE8F08F8168D9F80C60DF
:102F90004FF0030E0EFA0CFE21EA0E0106FA0CF6B3
:102FA000314381606FEA0E01D0F804E02EEA050E8D
:102FB000C7F300159D4045EA0E054560C56805EA62
:102FC000010ED9F8085005FA0CF545EA0E05022A5B
:102FD000C56002FA0CF27FF46CAFDD0800EB8505EA
:102FE00001952E6AD9F81050009603F0070E4FEAAB
:102FF0008E0E0F2605FA0EF506FA0EFE009E26EA44
:103000000E0E019E45EA0E05356252E7032101FAD4
:103010000CF1C943D2E74FF0030E0EFA05F5294330
:1030200086E70BFA05F5294382E74FF0020E0EFA08
:1030300005F529437CE74FF0040E0EFA05F5294308
:1030400076E700BF0004004800080048000C004874
:103050000010004800140048000401400010024025
:103060000369194214BF0120002070470AB1816131
:1030700070478162704700BFF8B503689D6915F01D
:103080001005064640D0174610220C46DA619A69B0
:10309000950604D4621C4DD19A699706FCD520226E
:1030A000DA6100259A69D40545F004054FF0010066
:1030B0002ED4510539D54FF48061D96145F008050A
:1030C000970504D54FF4007245F00205DA619A695C
:1030D000910744BF00229A629A69D20703D49A6981
:1030E00042F001029A615A6826490A405A60736C9C
:1030F00000221D432023756486F8402086F8413065
:1031000086F842200120F8BD9A69D4052846D0D51A
:103110004FF480715005D96145F00105D0D54FF4C9
:103120008061D96145F00805CAE79405CAD4002832
:10313000CDD1F8BDFEF766F9C01BA042336801D8B7
:10314000002CA4D1586896F8422099690D04D2B297
:103150000BD5410409D4202A07D05A6842F4804292
:103160005A60FEF74FF93368074699698A068ED48C
:10317000FEF748F9C31B192B3368F6D99A69202545
:1031800090E700BF00E800FE70B5036804460D46F6
:10319000164605E0FFF770FF50B96A1C0AD1236894
:1031A0009B699B07324629462046F3D5002070BD17
:1031B000012070BDFEF726F9801BA842236801D8C4
:1031C000002DEDD19A6912F00202E9D1636C84F806
:1031D000402020210B43636484F8411084F842208E
:1031E000012070BD2DE9F041DDF818801D46044630
:1031F00003680F46164605E0FFF73EFF80B96B1CDB
:1032000011D123689B6937EA03030CBF0123002314
:10321000B342424629462046EED00020BDE8F08168
:103220000120BDE8F081FEF7EDF8A0EB0800A84210
:10323000236801D8002DE5D19A6937EA02020CBF54
:1032400001220022B242DDD1636C002243F0200350
:103250002021636484F8402084F84110012084F820
:103260004220DBE703689B699B0629D470B50546BD
:103270000C4616460DE0FEF7C5F8801BA0422968F3
:1032800000D81CB98B6913F020030DD08B699B0605
:1032900008D4324621462846FFF7EEFE0028EAD041
:1032A000012070BD002070BD6A6C85F8403020217F
:1032B0000A436A6485F8411085F84230012070BDE8
:1032C00000207047002854D010B590F841300446D3
:1032D00003F0FF02002B47D02368242284F841200A
:1032E0001968626821F0010122F0706219601A61A8
:1032F0009A68E16822F4004201299A60A26809D024
:1033000042F4044202299A6007D15A6842F40062EA
:103310005A6006E042F400429A605A6822F4006261
:103320005A605968226941F0007141F400415960C6
:103330006169D8680A43A16920F4004042EA012289
:10334000E169D860206ADA6001431960196841F0C8
:103350000101196000222023626484F84130226355
:1033600084F84220104610BD80F84020FDF7A8FBED
:10337000B2E70120704700BF2DE9F04F994690F861
:10338000413083B0202BBDF834A00E9F26D10C9B7A
:103390000446E3B1BAF1000F19D090F84030012B88
:1033A0001CD04FF0010B80F840B00D469046FEF760
:1033B00029F85A460646009019234FF4004120464A
:1033C000FFF710FF70B1012003B0BDE8F08F4FF49C
:1033D00000736364012003B0BDE8F08F022003B0E6
:1033E000BDE8F08F0C9B6362212384F84130226892
:1033F0005D496063402384F842306064A4F82AA0E9
:1034000053680B405FFA89F143EA0143C5F30905AC
:103410002B4343F0807343F40053536039463246E4
:103420002046FFF7B1FE002868D1B9F1010F5AD14B
:1034300023685FFA88F29A62802100963B46002258
:103440002046FFF7CFFE002858D1638D9BB2FF2B9B
:1034500058D8638D216845484A689BB22385DBB202
:1034600045EA03430240134343F000734B60DFF827
:10347000FC80DFF8009103E0638D9BB2002B5DD0F0
:10348000324639462046FFF77FFE00289BD1636A0B
:10349000226813F8011B91626362638D228D013BE8
:1034A0009BB26385638D013A92B29BB22285002B59
:1034B000E2D0002AE0D100963B4680212046FFF76B
:1034C00091FE00287FF47FAF638D9BB2FF2B26D93E
:1034D0002268FF232385536803EA08032B4343EA4A
:1034E00009035360C8E723684FEA18229A623946F5
:1034F00032462046FFF748FE002899D0002384F882
:10350000403060E722681949FF23238553680B4048
:103510002B4343F0FF7343F480335360A7E7638D7D
:1035200021689BB24A682385DBB245EA034302EA7D
:103530000802134343F000734B609DE7324639465F
:103540002046FFF78FFE00287FF43DAF2368084D2B
:103550002021D9615A682A405A6084F8411084F8C1
:10356000400084F8420036E7009800FC009C00FC14
:1035700000E800FE0000FF0190F84120202A23D13E
:103580005FFA82FC90F84020012A03461CD00268B2
:10359000242000B583F84100106820F0010010607D
:1035A000106820F4805010601068014311601168A9
:1035B0004FF0000E41F00101116083F841C083F823
:1035C00040E070465DF804FB0220704790F841200F
:1035D000202A22D100B55FFA82FE90F84020012A0D
:1035E00003461CD00268242083F84100106820F0B4
:1035F00001001060106820F4706040EA0121116041
:1036000011684FF0000C41F00101116083F841E0B6
:1036100083F840C060465DF804FB0220704702203A
:103620005DF804FB002849D070B590F89132064649
:1036300003F0FF02002B3CD00323306886F8913260
:1036400003F066F835791DB30021334632464FF05A
:10365000010C0C4611740131C8B28542C2E908441C
:1036600082F811C0D47442F8284FF3D800210A46DA
:1036700083F850110131CCB2A542C3E9582283F836
:10368000512183F85321C3F8682103F12803EFD8AF
:103690003346002453F8040B93E8060003F042F885
:1036A000B37A34730122934286F8912208D02046DF
:1036B00070BD80F8902208F0CFFBBDE70120704775
:1036C000304600F0EFFE204670BD00BF90F890320B
:1036D000012B0ED010B504460123006884F8903207
:1036E00003F00CF8206803F03BFE002084F8900201
:1036F00010BD0220704700BF2DE9F84F0446006856
:1037000003F03AFE10F400452BD1430500F172811D
:1037100047041BD410F4005140F0EA81C60400F1C4
:103720008980050500F13283010600F104838205DA
:1037300000F10F84C30512D52268B2F8443023F497
:1037400080731B041B0CA2F8443008E02268B2F816
:10375000443023F480431B041B0CA2F84430BDE822
:10376000F88F2068B0F844301F04F8D5DFF898AA25
:10377000DFF898BA10E011F0100100F0C080018865
:1037800011F400658BB240F0E0801E0400F14F811F
:10379000B0F844301A04E2D5B0F84450A9B215F09C
:1037A0000F05E8D02EB230F826301F041FFA83F937
:1037B00063D419F0800FEBD030F826309BB203EAC7
:1037C0000A0343F4004320F8263005EB850304EB9D
:1037D000C3034FEA8508DA7C012A00F0948119F4CA
:1037E000807740F0C281B0F8502093F810C000F20A
:1037F000024106EB860611FA82F204EBC60532F8A6
:103800003C20A96AC2F3090291424FEAC60640F27F
:10381000A581891AA962002900F0A1811036A11999
:103820005E6A16445E62EB6A1344EB6203F034FA9C
:103830002068ADE72268B2F8403023F004031B048F
:103840001B0CA2F84030B2F8403023F008031B04F0
:103850001B0CA2F8403094F8C832012B00F087838B
:10386000204608F069FB2268B2F8443023F4805304
:103870001B041B0CA2F8443071E730F8262040F6F8
:103880008F73134043F0800305EB850120F8263049
:1038900004EBC1014FEA850891F85C31002B76D129
:1038A000B0F8503000F2064212FA83F391F850213A
:1038B00033F83270C7F30907002F40F0ED8108EBB1
:1038C000050304EBC303D3F86C213A44C3F86C211D
:1038D000D3F864213A44C3F86421D3F8682122B1B3
:1038E000D3F86031BB4240F2BA81A84404EBC80867
:1038F000204698F8501108F0E5FA206859E7038847
:103900009BB203EA0A0343F400430380B0F850304B
:10391000227C10FA83F040F2024303EBC203626A96
:10392000C35AC3F30903E36213446362204608F0F9
:10393000D3FA237B4BB3A36A3BBB227B206842F0C4
:103940008002A0F84C20237322E7B0F8502094F8AE
:10395000501140F2064310FA82F203EBC10304F562
:103960002671D35AB4F85621C3F30903C4F86C3155
:1039700003F016FD2268118840F68F730B4043F068
:1039800080031380204608F097FA206800E791F83A
:103990005331022B00F0158291F8502130F822307B
:1039A00023F4E04323F070031B041B0C43F4004397
:1039B00043F0C00320F8223091F850311AB230F8A9
:1039C000222012F4804FB0F8502000F0528100F213
:1039D000024717FA82F232F83370C7F30907002F53
:1039E0003FF46DAFB1F85821D1F864113B4603F0B4
:1039F000D7FC64E72268B2F8443023F480631B04E8
:103A00001B0CA2F84430204608F074FA94F8903267
:103A1000012B3FF4A4AE0123206884F89032257373
:103A2000294603F097FC84F89052BDE8F88F02888D
:103A300040F68F73134043F080030380B0F85020AA
:103A400094F8501140F2064310FA82F203EBC103DE
:103A5000D35AC3F30903C4F86C3193B1D4F8641199
:103A600079B1B4F8562103F09BFCD4F86431D4F852
:103A70006C21134420462946C4F8643108F022FA28
:103A8000206803881D059AB23FF582AE02F44052C9
:103A9000B2F5405F3FF47CAEB0F85030D4F860111E
:103AA0009BB200F206453E29EA5AC2F30902EA52E5
:103AB00040F2C481EA5A4E09C90608BF06F1FF3632
:103AC00092B242EA86226FEA42426FEA524292B2D0
:103AD000EA52038823F4804323F070031B041B0C79
:103AE00083F4405343F4004343F0800303804FE6E4
:103AF0002268B2F8443023F400531B041B0CA2F8D4
:103B00004430BDE8F88F6A1C02EB8202002144F8C1
:103B100032101A7FCAB119F040095A7C40F0028174
:103B2000002A40F02A821A7CB0F8503000F2064099
:103B300010FA83F303EBC2031A88C2F309021A8056
:103B40001A8892B242F400421A80454404EBC5053B
:103B50002046297C08F0C0F9206819E6AF622046AB
:103B6000614608F0B9F9206812E6197CB0F85030C7
:103B700006EB8606CA0019F0400704EBC60612FAE7
:103B800083F300F0918000F2024CB76A33F80C30F6
:103B9000C3F309039F420AB240F25D81FF1AB76284
:103BA000002F00F05A8119F4804F0DD030F8221008
:103BB00021F4E04121F070010904090C41F4404175
:103BC00041F0800120F8221008EB050E04EBCE0E28
:103BD0009EF83410012940F09380DEF82410194437
:103BE000CEF82410F76A1F44F762DEF83070DEF872
:103BF0002060B742C0F0B882BF1BCEF83070B3B2BD
:103C000008EB050704EBC7077F7C002F40F0A2827A
:103C1000B0F850701CFA87FC3E2E3CF83270C7F3A7
:103C200009072CF8327040F2C2827709F6063CF898
:103C3000326008BF07F1FF37B6B246EA87266FEA5F
:103C400046466FEA5646B6B22CF8326008EB0502DB
:103C500004EBC202128B03F093FB206850E0282192
:103C600001FB0541206801F5A87103F015F82068F3
:103C70009FE500F2064717FA82F232F83370C7F375
:103C80000907002F3FF41BAEB1F85A21D1F8641197
:103C90003B4603F085FB12E6B1F85621D1F86411DA
:103CA0003B4603F07DFB0AE600F2064CD6F828E01E
:103CB00033F80C30C3F309039E450AB2C0F01481F7
:103CC000AEEB0307B762002F00F00F8119F4804FAD
:103CD0000DD130F8221021F4E04121F070010904E7
:103CE000090C41F4404141F0800120F8221008EB1A
:103CF000050E04EBCE0E9EF83410012900F0ED8184
:103D0000454404EBC5052A7C30F822309BB203EA17
:103D10000B0383F0300343F4004343F0800320F8A7
:103D2000223035E5002A40F037811A7CB0F8503057
:103D300000F20240FCE62268B2F8443023F080032F
:103D40001B041B0CA2F8443094F8C832002B7ED11F
:103D5000B2F840309BB243F00403A2F84030B2F80E
:103D600040309BB243F008030121A2F8403084F8B0
:103D7000C812B2F85430C3F38D0303F03C03C4F807
:103D8000CC322046BDE8F84F08F0BCB92268B2F842
:103D900040309BB243F00803A2F84030B2F8443000
:103DA00023F400631B041B0CA2F84430B2F840302B
:103DB0009BB243F004032046A2F8403008F0ACF870
:103DC000CDE419F48042B0F8503000F0F38000F2F6
:103DD000024212FA83F391F850C1D1F8682133F806
:103DE0003C30C3F309039A421F46C0F06081D21AE7
:103DF000C1F86821002A00F05D8119F0400F0FD052
:103E00000FFA8CFC30F82C2022F4E04222F07002F1
:103E10001204120C42F4004242F0C00220F82C209E
:103E20000BB91F464BE508EB050104EBC101B1F8E6
:103E30005821D1F8641103F0B3FA40E5002940F0AD
:103E4000EF80EA5A92B242F40042EA5241E620463A
:103E500008F062F883E40023B36208EB050304EB87
:103E6000C3035B7C002B40F0E780B0F850301CFAB5
:103E700083FC00F206463CF83230C3F309032CF809
:103E800032303CF832309BB243F400432CF83230ED
:103E9000B0F8503016FA83F333F83200C0F309005B
:103EA00023F8320033F8320080B240F4004023F8A7
:103EB0003200204608F010F819F4804F47D008EB84
:103EC000050304EBC30320681A7C30F8223023F486
:103ED000E04323F070031B041B0C43F4404343F006
:103EE000800320F822300BE7B76208EB050304EBF0
:103EF000C3035B7C002B40F0B280B0F8506000F24E
:103F0000024313FA86F333F83260C6F3090623F846
:103F1000326033F83260B6B246F4004623F83260BD
:103F2000B0F850301CFA83FC3CF83230C3F309037C
:103F30002CF832303CF832309BB243F400432CF87A
:103F40003230204607F0C8FF19F4804FB7D0206800
:103F5000D6E62268B2F8443023F400731B041B0C2D
:103F60002046A2F8443007F0C1FFFFF7F8BB84F801
:103F7000C812204608F0C6F872E4012A7FF4E5ADC5
:103F80001A7CB0F8503000F2064010FA83F303EBCD
:103F9000C203A3F80090D8E5012A7FF4D6AD1A7CBD
:103FA000B0F8503000F2024010FA83F303EBC20382
:103FB0001980CAE500F2064717FA83F391F850C159
:103FC000D1F868E133F83C30C3F309039E451F463E
:103FD00058D3AEEB0302C1F86821002A54D019F07F
:103FE000400F0FD10FFA8CFC30F82C2022F4E04265
:103FF00022F070021204120C42F4004242F0C0029D
:1040000020F82C20002B3FF40CAF08EB050104EB4B
:10401000C101B1F85A21D1F8641103F0C1F94EE49D
:10402000CA07EA5A4FEA510648BF013692B242EA3D
:10403000862292B2EA524CE5012B7FF43AAFB0F8F7
:1040400050301CFA83FC00262CF83260B0F8503057
:1040500000F2064717FA83F323F8326029E7012BB1
:104060007FF46FAFB0F8503000F2024616FA83F3D7
:10407000002623F83260B0F850301CFA83FC2CF88C
:1040800032605EE7C1F868210FFA8CF130F8212028
:1040900022F4804222F070021204120C82F40052C8
:1040A00042F4004242F0800220F8212097E70022EB
:1040B000C1F868210FFA8CF130F8212022F48042F7
:1040C00022F070021204120C82F4005242F40042F8
:1040D00042F0800220F821208FE6DEF824101944F7
:1040E000CEF82410F76A1F44F762DEF83070DEF86D
:1040F0002060B74246D3BF1BCEF83070B3B208EB96
:10410000050704EBC7077F7C9FBBB0F850701CFA13
:1041100087FC3E2E3CF83270C7F309072CF832704A
:104120004ED97709F6063CF8326008BF07F1FF3731
:10413000B6B246EA87266FEA46466FEA5646B6B2F8
:104140002CF8326008EB050204EBC202528B03F03C
:1041500017F9FCE6012F7FF479ADB0F850601CFA36
:1041600086FC2CF8323071E58FB98EF834701E461B
:1041700046E5012FE6D1B0F850601CFA86FC2CF819
:104180003230DFE75FB98EF834701E46B7E70023A0
:104190008EF83430CEF830303E46BBB230E50023E6
:1041A000CEF830308EF834303E46BBB2A7E786B941
:1041B0003CF83260B6B246F400462CF8326045E571
:1041C000A6B93CF83260B6B246F400462CF832602C
:1041D000B8E77708F6073CF8326048BF0137B6B257
:1041E00046EA8726B6B22CF832602FE57708F60744
:1041F0003CF8326048BF0137B6B246EA8726B6B20D
:104200002CF832609EE700BF0F8FFFFFBF8FFFFFCC
:1042100090F89022012A0CD010B5044601220068C3
:1042200084F89022217303F095F8002084F890021E
:1042300010BD0220704700BF01F0070C11F0800F85
:104240004FF0280110B501FB0C0104461FD10CEB07
:104250008C0E00EBCE0E002001F5A8718EF85101F6
:10426000022BCB7004BF00230B7181F800C00A61E0
:1042700094F89032012B14D0012384F890322068F6
:1042800002F064FA002384F89032184610BD0CEB5B
:104290008C0004EBC0004FF0010E103180F811E0EB
:1042A000DEE7022010BD00BF01F0070303EB83022D
:1042B00011F0800F4FF0280110B500EBC202044648
:1042C00001FB030113D101F5A871002082F851010F
:1042D0000B7094F89032012B11D00123206884F8E0
:1042E000903202F0F9FB002084F8900210BD1031EA
:1042F000012050740B7094F89032012BEDD1022004
:1043000010BD00BF01F0070101EB810C10B500EBFF
:10431000CC0C0024CCF86421282202FB01028CF88A
:10432000501100688CF85141CCE95A3402F5A8715B
:1043300002F0B2FC204610BD01F0070101EB810143
:1043400000EBC101D1F86C01704700BF10B501F05E
:10435000070E0EEB8E0100EBC10C6146CCF8283045
:10436000CCF83030002401230068CCF82420103130
:104370008CF83430CCF82C408CF811308CF810E0EC
:1043800002F08AFC204610BD027901F007039A4230
:1043900032D30A0610B504461BD401EB8102282053
:1043A00000FB014104EBC20201F5A871002082F874
:1043B000510101228A700B7094F89032934219D007
:1043C000206884F8902202F04DFF002084F89002CB
:1043D00010BD03EB8302282101FB030100EBC202A5
:1043E00010310120507401228A700B7094F89032C1
:1043F0009342E5D1022010BD0120704738B5027903
:1044000001F00F039A422FD301F0070303EB83025D
:1044100011F0800F4FF02801044600EBC20201FBAF
:10442000030115D101F5A8710020002582F8510182
:104430008D700B7094F89032012B13D001232068FB
:1044400084F8903202F036FF84F89052284638BD46
:1044500010310120002550748D700B7094F890324B
:10446000012BEBD1022038BD012038BD11F0800FA7
:104470000BD001F0070101EB810100EBC10010300E
:104480005AB90273C3800020704701EB810100EB31
:10449000C10000F5A870002AF3D0012202738360E6
:1044A000002070470268002110B480F8C812B2F8EA
:1044B000543001249BB22343C0F8D042A2F85430B8
:1044C000B2F854305DF8044B9BB243F00203084647
:1044D000A2F85430704700BF10B43B4A70B913685B
:1044E00003F4C063B3F5806FD2F8803023D023F497
:1044F00080735DF8044BC2F880307047B0F5007FE0
:1045000009D013685DF8044B23F4C06343F480635F
:10451000002013607047136803F4C063B3F5806F25
:10452000D2F880302FD043F4807300205DF8044B24
:10453000C2F88030704723F48073C2F8803011686D
:10454000224C234821F4C06141F4007111602368BA
:10455000322101FB03F35169A0FB03039B0C4805C7
:1045600003F1010306D500E023B15169490503F1C8
:10457000FF33F9D4144B5B695C0554BF0020032062
:104580005DF8044B704743F48073C2F880301168C3
:104590000E4C0F4821F4C06141F400711160236892
:1045A000322101FB03F35169A0FB03039B0C480577
:1045B00003F10103DED501E0002BDBD05169490591
:1045C00003F1FF33D6D5F7E700700040000000206C
:1045D00083DE1B43024A936843F480439360704731
:1045E00000700040002800F000822DE9F0410368CF
:1045F000D90782B004462DD5AF498A68C96802F050
:104600000C020C2A00F00681082A00F00881636879
:10461000B3F5803F00F07781B3F5A02F00F0D8818B
:10462000A54D2A6822F480322A602A6822F480226A
:104630002A60002B40F06C81FCF7E4FE064605E0A2
:10464000FCF7E0FE801B642800F27F812B689F034B
:10465000F6D423689E0728D5974A9368D26803F05A
:104660000C030C2B00F03081042B00F03281E36846
:10467000914D002B00F05A812B6843F480732B601E
:10468000FCF7C0FE064605E0FCF7BCFE801B0228D6
:1046900000F25B812B685805F6D56B68226923F020
:1046A000FE4343EA02636B6023681A0719D5636906
:1046B000814D002B00F09980D5F8943043F0010330
:1046C000C5F89430FCF79EFE064605E0FCF79AFE1E
:1046D000801B022800F23981D5F894309B07F5D56C
:1046E00023685E0741D5744B9A6DD50000F1318186
:1046F0009A6D42F080529A659B6D03F0805301934E
:10470000019B01256D4E3368D80540F15081A368A7
:10471000012B00F02081052B00F06981664ED6F850
:10472000902022F00102C6F89020D6F8902022F0C6
:104730000402C6F89020002B40F01481FCF762FEC2
:1047400041F28838074605E0FCF75CFEC01B404597
:1047500000F2FB80D6F890309B07F5D425B1564A7D
:10476000936D23F08053936523689D0618D5A36944
:10477000514D002B00F00781D5F8983043F001032C
:10478000C5F89830FCF73EFE064605E0FCF73AFE19
:10479000801B022800F2D980D5F898309807F5D50B
:1047A000E069002800F08380434DAB6803F00C0300
:1047B0000C2B00F02A812B68022823F080732B60D9
:1047C0003AD0FCF71FFE044605E0FCF71BFE001B79
:1047D000022800F2BA802B6813F00073F5D1E96863
:1047E000374A0A401846EA6062E0D5F8943023F070
:1047F0000103C5F89430FCF705FE064605E0FCF71A
:1048000001FE801B022800F2A080D5F894309F079B
:10481000F5D465E701F0030103297FF4F8AE264AD9
:10482000126892037FF516AF6268002A7FF412AF18
:10483000012002B0BDE8F081FCF7E4FD064604E08B
:10484000FCF7E0FD801B02287FD82B689A01F7D483
:10485000E9681C4B226A606A174E0B401343D4E987
:104860000A1243EA012343EAC263D4E90C12013875
:10487000490843EA00130139520843EA4153013A17
:1048800043EA4263EB602B6843F080732B60EB6874
:1048900043F08073EB60FCF7B5FD044604E0FCF7E1
:1048A000B1FD001B022850D833689B01F7D50020CA
:1048B00002B0BDE8F08100BF00100240007000406F
:1048C000FCFFEEFE0C809F0102F00302022A7FF43F
:1048D000CEAE684B1B685D0502D5E368002BA7D000
:1048E000644A20695368644923F0FE4343EA006345
:1048F00053600868FCF786FA002899D123681A07E4
:104900007FF5EFAED3E65B4A136843F48033136060
:10491000FCF778FD574E054604E0FCF773FD401B9D
:10492000642812D833689B03F7D592E62B6823F4EA
:1049300080732B60FCF766FD06462B685905DDD5B4
:10494000FCF760FD801B0228F7D9032002B0BDE808
:10495000F0810025D6E6474AD2F8903043F00103B3
:10496000C2F89030FCF74EFD424F064641F28838BF
:1049700004E0FCF747FD801B4045E6D8D7F89030AF
:104980009A07F6D5EAE6D5F8983023F00103C5F882
:104990009830FCF737FD064604E0FCF733FD801B3A
:1049A0000228D2D8D5F898309907F6D4F8E63368BB
:1049B00043F480733360FCF725FD07463368D9055F
:1049C0003FF5A5AEFCF71EFDC01B0228F6D9BCE7DB
:1049D00003F18043A3F53C331A6842F480221A6045
:1049E0001A6842F480321A6092E701207047214B26
:1049F000D3F8902042F00402C3F89020D3F890201E
:104A000042F00102C3F89020ACE701283FF450AF18
:104A1000EB68226A03F0030191427FF409AF616AF7
:104A200003F0F0020139B2EB011F7FF401AFA16A7C
:104A300003F4FE42B2EB012F7FF4FAAEE16A03F019
:104A40007842B2EBC16F7FF4F3AE226B520803F4ED
:104A5000C001013AB1EB425F7FF4EAAE626B5208EB
:104A600003F0C063013AB3EB426F14BF0120002092
:104A70001EE700BF0010024008000020184B9A6893
:104A800002F00C02042A27D09A6802F00C02082ACD
:104A900024D09A6802F00C020C2A01D00020704742
:104AA000D968D86801F003010329C0F3031000F1AD
:104AB0000102D8680CBF0B4B0B4BB3FBF2F2084B57
:104AC000DB68C3F34163C0F30620013302FB00F04F
:104AD0005B00B0FBF3F07047034870470148704734
:104AE0000010024000127A000024F400002800F0B8
:104AF000EE807F4A2DE9F843136803F00F038B42E1
:104B00000D4604460CD2136823F00F030B431360C9
:104B1000136803F00F038B4202D00120BDE8F88335
:104B20002368DF0763D56268032A00F09A80714B1F
:104B3000022A1B6800F091805B05EED5FFF79EFF0F
:104B40006D4B984200F2C58062684FF00009694ED3
:104B5000B36823F003031A43B260FCF753FC41F23D
:104B60008838074604E0FCF74DFCC01B404571D86F
:104B7000B368626803F00C03B3EB820FF3D12368D0
:104B80009F0736D4B9F1800F03D1B36823F0F00347
:104B9000B360574E336803F00F03AB4246D8236827
:104BA0005A0706D55349E0688A6822F4E062024356
:104BB0008A601B0707D54F4A2169936823F4605325
:104BC00043EAC1039360FFF759FF4A4A4B4C92688E
:104BD0004B49C2F303120346A25C4A4802F01F028B
:104BE000D3400B600068BDE8F843FCF70BB99E07A3
:104BF000CFD5580704D53F498A6842F4E0628A60FD
:104C0000190706D53B4A936823F47C5343F4E063C9
:104C10009360384AA1689368354E23F0F0030B4344
:104C20009360336803F00F03AB42B8D9336823F0C5
:104C30000F032B433360FCF7E5FB41F2883807464E
:104C4000336803F00F03AB42A9D0FCF7DBFBC01BBA
:104C50004045F5D90320BDE8F8839A033FF56EAFD0
:104C60005BE72449086880017FF557AFCE68C868C4
:104C7000C968214F06F00306032EC0F303100CBFD2
:104C8000214E224E0130B6FBF0F01A4EC1F3062140
:104C900000FB01F1F068C0F3416001304000B1FB5E
:104CA000F0F1B94220D9B16811F0F00F05D013F03E
:104CB00002093FF44CAFA368B3B90E498B6823F0E7
:104CC000F00343F080038B604FF080093FE7012041
:104CD0007047084A93684FF0800923F0F00343EAD5
:104CE00009039360626832E74FF000092FE700BFC5
:104CF000002002400010024000B4C40424D5000883
:104D0000000000200800002000127A000024F400B7
:104D1000054B064A9B680649C3F302230868D35C27
:104D200003F01F03D84070470010024034D500083C
:104D3000000000200E4B0F2202609A6802F003026E
:104D400042609A6802F0F00282609A6802F4E062BF
:104D5000C2609B68DB0810B403F4E063054C036198
:104D600023685DF8044B03F00F030B60704700BF2E
:104D70000010024000200240024A136843F400235E
:104D80001360704700100240704700BF10B5054C1B
:104D9000E369DB0500D410BDFFF7F6FF4FF4807325
:104DA000236210BD001002402DE9F0410368044663
:104DB00013F4002082B056D0AC4B9A6DD50040F170
:104DC0003E810027AA4D2B6843F480732B60FCF7CB
:104DD00019FB064605E0FCF715FB831B022B00F2CE
:104DE00039812B68D805F6D5A04DD5F8903013F44D
:104DF000407327D0226D9A4225D0D5F89010D5F86F
:104E0000903043F48033C5F89030D5F8903023F4D7
:104E10008033C5F8903021F44073C907C5F890304D
:104E200040F14881FCF7EEFA41F28838064605E089
:104E3000FCF7E8FA801B404500F20C81D5F8903071
:104E40009B07F5D5236D8949D1F8902022F4407253
:104E50001343C1F89030002027B1844A936D23F0AA
:104E6000805393652368DD0708D580496568D1F8CC
:104E7000882022F003022A43C1F88820990708D528
:104E80007A49A568D1F8882022F00C022A43C1F89B
:104E900088205A0708D57549E568D1F8882022F09E
:104EA00030022A43C1F888201F0708D56F492569B9
:104EB000D1F8882022F0C0022A43C1F88820DE06FB
:104EC00008D56A496569D1F8882022F440722A43DE
:104ED000C1F888209D0608D56449A569D1F88820C5
:104EE00022F440622A43C1F88820590608D55F4958
:104EF000E569D1F8882022F440522A43C1F888207D
:104F00001A0608D55949256AD1F8882022F440426A
:104F10002A43C1F88820DF0508D55449656AD1F8CD
:104F2000882022F440322A43C1F888209E0308D505
:104F30004E49A56AD1F89C2022F003022A43C1F809
:104F40009C209D0508D54949E56AD1F8882022F4BE
:104F500040222A43C1F8882059050BD54349256BC7
:104F6000D1F8882022F440122A43B5F5801FC1F8F9
:104F7000882071D01A050BD53C49656BD1F8882083
:104F800022F440022A43B5F5800FC1F8882068D08A
:104F9000DF040BD53549A56BD1F8882022F040728B
:104FA0002A43B5F1807FC1F8882063D09E040BD5D9
:104FB0002E49E56BD1F8882022F040622A43B5F1F2
:104FC000006FC1F888205AD05D040BD52749256CA5
:104FD000D1F8882022F040622A43B5F1006FC1F871
:104FE000882051D019040BD52049656CD1F8882050
:104FF00022F040522A43B5F1805FC1F8882048D0A2
:10500000DA030BD51949A56CD1F8882022F040426B
:105010002A43B5F1804FC1F888203FD05B030BD500
:10502000124AE16CD2F89C3023F440130B43B1F5E3
:10503000001FC2F89C3036D002B0BDE8F0819A6DF6
:1050400042F080529A659B6D03F080530193019B5F
:105050000127B7E60320FFE6CA6842F48012CA605F
:1050600088E7CA6842F48012CA6091E700100240E3
:1050700000700040CA6842F48012CA6096E7CA68AD
:1050800042F48012CA609FE7CA6842F48012CA6084
:10509000A8E7CA6842F48032CA60B1E7CA6842F43D
:1050A0008032CA60BAE7D36843F48013D36002B099
:1050B000BDE8F0811346C6E62DE9F04383B098467B
:1050C000002315468DF8033006460C46FCF79AF986
:1050D000A844A8EB0007FCF795F9304BD6F80090F0
:1050E0001B6803EB8303C3EBC3031B0D07FB03F335
:1050F000804601934A4601E06B1C0ED19368234021
:105100001DD0B4F5C06FF7D199F80C30DBB28DF833
:1051100003309DF803306B1CF0D0FCF773F9A0EB63
:105120000800B8420FD2019B3268002B019B03F1AB
:10513000FF330193936808BF00272340E1D118464D
:1051400003B0BDE8F083D6E900315A68B1F5827F3B
:1051500022F0E0025A6014D0B26AB2F5005F07D0C4
:105160000122002386F85D2086F85C300320E7E703
:105170001A6822F400521A601A6842F400521A6047
:10518000EEE7B268B2F5004F02D0B2F5806FE3D11E
:105190001A6822F040021A60DEE700BF000000201B
:1051A000F0B583B00C4615460646FCF72BF92544AE
:1051B0002D1AFCF727F9254B1B68C3F3CB3305FBEE
:1051C00003F307460193326801E0631C06D193683C
:1051D00013F08003F9D1184603B0F0BDFCF712F9C3
:1051E000C01BA84208D2019B002B019B03F1FF3397
:1051F00008BF00250193E6E7D6E900315A68B1F50A
:10520000827F22F0E0025A6014D0B26AB2F5005FE9
:1052100007D00122002386F85D2086F85C30032049
:10522000DAE71A6822F400521A601A6842F400524F
:105230001A60EEE7B268B2F5004F02D0B2F5806FA7
:10524000E3D11A6822F040021A60DEE70000002075
:1052500070B513460D4616460A464FF4C051044633
:10526000FFF72AFF70B9324629462046FFF798FF1C
:1052700040B933462A464FF4C0612046FFF71CFF71
:1052800000B970BD236E43F020030320236670BD78
:10529000002877D02DE9F041466A0446002E58D008
:1052A0000023C0E9043394F85D300022A26203F0C9
:1052B000FF02002B59D02168E268022384F85D3098
:1052C0000868B2F5E06F20F04000086047D9B2F5F9
:1052D000706F59D1A36A002003F40055A368276AB0
:1052E00002F4706E626803F4044302F482721A439B
:1052F000236903F002031A43636903F001031A43AD
:10530000636B03F0080306F0100C43EA0E0EA66967
:10531000E36903F0380806F40073134307F08007CD
:1053200043EA08033B432B430B60330C03F00403B5
:105330004EEA030343EA0C0303434B60CB690020AE
:1053400023F400630122CB61206684F85D20BDE870
:10535000F0814368B3F5827FA5D0C661A3E70BD087
:105360004FF480500025A562B8E784F85C20204601
:10537000FBF7F2FC666A9EE7A36A4FF4805003F4E1
:105380000055ABE7012070470020EBE72DE9F8431B
:10539000044690F85C00089D012800F0A5801F4697
:1053A000012384F85C3089469046FCF72BF80646CA
:1053B00094F85D0063680128C1B20DD0B3F5827F17
:1053C00005D00220002384F85C30BDE8F883A26891
:1053D000002AF6D10429F4D1B9F1000F00F082803F
:1053E000B8F1000F7ED0002F7CD094F85D20E168EA
:1053F000C4F84080042A1CBF052284F85D200022E6
:105400002266C4E913222268A4F84670B1F5E06F61
:10541000E7875168A4F84470C4F83890A78766D825
:10542000012F00F0F58021F4805151601168490688
:1054300000F1B080116841F040011160002B00F0D4
:10544000AC80012F00F0A9800127E38F9BB223B924
:10545000B4F846309BB2002B38D022689368990785
:1054600005D5E38F9BB213B1002F40F0B68093684F
:1054700013F001031ED0B4F8461089B2D1B1B4F8CC
:10548000461089B2012940F29A80216CD06821F837
:10549000020B2164B4F84610023989B2A4F8461010
:1054A000B4F8461089B201291F4603D8536843F463
:1054B00080535360FBF7A6FF801BA8427BD36B1C75
:1054C000C3D0012384F85D3003207BE732462946B0
:1054D0002046FFF7BDFE10B1202323660120236E76
:1054E000002B53D001206DE70220BDE8F88321F4A2
:1054F000805151601168480603D4116841F04001A1
:105500001160002B3FD1494631F8023BD360E38F55
:10551000A163013B9BB2E3870127E38F9BB223B9D1
:10552000B4F846309BB2002BD0D0226893689B071A
:105530000DD5E38F9BB253B14FB1A36B33F8021B70
:10554000D160A363E38F013B9BB20027E38793689D
:1055500013F001030FD0B4F8461089B259B11F46B9
:10556000236CD26823F8022B2364B4F84630013B45
:105570009BB2A4F84630FBF745FF801BA842CCD372
:10558000681CCAD09DE7012FC6D1BCE7012384F86F
:105590005D3017E7002B7FF457AFE38F9BB2012BF1
:1055A0003ED9494631F8023BD360E38FA163023B09
:1055B0009BB2E38748E7002D7FF447AF81E71F46A2
:1055C000236C127B1A70236C01332364B4F84630C9
:1055D000013B9BB2A4F846306CE7E38F9BB2012BF2
:1055E000A36B09D933F8021BD160A363E38F023B9D
:1055F0009BB20027E3873AE71B781373E38FA26B14
:10560000013B01329BB2A263E387226800272EE7A9
:1056100041F480515160116849067FF50BAFBCE73A
:1056200099F800301373E38FA26B013B01329BB2F8
:10563000A263E38708E700BF036A026A22F001025F
:10564000026270B4446882690D6822F4803222F0EC
:1056500073022A438D6823F002032B43154DA842A1
:1056600013D005F50065A8420FD005F54065A842A6
:105670000BD005F58065A84207D005F58065A842E6
:1056800003D005F50065A8420DD1CD6823F00803CD
:105690002B43D1E9056524F4407446EA050C23F058
:1056A00004034CEA040449684460826170BC4163AD
:1056B00003627047002C0140036A026A22F4807280
:1056C000026270B44468C2690D6822F4803222F02C
:1056D00073022A438D6823F4007343EA05231C4DAB
:1056E000A84217D005F50065A84213D005F5E0558E
:1056F000A84225D0174DA84213D005F58065A842D1
:105700000FD005F58065A8420BD005F50065A842CD
:105710000FD106E0CD6823F4006343EA052323F4A8
:105720008063D1E9056524F4405446EA050C44EA57
:105730000C1449684460C26170BCC1630362704765
:10574000CD6823F4006343EA052323F48063D1E7A3
:10575000002C014000400140036A026A22F480529A
:10576000026270B44468C2690D6822F0807222F44B
:10577000E64242EA05228D6823F4005343EA0533EA
:105780001C4DA84217D005F50065A84213D005F5B9
:10579000E055A84225D0184DA84213D005F58065E4
:1057A000A8420FD005F58065A8420BD005F500652D
:1057B000A8420FD106E0CD6823F4004343EA053345
:1057C00023F48043D1E9056524F4404446EA050CFE
:1057D00044EA8C1449684460C26170BC016403628D
:1057E0007047CD6823F4004343EA053323F4804334
:1057F000D1E700BF002C014000400140036A026A6B
:1058000022F48032026230B44468026D0D6822F4E2
:10581000803222F070022A438D6823F4003343EA79
:105820000543114DA84213D005F50065A8420FD0DD
:1058300005F54065A8420BD005F58065A84207D064
:1058400005F58065A84203D005F50065A84204D19E
:105850004D6924F4803444EA0524496844600265B3
:1058600030BC816403627047002C0140036A026A05
:1058700022F48012026230B44468026D0D6822F096
:10588000807222F4E04242EA05228D6823F400137C
:1058900043EA0553114DA84213D005F50065A8420F
:1058A0000FD005F54065A8420BD005F58065A842EC
:1058B00007D005F58065A84203D005F50065A8422C
:1058C00004D14D6924F4802444EA85244968446065
:1058D000026530BCC1640362704700BF002C014008
:1058E00090F83D30012B32D103681B49022280F829
:1058F0003D20DA688B4242F00102DA6019D0B3F140
:10590000804F16D0154A934213D002F5806293421D
:105910000FD002F5806293420BD002F5943293428D
:1059200007D002F54062934203D002F580529342C1
:1059300007D199680A4A0A40062A0AD0B2F5803F80
:1059400007D01A6842F0010200201A607047012057
:1059500070470020704700BF002C01400004004049
:1059600007000100002956D190F83E30012B5CD190
:10597000022380F83E3003680122186A01F01F01FB
:1059800002FA01F120EA01001862186A414A014353
:10599000934219625DD002F5006293420FD002F586
:1059A000406293420BD002F58062934207D002F529
:1059B0008062934203D002F50062934203D15A6C95
:1059C00042F400425A64B3F1804F16D0324A9342F7
:1059D00013D002F5806293420FD002F580629342A9
:1059E0000BD002F59432934207D002F54062934205
:1059F00003D002F58052934207D19968274A0A40A2
:105A0000062A14D0B2F5803F11D01A6842F0010284
:105A100000201A607047042920D0082926D00C29BC
:105A200007D190F84130012B28D001207047002089
:105A30007047102926D090F84330012BF5D1082962
:105A400018D00C291AD0102920D0022380F8433016
:105A500091E75A6C42F400425A64CEE790F83F3026
:105A6000012BE2D1022380F83F3084E790F84030E8
:105A7000012BDAD1022380F840307CE7022380F842
:105A8000413078E790F84230012BCED1022380F8E4
:105A9000423070E7002C0140000400400700010084
:105AA000036810B41A6A01F01F044FF0010C0CFADD
:105AB00004FC22EA0C021A622E4A1C6A1C629342FF
:105AC00025D002F50062934221D002F54062934254
:105AD0001DD002F58062934219D002F58062934294
