:020000040800F2
:100000000000022091130008990F0008A10F0008BA
:10001000A50F0008A90F0008AD0F000800000000A0
:10002000000000000000000000000000B10F000808
:10003000B50F000800000000B90F0008BD0F000850
:10004000E1130008E1130008E1130008E1130008C0
:10005000E1130008E1130008E1130008E1130008B0
:10006000E1130008E1130008E1130008E1130008A0
:10007000E1130008E1130008E1130008E113000890
:10008000E1130008E1130008C10F0008E1130008A4
:10009000DD0F0008E1130008E1130008E113000878
:1000A000E1130008E1130008E1130008E113000860
:1000B000E90F0008E1130008E1130008E11300084C
:1000C000E1130008E1130008E1130008E113000840
:1000D000E1130008E1130008E1130008E113000830
:1000E000E1130008E1130008E1130008E113000820
:1000F000FD0F0008E1130008E1130008E1130008F8
:10010000E1130008E1130008E1130008E1130008FF
:10011000E1130008E1130008E1130008E1130008EF
:10012000E1130008E1130008E1130008E1130008DF
:10013000E1130008E1130008E1130008E1130008CF
:10014000E1130008E1130008E1130008E1130008BF
:10015000E1130008E1130008E1130008E1130008AF
:10016000E1130008E1130008E1130008E11300089F
:10017000E1130008E1130008E1130008E11300088F
:10018000E1130008E1130008E1130008E11300087F
:10019000E11300080000000009100008E113000846
:1001A000E1130008E1130008E1130008E11300085F
:1001B000E1130008E1130008E1130008E11300084F
:1001C000E1130008E1130008E1130008E11300083F
:0801D000E1130008E11300082F
:1001D80010B5054C237833B9044B13B10448AFF379
:1001E80000800123237010BDE406002000000000F9
:1001F8007CA6000808B5034B1BB103490348AFF3BD
:10020800008008BD00000000E80600207CA6000869
:1002180081F0004102E000BF83F0004330B54FEAAF
:1002280041044FEA430594EA050F08BF90EA020F1C
:100238001FBF54EA000C55EA020C7FEA645C7FEAAF
:10024800655C00F0E2804FEA5454D4EB5555B8BFD2
:100258006D420CDD2C4480EA020281EA030382EA43
:10026800000083EA010180EA020281EA0303362DD5
:1002780088BF30BD11F0004F4FEA01314FF4801CA8
:100288004CEA113102D0404261EB410113F0004FBA
:100298004FEA03334CEA133302D0524263EB430371
:1002A80094EA050F00F0A780A4F10104D5F1200E0F
:1002B8000DDB02FA0EFC22FA05F2801841F100016A
:1002C80003FA0EF2801843FA05F359410EE0A5F13E
:1002D80020050EF1200E012A03FA0EFC28BF4CF06F
:1002E800020C43FA05F3C01851EBE37101F0004525
:1002F80007D54FF0000EDCF1000C7EEB00006EEB32
:100308000101B1F5801F1BD3B1F5001F0CD34908BB
:100318005FEA30004FEA3C0C04F101044FEA445212
:1003280012F5800F80F09A80BCF1004F08BF5FEA99
:10033800500C50F1000041EB045141EA050130BD79
:100348005FEA4C0C404141EB0101013C28BFB1F58B
:10035800801FE9D291F0000F04BF01460020B1FAD6
:1003680081F308BF2033A3F10B03B3F120020CDAA9
:100378000C3208DD02F1140CC2F10C0201FA0CF087
:1003880021FA02F10CE002F11402D8BFC2F1200CEC
:1003980001FA02F120FA0CFCDCBF41EA0C019040A2
:1003A800E41AA2BF01EB0451294330BD6FEA0404EB
:1003B8001F3C1CDA0C340EDC04F11404C4F12002D6
:1003C80020FA04F001FA02F340EA030021FA04F3E8
:1003D80045EA030130BDC4F10C04C4F1200220FA3F
:1003E80002F001FA04F340EA0300294630BD21FA7D
:1003F80004F0294630BD94F0000F83F4801306BF43
:1004080081F480110134013D4EE77FEA645C18BF36
:100418007FEA655C29D094EA050F08BF90EA020FCD
:1004280005D054EA000C04BF1946104630BD91EAC5
:10043800030F1EBF0021002030BD5FEA545C05D1C8
:100448004000494128BF41F0004130BD14F5800407
:100458003CBF01F5801130BD01F0004545F0FE417B
:1004680041F470014FF0000030BD7FEA645C1ABFB0
:10047800194610467FEA655C1CBF0B46024650EAE7
:10048800013406BF52EA033591EA030F41F4002113
:1004980030BD00BF90F0000F04BF0021704730B599
:1004A8004FF4806404F132044FF000054FF000016E
:1004B80050E700BF90F0000F04BF0021704730B52F
:1004C8004FF4806404F1320410F0004548BF404204
:1004D8004FF000013EE700BF42004FEAE2014FEA59
:1004E80031014FEA02701FBF12F07F4393F07F4F34
:1004F80081F06051704732F07F4208BF704793F037
:100508007F4F04BF41F40021704730B54FF4607449
:1005180001F0004521F000411CE700BF50EA01024C
:1005280008BF704730B54FF000050AE050EA0102F5
:1005380008BF704730B511F0004502D5404261EB65
:1005480041014FF4806404F132045FEA915C3FF4A6
:10055800D8AE4FF003025FEADC0C18BF03325FEA43
:10056800DC0C18BF033202EBDC02C2F1200300FAF4
:1005780003FC20FA02F001FA03FE40EA0E0021FA19
:1005880002F11444BDE600BF4FEA4102B2F1E04374
:1005980024BFB3F5001CDCF1FE5C0DD901F0004C62
:1005A8004FEAC0024CEA5070B2F1004F40EB8300B2
:1005B80008BF20F00100704711F0804F21D113F1DE
:1005C8003872BCBF01F00040704741F480114FEA17
:1005D8005252C2F11802C2F1200C10FA0CF320FAA0
:1005E80002F018BF40F001004FEAC1234FEAD323BD
:1005F80003FA0CFC40EA0C0023FA02F34FEA430327
:10060800CCE77FEA625307D150EA01331EBF4FF0AF
:10061800FE4040F44000704701F0004040F0FE40CA
:1006280040F40000704700BF00B587B0CDE904234F
:100638009DF824309DF820C00191002B14BF4FF085
:10064800804200220221BCF1000F0CBF01230223CB
:10065800029169460092039302F048F910B907B075
:100668005DF804FB00F01CFC07B05DF804FB00BF5C
:1006780038B504460D4602F06BF9B8B900220121DD
:10068800204602F087FAD0B900220821204602F05D
:1006980081FAE8B92368134A93421FD0124A934259
:1006A80003BF124B00201D60012038BD00F0F8FB8D
:1006B80000220121204602F06DFA0028E4D000F063
:1006C800EFFB00220821204602F064FA0028E1D05E
:1006D80000F0E6FB2368034A9342DFD1044B002075
:1006E8001D6038BD006400400068004064070020B9
:1006F80060070020CB0709D50368114A934210B55B
:10070800044611D00F4A934201D010BD70470E4BDA
:100718002046A3F12802402102F09AF90B4B0C481D
:100728001B68BDE810401847074B4021A3F1280279
:1007380002F08EF9074B06481B6898472368E1E7E3
:10074800006400400068004058070020640700204B
:1007580030070020600700200B0709D50368114AFD
:10076800934210B5044611D00F4A934201D010BDF0
:1007780070470E4B2046A3F12802412102F068F988
:100788000B4B0C481B68BDE810401847074B41212C
:10079800A3F1280202F05CF9074B06481B6898474A
:1007A8002368E1E700640040006800402807002053
:1007B80064070020000700206007002010B5082B00
:1007C8008AB04FF0000428BF0823CDE9011401A91D
:1007D800CDE90343CDE90544CDE90744099402F086
:1007E800CFF808B90AB010BD00F05AFB0AB010BD26
:1007F80010B5002492B03C22214603A8CDE900445C
:10080800029409F083FB33484FF480124FF0A04163
:100818000123C0E9001284830422C0E90244C0E92C
:1008280004438261036280F8244080F83840C4633E
:1008380080F8404000F02CFE00283AD100232548DB
:100848000093694601F0EEFD00283FD12249214876
:10085800042209240023CDE90314059203210792F9
:100868009C2208930B91ADF830308DF832300D9200
:100878008DF83C304FF480727F2303A90E920693C3
:1008880001F0A2FAF8B9154A124840F20F1303A969
:10089800CDE9032301F098FA90B9114A0D4840F2C6
:1008A800152303A9CDE9032301F08EFA20B912B06C
:1008B80010BD00F0F5FAC1E700F0F2FA12B010BD71
:1008C80000F0EEFAE9E700F0EBFADCE700F0E8FA0E
:1008D800BCE700BF6C070020020030040400600879
:1008E8000800900C10B590B03C22002101A809F036
:1008F8000DFB264C264800234FF4A0110122C0E925
:10090800004183830421C0E90233C0E904328161D4
:10091800026280F8243080F83830C36380F84030B1
:1009280000F0B6FD38BB1B491948042209240023EE
:10093800CDE901140392022105929C2206930991A4
:10094800ADF828308DF82A300B928DF8343080229B
:100958007F2301A90C92049301F036FA90B90E4A4C
:100968000B4840F20F1301A9CDE9012301F02CFA3D
:1009780020B910B010BD00F093FAD4E700F090FA57
:1009880010B010BD00F08CFAE9E700BF000100507C
:10099800D80700208000501D0001802130B5044692
:1009A8009FB00021542209A8CDE90411CDE9061110
:1009B800089109F0ABFA2368B3F1A04F04D0384A84
:1009C80093423BD01FB030BD4FF400424FF000536C
:1009D80009A809921A9304F089F9002859D1314AD3
:1009E80013680133012B136009D12F4BDA6C42F4E1
:1009F8000052DA64DB6C03F400530093009B2A4B2B
:100A0800D96C41F00101D964DB6C03F00103019357
:100A18000722019D0492002404A903234FF090406B
:100A2800CDE9053402F000FA22462146122001F0F1
:100A3800BDFD122001F0F8FD1FB030BD4FF400429B
:100A48004FF0005309A809921A9304F04FF918BB04
:100A5800144A13680133012B136009D1124BDA6C65
:100A680042F40052DA64DB6C03F400530293029BF5
:100A78000D4B0E48D96C41F00401D964DB6C03F0CE
:100A8800040306220393039B0492002404A903236E
:100A9800C6E700F005FAA2E700F002FAD8E700BFBF
:100AA80000010050680700200010024000080048BC
:100AB80038B51048104D002301220A240D21C0E941
:100AC8000053C0E90233C0E90D330382C363032333
:100AD800C0E90621C0E90A218274446144620362C4
:100AE800036301F0C9FD00B938BDBDE8384000F026
:100AF800D7B900BF440800200068004030B504465C
:100B08009DB00021542207A8CDE90211CDE90411B6
:100B1800069109F0FBF91F4B22689A4201D01DB0DB
:100B280030BD4FF480524FF0007307A80792159319
:100B380004F0DCF850BB184B18489A6D42F000726C
:100B48009A659A6D02F000720092009ADA6C42F08F
:100B58000202DA64DB6C03F0020301934FF44052A3
:100B680002230024CDE9022302A90923CDE9054384
:100B7800019D049402F058F922462146562001F0BE
:100B880015FD562001F050FD1DB030BD00F088F96C
:100B9800D1E700BF00680040001002400004004890
:100BA80070B500248AB0CDE90544CDE90744284B47
:100BB8000994D96C274E41F02001D964D96C01F011
:100BC800200101910199D96C41F00401D964D96CD3
:100BD80001F0040102910299D96C41F00101D96434
:100BE800D96C01F0010103910399D96C41F002011C
:100BF800D964DB6C03F002032246049310214FF002
:100C08009040049B02F008FA22463046302102F058
:100C180003FA012505A910234FF09040CDE90535C9
:100C2800CDE9074402F000F93046302305A90593C1
:100C3800CDE90654089402F0F7F80723064807940C
:100C480005A9CDE9053402F0EFF80AB070BD00BF80
:100C580000100240000800480004004810B5184879
:100C6800184C194900230122C0E90041C0E90232A9
:100C7800C0E90433C0E90633036202F0F9FA50B957
:100C88000F48002102F04EFC68B90D48002102F01F
:100C980073FC80B910BD00F003F90948002102F087
:100CA80041FC0028F1D000F0FBF80548002102F0D3
:100CB80063FC0028EED0BDE8104000F0F1B800BF9A
:100CC800A808002000540040FBA7A030F0B5044657
:100CD8009FB00021542209A8CDE90411CDE90611DD
:100CE800089109F013F9234B22689A4201D01FB0EA
:100CF800F0BD402309A8099303F0F8FF002836D176
:100D08001D4CE36C43F00103E364E36C03F001035F
:100D18000193019BE36C43F00203E364E36C03F08B
:100D280002030293002512264FF40043042704A966
:100D38004FF09040029A0493CDE90655059608971E
:100D480002F072F880230D48049304A9CDE90655F2
:100D58000596089702F068F8A36D43F40013A3659D
:100D6800A36D03F400130393039B1FB0F0BD00F0C1
:100D780097F8C5E7005400400010024000040048FE
:100D880010B594B03822002106A809F0BFF8002059
:100D9800CDE90100CDE90300059003F073FB2122A2
:100DA80006924FF4803207920122022303240C9208
:100DB80006A85522CDE90D34CDE90F32CDE911331E
:100DC800139303F0E5FB08B172B6FEE7042103466E
:100DD8000F220DEB0100CDE90124CDE90333059382
:100DE80003F05AFE08B172B6FEE703F067FF14B0CD
:100DF80010BD00BF00B583B0012400F015FBFFF75C
:100E0800BFFF642000F032FBFFF7CAFEFFF7F0FCDB
:100E1800FFF768FDFFF74CFE00F044F800F036F9E4
:100E280000F00CFA08F0C2FD00F0FAF8FFF716FF20
:100E380006F0AAFB07F024F906F052FB22462346E7
:100E480021462046CDE9004406F0D0FB0F4804F0C7
:100E5800E9FC0F4804F0E6FC3C210E4804F032FEA1
:100E68000D48446104F0B6F908F090FA08F0F8FA71
:100E780000210846094A234608F0CCFC074A022309
:100E88001021002008F0C6FCFEE700BFAC090020D6
:100E9800F809002060090020FC080020B0B4000810
:100EA80072B6FEE710B51148114C4FF48272002358
:100EB800C0E900424FF470614FF40072C0E902319A
:100EC8002824826107210822C0E90433C0E90743C6
:100ED800C0E90933C0E90B13426304F07BF900B998
:100EE80010BDBDE81040FFF7DBBF00BFFC080020C5
:100EF8000030014010B5184A016888B000239142BB
:100F0800CDE90333CDE90533079301D008B010BD0F
:100F180003F1804303F50433E0201A6E42F4805253
:100F28001A661A6E02F480520192019ADA6C42F043
:100F38000102DA64DB6C039003F0010302930224DC
:100F4800052303A94FF09040029A0494079301F0F7
:100F58006BFF08B010BD00BF003001400B4B1A6E8C
:100F680042F001021A661A6E82B002F00102009283
:100F7800009A9A6D42F080529A659B6D03F08053F7
:100F88000193019B02B003F0FBBA00BF00100240BE
:100F980008B503F09DFEFEE7FEE700BFFEE700BFD1
:100FA800FEE700BFFEE700BF704700BF704700BF05
:100FB800704700BF00F048BA08B5044800F094FB39
:100FC800BDE80840024800F08FBB00BF6C07002056
:100FD800D8070020014802F065BB00BF8027002029
:100FE80008B5034804F0BEFEBDE808400AF0D4B9CD
:100FF800AC090020014804F0B5BE00BFF809002084
:10100800014801F04DBE00BF44080020034AD2F851
:10101800883043F47003C2F88830704700ED00E070
:1010280000B58DB02022002104A808F06FFF1548F4
:10103800154901604FF6FF7100230122C16003A921
:10104800CDE90033C0E90133C0E904330293836179
:1010580003920592099205F049F858B90023094806
:1010680002936946CDE9003305F030FA28B90DB08E
:101078005DF804FBFFF714FFF0E7FFF711FF0DB071
:101088005DF804FB60090020002C014000B51A48F7
:1010980089B04FF080420023026044F26722CDE914
:1010A8000433CDE90633CDE90133C0E90133C0E9A2
:1010B80003230393836104F0B5FF90B94FF4805381
:1010C8000D48049304A904F05FFD90B900230A4871
:1010D800019301A9039305F0F9F928B909B05DF85E
:1010E80004FBFFF7DDFEE9E7FFF7DAFE09B05DF87C
:1010F80004FBFFF7D5FEE9E7AC09002010B5184A54
:10110800016888B000239142CDE90333CDE9053366
:10111800079301D008B010BD03F1804303F50433F1
:101128004FF440701A6E42F400621A661A6E02F4A6
:1011380000620192019ADA6C42F00102DA64DB6C17
:10114800039003F0010302930224062303A94FF03E
:101158009040029A0494079301F066FE08B010BD0F
:10116800002C01400368B3F1804F00D0704703F5AD
:10117800043300B5996D41F0010199659B6D83B009
:10118800002203F0010301931C201146019B01F08A
:101198000DFA1C2003B05DF804EB01F045BA00BF5E
:1011A8000E4B02689A4200D0704703F55C4300B5C5
:1011B800196E41F4005119661B6E83B0002203F4C6
:1011C800005301932C201146019B01F0EFF92C20CC
:1011D80003B05DF804EB01F027BA00BF003401400A
:1011E80030B5144A016887B000239142CDE9013334
:1011F800CDE90333059301D007B030BD03F1804337
:1012080003F504330224DA6C0B4842F00402DA6472
:10121800DB6C03F0040300934FF4EE55042301A99B
:10122800CDE90154CDE90443009A01F0FDFD07B072
:1012380030BD00BF003401400008004830B500242C
:1012480099B04F4D0194342221460BA8CDE90244B0
:10125800CDE90544CDE90744CDE90944049408F0F3
:1012680055FE484A2023AB6041F29A03C5E90024A1
:10127800C5E90334012280232846C5E9052304F083
:1012880003FF002862D1702301934FF4001200235A
:101298003B4801A9CDE9022305F018F900286BD1D4
:1012A8000022602336480A9204A9CDE90432CDE928
:1012B8000622CDE9082204F0C3FF002859D12A6884
:1012C8002F48936923F00803936104A9042204F0CA
:1012D800B7FF00284AD12A682948936923F4006394
:1012E800936104A9082204F0ABFF00283BD12A68C7
:1012F8002348D36923F00803D36104A941F290037A
:101308000C22059304F09CFF50BB29681C48CA694D
:1013180022F400620023CA614FF400544FF00072B7
:101328000BA9CDE90B33CDE90D33CDE90F34CDE968
:101338001133CDE91332CDE91533179305F022F9AE
:1013480038B90F48FFF74CFF19B030BDFFF7A8FDBB
:1013580099E7FFF7A5FD0A48FFF742FF19B030BD2E
:10136800FFF79EFDD1E7FFF79BFDC0E7FFF798FD6C
:10137800B1E7FFF795FDA2E7FFF792FD90E700BF01
:10138800F8090020003401400D488546FFF73EFE6D
:101398000C480D490D4A002302E0D458C4500433C8
:1013A800C4188C42F9D30A4A0A4C002301E013609E
:1013B8000432A242FBD308F085FDFFF71BFDFEE7D0
:1013C8000000022000000020E4060020D8C5000824
:1013D800E4060020802C0020FEE7000038B50F4B03
:1013E8001B680BB9012038BD0D494FF47A720546C8
:1013F800B2FBF3F30868B0FBF3F001F023F90446FD
:101408000028EFD10F2DEDD8024629464FF0FF30C6
:1014180001F0CCF8034B20461D6038BD04000020C5
:10142800000000200800002010B5032001F0ACF8EF
:101438000F20FFF7D3FF10B10124204610BD04464A
:10144800FFF78CFD204610BD034A0449136809685C
:101458000B441360704700BF440A002004000020BA
:10146800014B1868704700BF440A002038B504468D
:10147800FFF7F6FF631C054602D0044B1B681C44AB
:10148800FFF7EEFF431BA342FAD338BD0400002048
:1014980030B583B000230193002800F0DD80C56DCE
:1014A8000446002D00F0C58022689368980005D591
:1014B800936823F0204323F03F0393609368D90097
:1014C80019D47E4B7E481B6891689B09A0FB0303D7
:1014D80021F010419B0921F03F0101335B0041F0ED
:1014E800805191600193019B2BB1019B013B0193BA
:1014F800019B002BF9D19368DB0000F18B80E36D31
:1015080043F01003E365236E0120034323669368C9
:1015180013F0040FE36D40F08580DD0600F1828052
:10152800E36D23F4817343F00203E3659368D907FD
:1015380019D4B2F1A04F00F0AF80624B9A4200F08C
:10154800B480614903F5806389689B680B435F49F0
:1015580089680B43DB0706D45D498B68656823F40B
:101568007C132B438B60E568E36B94F824102B43C2
:10157800A5682B43657F012943EA453343EA0143C4
:1015880065D0E16A21B1256B01F4787129430B43D9
:10159800D568504929400B43D3601369616B23F028
:1015A80040630B43136193681D0724D4D16894F8F2
:1015B8003830257F21F480415B0021F0020143EAA5
:1015C80085330B432169D3601369002947D043F45D
:1015D80080331361D2F8C03023F47F5323F03F03E4
:1015E8000B43C2F8C03094F84030012B43D0136944
:1015F80023F0010313616369012B20D0136B23F0DF
:101608000F031363E36D23F0030343F00103E36562
:1016180003B030BD936813F0040F4FF00000E36D82
:101628003FF47BAFE36D012043F01003E36503B0A3
:1016380030BDFFF7B3F9256684F8585034E7116BCD
:10164800236A21F00F01013B0B431363DAE7A16A18
:10165800013943EA414394E7012003B030BD23F444
:1016680080331361D2F8C03023F47F5323F03F0353
:10167800C2F8C030B7E71169636CA56C21F4FF614B
:1016880021F004012B430B43E16C0B43216D0B4309
:1016980043F001031361AEE70A49936889680B4375
:1016A800D9073FF560AF0C4957E74FF0A0439B6857
:1016B80091680B43DB073FF556AFF4E700000020C5
:1016C800632D3E0500010050000400500006005044
:1016D800000700500740F0FF00030050704700BFAC
:1016E800704700BF704700BFF8B50368B3F1A04F5B
:1016F8001E685F68044600F0D2809448944A954971
:10170800834218BF0A469568B10705F01F0502D540
:10171800BA0700F1B680700740F18680790740F17A
:101728008380E26DD10603D4E26D42F40072E26573
:10173800DA6812F4406F21D1844A934200F0EC80B9
:1017480002F58062934200F01881DA68900415D49B
:101758001A68110712D59A68520700F105815A686C
:1017680022F00C025A60E36D23F48073E365E36DA5
:10177800DB0403D4E36D43F00103E3652046FFF780
:10178800ADFF23680C221A60B00654D5B90652D5AD
:10179800E26DD10603D4E26D42F40052E2656B4972
:1017A800DA6CD8688B4202F4C07200F0BB8001F595
:1017B80080618B4200F0C280D968D2B98A0100F1F9
:1017C800A3801A68500614D5890212D49A681207A1
:1017D80000F1D7805A6822F060025A60E36D23F462
:1017E8008053E365E36DD80503D4E36D43F001034B
:1017F800E365204606F022F9236860221A60310664
:1018080001D53A0659D4F00501D5F90560D4B205D9
:1018180001D5B80545D4F10601D5FA0610D47105ED
:1018280001D57A0560D4F8BD3207ADD538073FF544
:1018380078AFB006AAD47206E1D57806DFD5A7E757
:10184800E26B7AB1002D7CD0B3F1A04F00F0978005
:101858003E48404A3E49834208BF0A46926812F40D
:10186800604F0BD0E36D43F48063E365236E43F070
:10187800020323662046FFF735FF236810221A600B
:10188800CDE7E36DDB0603D4E36D43F40063E36562
:10189800204600F097FA236802221A603BE72C4A98
:1018A80031E7E36D43F48023E365204600F088FACE
:1018B80023684FF400721A60ADE7E36D43F4803398
:1018C800E3652046FFF70CFF236880221A609AE739
:1018D800E36D43F40033E365204600F06FFA2368B4
:1018E8004FF480721A6092E7E26D42F48042E2653A
:1018F800226E4FF4806142F0080222662046196089
:10190800BDE8F84000F058BA00F4406001F4005215
:1019180002437FF46EAF54E74FF0A041092D1DD963
:10192800CA6813E74FF0A04C002D3FF445AFA91F3C
:1019380001297FF641AFDCF80C103EE7DFF818C04C
:10194800F2E7DA68D00799D58CE700BF00010050AC
:1019580000030050000700500004005040F221220C
:10196800EA40D207DCD5F0E6E36D43F01003E36507
:10197800236E43F00103236600E70649CEE7064AD3
:101988006CE7E36D43F01003E365236E43F0010356
:1019980023662EE7000400500003005070B582B0A3
:1019A8000022036801929A68D20734D499682C4AB5
:1019B8001142044632D19A6822F0004222F03F02D6
:1019C80042F00102B3F1A04F9A6047D02548264A59
:1019D8002649834218BF0A4693681B0228D4FFF79A
:1019E8003FFD23681A68D607054614D4204E9A6826
:1019F800D00704D49A68324042F001029A60FFF797
:101A08002FFD431B022B236802D91A68D10705D57D
:101A18001A68D207EBD5002002B070BDE36D43F021
:101A28001003E365236E01200343236602B070BDF3
:101A3800104B114A1B689B09A2FB03239B09013326
:101A480003EB43039B000193019B002BC7D0019B31
:101A5800013B0193019B002BF9D1C0E7024ABBE788
:101A68003F000080000100500003005000070050B4
:101A7800C0FFFF7F00000020632D3E0538B50368D6
:101A88009A68950702D59B68002038BD9A68D407E4
:101A98002BD59A6802F00D02012A044608D0E36D9E
:101AA80043F01003E365236E01200343236638BD2A
:101AB8009A6822F0004222F03F02032142F002021B
:101AC8009A601960FFF7CCFC23689B68D907054624
:101AD8000BD5FFF7C5FC401B0228236802D99A687A
:101AE800D207DCD49B68DB07F3D4002038BD00BFE5
:101AF80070B590F8582082B00023012A019340D095
:101B0800012380F8583004460D46FFF7B7FFF0B9B7
:101B1800E26D266822F4885222F0020242F00202A4
:101B2800E265B368184A23F0404305F0804123F08A
:101B38003F030B4343F00043B360B368002B0FDB54
:101B4800E36D23F0030343F00103E36503E0E36D72
:101B580043F01003E365002384F8583002B070BDE9
:101B6800019B01330193019B9342E6D9E36D23F076
:101B78001203002243F01003E36584F85820012083
:101B8800ECE7022002B070BD01DE040038B503683E
:101B9800B3F1A04F044651D03848394A39498342F5
:101BA80018BF0A4695689A6811073DD4DA68DB6C55
:101BB80013F4C07F3AD094F85830012B34D0012365
:101BC80084F858302046FFF7E9FE002838D1E36D45
:101BD800DA0549BF236E206623F008032366E36D08
:101BE800226823F4405323F0010343F48053E36550
:101BF800224B9A4228D003F580639A4224D0E36DA1
:101C080023F48013E36560210023116084F85830C1
:101C1800D3689B0107D4936823F0004323F03F0364
:101C280043F00803936038BD022038BD002AC2DBA8
:101C3800E36D43F020030120E36538BD104AB1E7A6
:101C4800002384F8583038BD15F01F050DD06023E7
:101C5800063D1360012D4FF0000384F85830D7D9A2
:101C6800E36D43F48013E36538BDE36D23F480131B
:101C7800E3656023136084F85850C9E700010050F9
:101C8800000300500007005038B50368B3F1A04FB7
:101C9800044669D04448454A4549834208BF0A4634
:101CA80095689A68100755D4DA68DB6C13F4C07F1E
:101CB80052D094F85830012B4CD0012384F8583076
:101CC8002046FFF76BFE002850D1E36DD90549BFC8
:101CD800236E206623F008032366E26D236822F44E
:101CE800405222F0010242F48052E2652E4A9342A9
:101CF80005F01F054ED002F5806293424FD0194679
:101D0800E26D22F48012E26560221A60002284F8F3
:101D18005820DA68920203D55A6842F480625A6001
:101D2800A269082A5A682DD022F040025A605A68DF
:101D380042F020025A608B4200D0DDB9DA68920185
:101D480007D49A6822F0004222F03F0242F00802CB
:101D58009A6038BD022038BD002AAADBE36D43F043
:101D680020030120E36538BD114A99E7002384F870
:101D7800583038BD063D012DE0D9E36D43F480139A
:101D8800E36538BD22F020025A605A6842F04002EA
:101D98005A60D0E74FF0A041002DB5D1B0E7054912
:101DA800002DB1D1ACE700BF000100500007005082
:101DB8000003005000040050704700BF704700BF88
:101DC800704700BF704700BF2DE9F04190F85830C8
:101DD80082B00022012B0192426900F0998101230F
:101DE80080F85830E2B10B6A012B19D0846E002CB0
:101DF80040F036818A6A002A00F065825D1ECC6A4E
:101E080002F07C032B432343D1E90024856604F0C8
:101E18001F05C2F38464AC401C434466036805E0B4
:101E28004B68092B00F008810A6803689C6827073B
:101E380010D491F82540002C40F0F58091F824400A
:101E4800DD6891F82660240525F4401544EA4654D7
:101E58002C43DC609C6814F0040474D09C68002453
:101E68009D68EE0714D4CF68AE4DD3F8B06007F084
:101E7800180C25FA0CF5C2F3120E154026EA0E0CC2
:101E880045EA0C05C3F8B050A74DAF4200F00D81EC
:101E9800A6490A4229D0B3F1A04F00F03781A44ED9
:101EA800A449A54DB34218BF2946A44D8968AA4242
:101EB80001F0E07620D0A24DAA421DD0A14DAA4241
:101EC80040F04C81CD0110D4B3F1A04F00F0538203
:101ED800974D984A9849AB4218BF0A46936823F031
:101EE800E073334343F080739360002380F85830E5
:101EF800204602B0BDE8F0810A02F6D4B3F1A04F43
:101F080000F03B82904A9342EFD18B498A688F4B0D
:101F180022F0E072324342F400021B688A608C4A65
:101F28009B09A2FB03239B0903EB43039B00183384
:101F38000193019B002BD8D0019B013B0193019B8E
:101F4800002BF9D1D1E79D6815F0080588D18C6A76
:101F5800002C40F09B8091F82540012CDC680CBFD8
:101F680044F0007424F00074DC60002491F83060C0
:101F7800012E1E6900F0658126F002061E618E683A
:101F8800B6F1004F00F049814FEAD25C0CF0040C26
:101F980003F11407C2F304524FF0070E96400EFAED
:101FA80002FE5CF8072022EA0E0216434CF807608E
:101FB8005A6922F000425A61D1F810C0DE68BCF1BB
:101FC800040F00F0E58003F16002C6F3C10652F881
:101FD8002C800F684FEA460E5E4E07F0F84708EA75
:101FE800060637434E6906FA0EF63E4346F00046AB
:101FF80042F82C60D1F810C08F6952F82C6026F096
:1020080080763E4342F82C600E7F0F69012E52F80D
:10201800276008BF4FF0007526F00076354342F878
:1020280027500A681CE7DC6891F8265024F440140D
:1020380044EA4554DC600DE78B6A0A68002B6CD0D3
:10204800CC6A03F07C03550C05F4785523431D43F3
:102058000368414EDC6C34402C43DC644566E5E69D
:102068000A684B68C2F3846503F01F039D40436E02
:10207800013C1D43846603684566002C7FF4D6AE98
:10208800DC6C354E34402543DD64CFE6CC6A002C49
:102098003FF461AF91F82540012C00F06781DC68BE
:1020A80024F00074DC602C4660E7BEF1000F40F0BD
:1020B800D380920E551C05F01F0CBCF1090F40F29D
:1020C80005810CEB4C02AD061E3A012605F0F845D9
:1020D800120506FA0CFC42F0007245EA0C052A4388
:1020E800D70D8D6807F0040703F11406C2F30452F4
:1020F80005FA02FC4FF0070EBD590EFA02F225EA66
:10210800020242EA0C02BA510A68C1E60949CCE661
:102118000224204602B0BDE8F081550C05F478553C
:1021280096E700BFFFFF070000007F40000008801F
:10213800000100500003005000070050000021C3B8
:102148001000C090000052C7000600500000002098
:10215800632D3E0500F0FF0300401004AC4DAA4279
:102168007FF4C3AE49023FF5C0AEAA4A93423FF49A
:10217800BCAEA94902F50072B3F1A04F18BF0A46D8
:10218800936823F0E073334343F480039360ACE631
:102198001A6E0A681D6EC2F31206C5F38465002E16
:1021A80000F0A08092FAA2F626B1B6FA86F6B542F9
:1021B80000F0E5805D6E5E6E03F16005C6F384662F
:1021C80003F1640C92FAA2F727B1B7FA87F7BE4277
:1021D80000F0EA80AE68AE6805F1080CC6F38466C4
:1021E80092FAA2F727B1B7FA87F7BE4200F0EF805C
:1021F800EE68EE680C35C6F3846692FAA2F7002FF3
:102208003FF42EAEB7FA87F7B7427FF429AE2A68B3
:1022180022F000422A600A6822E6D70D07F0040778
:1022280003F11406C2F304524FF0070C0CFA02FC37
:10223800BA5922EA0C02BA515A6942F000425A616C
:10224800BAE626F4FF7CD1E90D673E4346EA0C0660
:1022580046F002061E6192E692FAA2F5002D61D0C0
:10226800B5FA85F5013505F01F05092D5AD992FAF9
:10227800A2F5002D00F0C980B5FA85F50135AD0647
:1022880005F0F84592FAA2F6002E00F0BC80B6FAE6
:1022980086F6013606F01F06012707FA06F63543CB
:1022A80092FAA2F2002A00F0AC80B2FA82F201326D
:1022B80002F01F066FF01D07032212FB06721205BB
:1022C80042F000720BE7013B1D469DE5AE06012278
:1022D80002FA0CF206F0F84616430CEB4C02120513
:1022E8003243FDE6C2F38467BD4248D05D6E5E6E40
:1022F80003F16005C6F3846603F1640CBE4253D053
:10230800AE68AE6805F1080CC6F38466C2F384674C
:10231800B7425CD0EE68EE680C35C6F38466C2F34B
:10232800846771E792FAA2F6002E64D0B6FA86F6B0
:102338000136B60606F0F84692FAA2F5002D58D0F6
:10234800B5FA85F5013505F01F05012707FA05F5EA
:102358002E4392FAA2F2002A50D0B2FA82F5013541
:1023680005F01F0505EB45052A05B9E7C66D46F0DA
:102378002006C665FAE5294AB0E52849C6E51A6E79
:102388001D4622F0004245F8602F5A6E0A685E6EBC
:10239800C2F31207C6F3846603F1640C002F7FF4BE
:1023A80011AFC2F38467A9E7DCF8002022F00042ED
:1023B800CCF80020AA680A68AE68C2F31207C6F310
:1023C800846605F1080C002F7FF40AAF9EE7DCF85D
:1023D800002022F00042CCF80020EA680A68EE6883
:1023E800C2F312070C35C6F38466002F7FF405AFDD
:1023F80095E70225ACE74FF080669DE74FF4401261
:102408006EE7074A6BE6022649E74FF0806539E731
:10241800000084CB0001005000070050000300506A
:10242800000050FE70B490F858300E68012B9DB033
:1024380057D0026800240123B2F1A04F189480F805
:10244800583019940CD04A4DAA4248D0C26D80F831
:10245800584042F02002C26518461DB070BC704753
:10246800444B9B685B070CD59368C26D42F0200211
:102478000123C265002280F8582018461DB070BCA0
:10248800704793685C07F0D4B2F1A04F2ED0394B57
:102498009A422BD0002E59D0374A4C68936823F4BF
:1024A8006043234390F8384043EA44339360304B09
:1024B8009C6803F580739B682343304CA4682343CE
:1024C800DB4303F0010343B194688B6824F4716122
:1024D8001E4321F00F010E4396600023CAE7284BE4
:1024E800BFE7022318461DB070BC7047AEB1254A3D
:1024F8004C68936823F46043234390F8384043EAD8
:10250800443393601B4B4FF0A04292689B6813437F
:10251800DB431C4A03F00103D5E71A4A936823F406
:10252800604393604FF0A041124B89689B68154A3D
:102538000B43DB4303F00103002BCED0916821F459
:10254800716121F00F010023916093E70A4A08495D
:1025580093680B4C23F4604393608968A3680B432A
:10256800064989680B43DB4303F00103E4E700BF36
:102578000004005000010050000700500006005001
:1025880000050050000300500749CA6803024FF6CF
:10259800FF0003F4E0630240134343F0BF6343F4D6
:1025A8000033CB60704700BF00ED00E01C4BDB68D8
:1025B800C3F3022300B5C3F1070EBEF1040F03F104
:1025C800040C28BF4FF0040EBCF1060F1BD9033BC7
:1025D8004FF0FF3C0CFA03FC22EA0C024FF0FF3CE0
:1025E8000CFA0EFC21EA0C019940002841EA02018C
:1025F8000CDB00F16040090100F56140C9B280F8C8
:1026080000135DF804FB00221346E7E7054B00F0D2
:102618000F0009010344C9B219765DF804FB00BF35
:1026280000ED00E0FCEC00E0002808DB044A41096A
:10263800012300F01F0003FA00F042F82100704760
:1026480000E100E00138B0F1807F10D210B44FF003
:10265800E023084C58614FF0F00C84F823C00022A6
:10266800072110469A615DF8044B196170470120F3
:10267800704700BF00ED00E0002800F009812DE957
:10268800F84390F85C30044603F0FF02002B73D047
:102698002268936923F010039361FEF7E1FE054673
:1026A80004E0FEF7DDFE431B0A2B5BD823689A691A
:1026B8001207F6D49A6942F001029A61FEF7D0FE39
:1026C800054604E0FEF7CCFE401B0A284AD82268DB
:1026D8009369DB07F6D59369764943F002038A428A
:1026E800936100F0D080237C012B93690CBF23F009
:1026F800400343F040039361637C012B93690CBF53
:1027080043F4804323F480439361A37C012B9369B2
:102718000CBF23F4805343F4805393619369A068FA
:10272800E16823F4407303439361936923F0A4039E
:1027380093611369012923F01003136121D021B398
:102748000229936900F0B18043F080039361136913
:10275800032943F01003136117D1936943F0200351
:10276800936112E0236E032243F00103236684F889
:102778005C200120BDE8F88380F85D20FEF7BEF9F3
:1027880086E7936943F004039361D4E90613013B98
:1027980001391B0243EA4163216A01390B4361692C
:1027A800013943EA0143B0F5407FD3610ED1D4E942
:1027B8000B03A16A013B01381B01013943EA0023DD
:1027C8000B43616A013943EA0143D360D2F8C03050
:1027D800E06B394903438A42C2F8C0305AD0374BBC
:1027E800374E384F384D394801F580618A4218BF55
:1027F8009946A3F1180318BF1E46A3F1D80318BFC2
:102808001F4601F57D51A3F1D80301F1100118BF4E
:102818009C46A3F140030CBF8C469846A1F14001A9
:1028280003F5387304BF8846A94601F5387118BF07
:102838001946A3F5547308BF0346D2F880002364F1
:1028480020F4F81E606BA56B4EEA0040C2F88000C9
:10285800D2F88000C4F8448020F0706040EA056037
:10286800C2F88000C4E912C7C4E91469002243F819
:10287800042B8B42FBD30123226684F85C30A265CB
:102888000020BDE8F883124B6168C3F800152AE7F9
:1028980001207047DFF848900E4E0F4FDFF844C014
:1028A800DFF8448009490D4BC7E743F020039361E3
:1028B8006BE700BF006400400068004078A6004055
:1028C80000AD004028AC004018AD0040A0AA004070
:1028D80000600040B0A90040D8A8004050A70040C0
:1028E800C8A9004000A80040C0A7004090F85C209C
:1028F800013A012A034605D9026E42F0020201207C
:102908001A667047086830B478B9D1E90242D2062D
:1029180042EA84721C6C4B694D6813430A6943EAA6
:10292800024344F8253030BC7047586C8A684B69BC
:102938004C6843EA8273D1E9035200EBC40C42EAC3
:10294800457240F83420002030BCCCF80430704781
:1029580090F85C20012A034605D0026E42F004027A
:1029680001201A6670470068022283F85C20826999
:10297800002122F00102826108461966704700BFF3
:10298800F0B590F85C30022B86460CD10568D5F876
:10299800C43013F4001C0DD0036E43F400730120FF
:1029A800CEF86030F0BD036E43F008030120CEF886
:1029B8006030F0BDD5F8C4604B68C6F30146002B03
:1029C8003BD18B680F691F430B6847EA8347D1E9FE
:1029D80006034C690343086A2343CC6843EA00634F
:1029E80043EA0443DEF8540006EBC60440F83470AA
:1029F80000EBC400154C4360CB68E35CA3B193784B
:102A0800D7781B0443EA076317783B43577843EAB0
:102A1800072300EB0C070CF1040CBB60CB68E35CEC
:102A28009C4502F10402EAD3012303FA06F6C5F82D
:102A3800CC600020CEF85860F0BD0B690F681F43CA
:102A48008B681F4347F08047C1E700BFCCB400083C
:102A58002DE9F041044690F85C0002280DD1402988
:102A6800256811D0D5F89800070771D1236E43F473
:102A7800807301202366BDE8F081236E43F00803CC
:102A880001202366BDE8F081D5F890000707EDD056
:102A9800D5F89060C6F30060F60148BFD5F880000D
:102AA800D5F8907048BFC0F34020C7F3012707EB63
:102AB8000008A06C08EBC80600EBC600066806F024
:102AC80080465660002E5FD10668C6F38A461660B7
:102AD800066806F000569660066806F0004616611D
:102AE8008688D661B0F806C00CF00F0CC2F80CC08E
:102AF800466806F480165661466806F40016966124
:102B0800C67906F07F061662214E476816F80CE073
:102B18004FEAD77CC2F824C0BEF1000F0FD003F1F2
:102B2800FF3E00F1070C63461CF8015F0EF8015FD9
:102B3800D568063B755D1B1A9D42F4D82568402967
:102B48000CBFC5F89480C5F89C800020BDE8F081D2
:102B5800D5F89860C6F30060F60148BFD5F8800044
:102B6800D5F8987048BFC0F30020C7F3012707EBDA
:102B78000008E06C08EBC80600EBC600066806F023
:102B880080465660002E9FD0066826F060469EE775
:102B9800CCB40008034690F85C000138012805D938
:102BA8001A6E42F0020201201A6670471B6830B4A0
:102BB80011F00705986D3DD0C4073BD4DC6D44F097
:102BC8000104DC65CDB1C50717D5D86D40F002000A
:102BD800D8650C0604D5D3F8DC001043C3F8DC0034
:102BE800C80504D5D3F8E0000243C3F8E0205A6DC5
:102BF8001143002030BC5965704711F0380F01D0DF
:102C08008407E2D411F4E07F31D111F4F05F01D0F0
:102C18000407DAD411F4604F01D0C506D5D411F4F5
:102C2800403F01D08406D0D411F47C0FD1D04506A2
:102C3800CFD5CAE711F0380F01D08407BED511F4FB
:102C4800E07F17D111F4F05F01D00407B6D511F475
:102C5800604F01D0C406B1D511F4403F01D08406BD
:102C6800ACD511F47C0FADD04406ABD4A6E745072C
:102C7800ABD4CAE74407A1D5E4E700BF704700BF5B
:102C8800704700BF704700BF704700BF704700BF64
:102C9800704700BF704700BF704700BF704700BF54
:102CA8002DE9F84F03681A6D596D02EA010A1A6D89
:102CB800596D02EA01091A6D596D1E6D02EA010883
:102CC8005A6D1F6D16405A6DD3F854B01D6D1740DC
:102CD800690604460AF4E05A09F0070908F03808BA
:102CE80006F4710607F4602702D51BF0400F72D175
:102CF800EA0502D51BF4807F5DD1BAF1000F4AD1F5
:102D0800B9F1000F35D1B8F1000F3CD1AB0502D5B0
:102D18001BF4007F74D1280602D51BF0800F77D1F1
:102D2800A90402D51BF4005F5AD12A0402D51BF46A
:102D3800004F5DD16B040AD51BF4804F07D0236880
:102D48004FF480421A65236E43F0800323664FB91F
:102D580026B123681E65236E1E432666236E2BBB91
:102D6800BDE8F88F236839461F652046FFF796FFB0
:102D7800EEE723684946C3F850902046FDF7BAFCB1
:102D8800B8F1000FC2D023684146C3F850802046EE
:102D9800FDF7E2FCBAE723685146C3F850A0204685
:102DA800FFF76CFFB9F1000FADD0E2E72046FFF75F
:102DB80073FFBDE8F88F2368D3F8D810D3F8E02064
:102DC8004FF48070186511402046FFF75DFFBAF197
:102DD800000F95D0DFE740221A65FFF75BFF87E712
:102DE80023684FF400521A652046FFF74FFF9CE70F
:102DF80023684FF400421A652046FFF749FF99E718
:102E080023684FF400721A652046FFF739FF82E7FE
:102E18002368D3F8D410D3F8DC208020186511403B
:102E28002046FFF72FFF7BE72DE9F04F0C6885B0B0
:102E3800002C00F083804FF0000CDFF8D8A1634627
:102E48004FF0010B89460BFA03F515EA04086FD019
:102E5800D9F8047007F00302511E012971D9032A19
:102E680040F0B08002FA0CF2D143056829400A43C9
:102E780017F4403F02605BD0DAF8602042F00102AC
:102E8800CAF86020DAF8602002F001020392039A7F
:102E980023F0030202F1804202F5803203F00305B9
:102EA8009168AD000F2606FA05FEB0F1904F21EAB1
:102EB8000E0119D0514EB04200F08F80504EB042F2
:102EC80000F08F804F4EB04200F081804E4EB042ED
:102ED80000F08D804D4EB0420CBF4FF0050E4FF004
:102EE800060E0EFA05F529439160494A4849926849
:102EF8006FEA0805FE0254BF2A4048EA02028A60C7
:102F0800CA68B902424954BF2A4048EA0202CA6064
:102F180049683F4ABE0354BF294048EA010151604D
:102F28001268F9033A4954BF2A4048EA02020A6083
:102F3800013334FA03F20CF1020C84D105B0BDE878
:102F4800F08F8168D9F80C604FF0030E0EFA0CFE72
:102F580021EA0E0106FA0CF6314381606FEA0E0190
:102F6800D0F804E02EEA050EC7F300159D4045EAA7
:102F78000E054560C56805EA010ED9F8085005FA3E
:102F88000CF545EA0E05022AC56002FA0CF27FF438
:102F98006CAFDD0800EB850501952E6AD9F8105055
:102FA800009603F0070E4FEA8E0E0F2605FA0EF56F
:102FB80006FA0EFE009E26EA0E0E019E45EA0E0552
:102FC800356252E7032101FA0CF1C943D2E74FF009
:102FD800030E0EFA05F5294386E70BFA05F5294392
:102FE80082E74FF0020E0EFA05F529437CE74FF011
:102FF800040E0EFA05F5294376E700BF00040048E1
:1030080000080048000C0048001000480014004860
:1030180000040140001002400AB1816170478162DA
:10302800704700BFF8B503689D6915F0100506469E
:1030380040D0174610220C46DA619A69950604D4E6
:10304800621C4DD19A699706FCD52022DA610025C9
:103058009A69D40545F004054FF001002ED45105B6
:1030680039D54FF48061D96145F00805970504D535
:103078004FF4007245F00205DA619A69910744BF7E
:1030880000229A629A69D20703D49A6942F001022F
:103098009A615A6826490A405A60736C00221D4397
:1030A8002023756486F8402086F8413086F842204F
:1030B8000120F8BD9A69D4052846D0D54FF480710F
:1030C8005005D96145F00105D0D54FF48061D9612B
:1030D80045F00805CAE79405CAD40028CDD1F8BD43
:1030E800FEF7BEF9C01BA042336801D8002CA4D15A
:1030F800586896F8422099690D04D2B20BD541045C
:1031080009D4202A07D05A6842F480425A60FEF750
:10311800A7F93368074699698A068ED4FEF7A0F99D
:10312800C31B192B3368F6D99A69202590E700BF8D
:1031380000E800FE70B5036804460D46164605E033
:10314800FFF770FF50B96A1C0AD123689B699B0777
:10315800324629462046F3D5002070BD012070BDB7
:10316800FEF77EF9801BA842236801D8002DEDD117
:103178009A6912F00202E9D1636C84F84020202198
:103188000B43636484F8411084F84220012070BD29
:103198002DE9F041DDF818801D46044603680F4606
:1031A800164605E0FFF73EFF80B96B1C11D1236876
:1031B8009B6937EA03030CBF01230023B34242464D
:1031C80029462046EED00020BDE8F0810120BDE868
:1031D800F081FEF745F9A0EB0800A842236801D862
:1031E800002DE5D19A6937EA02020CBF01220022BC
:1031F800B242DDD1636C002243F0200320216364D6
:1032080084F8402084F84110012084F84220DBE74C
:1032180003689B699B0629D470B505460C4616467B
:103228000DE0FEF71DF9801BA042296800D81CB9E3
:103238008B6913F020030DD08B699B0608D43246A6
:1032480021462846FFF7EEFE0028EAD0012070BD8F
:10325800002070BD6A6C85F8403020210A436A64FA
:1032680085F8411085F84230012070BD0020704774
:10327800002854D010B590F84130044603F0FF02FE
:10328800002B47D02368242284F8412019686268FB
:1032980021F0010122F0706219601A619A68E168F0
:1032A80022F4004201299A60A26809D042F404423B
:1032B80002299A6007D15A6842F400625A6006E00F
:1032C80042F400429A605A6822F400625A605968CF
:1032D800226941F0007141F4004159606169D86880
:1032E8000A43A16920F4004042EA0122E169D8605A
:1032F800206ADA6001431960196841F00101196018
:1033080000222023626484F84130226384F842203A
:10331800104610BD80F84020FDF7D8FCB2E7012028
:10332800704700BF2DE9F04F994690F8413083B0BF
:10333800202BBDF834A00E9F26D10C9B0446E3B188
:10334800BAF1000F19D090F84030012B1CD04FF083
:10335800010B80F840B00D469046FEF781F85A46BA
:103368000646009019234FF400412046FFF710FF4E
:1033780070B1012003B0BDE8F08F4FF400736364AF
:10338800012003B0BDE8F08F022003B0BDE8F08F44
:103398000C9B6362212384F8413022685D49606395
:1033A800402384F842306064A4F82AA053680B4094
:1033B8005FFA89F143EA0143C5F309052B4343F05A
:1033C800807343F400535360394632462046FFF772
:1033D800B1FE002868D1B9F1010F5AD123685FFA0C
:1033E80088F29A62802100963B4600222046FFF729
:1033F800CFFE002858D1638D9BB2FF2B58D8638D20
:10340800216845484A689BB22385DBB245EA0343F5
:103418000240134343F000734B60DFF8FC80DFF891
:10342800009103E0638D9BB2002B5DD03246394694
:103438002046FFF77FFE00289BD1636A226813F8B5
:10344800011B91626362638D228D013B9BB2638590
:10345800638D013A92B29BB22285002BE2D0002AFA
:10346800E0D100963B4680212046FFF791FE0028D8
:103478007FF47FAF638D9BB2FF2B26D92268FF2391
:103488002385536803EA08032B4343EA090353607F
:10349800C8E723684FEA18229A623946324620461E
:1034A800FFF748FE002899D0002384F8403060E7F1
:1034B80022681949FF23238553680B402B4343F0A7
:1034C800FF7343F480335360A7E7638D21689BB291
:1034D8004A682385DBB245EA034302EA080213433C
:1034E80043F000734B609DE7324639462046FFF7AC
:1034F8008FFE00287FF43DAF2368084D2021D96155
:103508005A682A405A6084F8411084F8400084F8C8
:10351800420036E7009800FC009C00FC00E800FE32
:103528000000FF0190F84120202A23D15FFA82FC95
:1035380090F84020012A03461CD00268242000B5D8
:1035480083F84100106820F001001060106820F432
:103558008050106010680143116011684FF0000E30
:1035680041F00101116083F841C083F840E07046E2
:103578005DF804FB0220704790F84120202A22D1F0
:1035880000B55FFA82FE90F84020012A03461CD05D
:103598000268242083F84100106820F001001060C0
:1035A800106820F4706040EA0121116011684FF042
:1035B800000C41F00101116083F841E083F840C03C
:1035C80060465DF804FB0220704702205DF804FBAA
:1035D800002849D070B590F89132064603F0FF02F2
:1035E800002B3CD00323306886F8913203F034F87E
:1035F80035791DB30021334632464FF0010C0C4695
:1036080011740131C8B28542C2E9084482F811C078
:10361800D47442F8284FF3D800210A4683F8501191
:103628000131CCB2A542C3E9582283F8512183F86D
:103638005321C3F8682103F12803EFD83346002447
:1036480053F8040B93E8060003F010F8B37A3473C8
:103658000122934286F8912208D0204670BD80F856
:10366800902206F0A5FABDE701207047304600F029
:10367800EFFE204670BD00BF90F89032012B0ED0AF
:1036880010B504460123006884F8903202F0DAFF8E
:10369800206803F009FE002084F8900210BD022083
:1036A800704700BF2DE9F84F0446006803F008FE94
:1036B80010F400452BD1430500F1728147041BD457
:1036C80010F4005140F0EA81C60400F18980050534
:1036D80000F13283010600F10483820500F10F84B2
:1036E800C30512D52268B2F8443023F480731B0452
:1036F8001B0CA2F8443008E02268B2F8443023F4E6
:1037080080431B041B0CA2F84430BDE8F88F2068E6
:10371800B0F844301F04F8D5DFF898AADFF898BA53
:1037280010E011F0100100F0C080018811F400656C
:103738008BB240F0E0801E0400F14F81B0F84430B5
:103748001A04E2D5B0F84450A9B215F00F05E8D034
:103758002EB230F826301F041FFA83F963D419F00B
:10376800800FEBD030F826309BB203EA0A0343F40B
:10377800004320F8263005EB850304EBC3034FEA2A
:103788008508DA7C012A00F0948119F4807740F0EA
:10379800C281B0F8502093F810C000F2024106EB45
:1037A800860611FA82F204EBC60532F83C20A96AB3
:1037B800C2F3090291424FEAC60640F2A581891A6E
:1037C800A962002900F0A1811036A1195E6A164489
:1037D8005E62EB6A1344EB6203F002FA2068ADE71D
:1037E8002268B2F8403023F004031B041B0CA2F833
:1037F8004030B2F8403023F008031B041B0CA2F839
:10380800403094F8C832012B00F08783204606F038
:103818003FFA2268B2F8443023F480531B041B0C8F
:10382800A2F8443071E730F8262040F68F73134031
:1038380043F0800305EB850120F8263004EBC10135
:103848004FEA850891F85C31002B76D1B0F85030FA
:1038580000F2064212FA83F391F8502133F83270DD
:10386800C7F30907002F40F0ED8108EB050304EBCF
:10387800C303D3F86C213A44C3F86C21D3F864210C
:103888003A44C3F86421D3F8682122B1D3F86031EF
:10389800BB4240F2BA81A84404EBC808204698F815
:1038A800501106F0BBF9206859E703889BB203EA78
:1038B8000A0343F400430380B0F85030227C10FA26
:1038C80083F040F2024303EBC203626AC35AC3F3B4
:1038D8000903E36213446362204606F0A9F9237BD7
:1038E8004BB3A36A3BBB227B206842F08002A0F85E
:1038F8004C20237322E7B0F8502094F8501140F27E
:10390800064310FA82F203EBC10304F52671D35A79
:10391800B4F85621C3F30903C4F86C3103F0E4FC8E
:103928002268118840F68F730B4043F080031380A0
:10393800204606F06DF9206800E791F85331022B14
:1039480000F0158291F8502130F8223023F4E0433A
:1039580023F070031B041B0C43F4004343F0C00323
:1039680020F8223091F850311AB230F8222012F49F
:10397800804FB0F8502000F0528100F2024717FA49
:1039880082F232F83370C7F30907002F3FF46DAFA6
:10399800B1F85821D1F864113B4603F0A5FC64E75F
:1039A8002268B2F8443023F480631B041B0CA2F88D
:1039B8004430204606F04AF994F89032012B3FF43F
:1039C800A4AE0123206884F890322573294603F0B9
:1039D80065FC84F89052BDE8F88F028840F68F7332
:1039E800134043F080030380B0F8502094F850113E
:1039F80040F2064310FA82F203EBC103D35AC3F331
:103A08000903C4F86C3193B1D4F8641179B1B4F8EE
:103A1800562103F069FCD4F86431D4F86C211344BE
:103A280020462946C4F8643106F0F8F8206803886F
:103A38001D059AB23FF582AE02F44052B2F5405FDE
:103A48003FF47CAEB0F85030D4F860119BB200F26D
:103A580006453E29EA5AC2F30902EA5240F2C481F5
:103A6800EA5A4E09C90608BF06F1FF3692B242EA81
:103A780086226FEA42426FEA524292B2EA520388C1
:103A880023F4804323F070031B041B0C83F440537E
:103A980043F4004343F0800303804FE62268B2F802
:103AA800443023F400531B041B0CA2F84430BDE837
:103AB800F88F6A1C02EB8202002144F832101A7F48
:103AC800CAB119F040095A7C40F00281002A40F03E
:103AD8002A821A7CB0F8503000F2064010FA83F3BC
:103AE80003EBC2031A88C2F309021A801A8892B239
:103AF80042F400421A80454404EBC5052046297C5F
:103B080006F096F8206819E6AF622046614606F08E
:103B18008FF8206812E6197CB0F8503006EB86065C
:103B2800CA0019F0400704EBC60612FA83F300F046
:103B3800918000F2024CB76A33F80C30C3F30903E2
:103B48009F420AB240F25D81FF1AB762002F00F06F
:103B58005A8119F4804F0DD030F8221021F4E04139
:103B680021F070010904090C41F4404141F0800141
:103B780020F8221008EB050E04EBCE0E9EF8341048
:103B8800012940F09380DEF824101944CEF824105F
:103B9800F76A1F44F762DEF83070DEF82060B7423B
:103BA800C0F0B882BF1BCEF83070B3B208EB05077F
:103BB80004EBC7077F7C002F40F0A282B0F850705A
:103BC8001CFA87FC3E2E3CF83270C7F309072CF824
:103BD800327040F2C2827709F6063CF8326008BFBC
:103BE80007F1FF37B6B246EA87266FEA46466FEA1C
:103BF8005646B6B22CF8326008EB050204EBC20256
:103C0800128B03F061FB206850E0282101FB05417D
:103C1800206801F5A87102F0E3FF20689FE500F233
:103C2800064717FA82F232F83370C7F30907002FF4
:103C38003FF41BAEB1F85A21D1F864113B4603F0AA
:103C480053FB12E6B1F85621D1F864113B4603F054
:103C58004BFB0AE600F2064CD6F828E033F80C30A5
:103C6800C3F309039E450AB2C0F01481AEEB030703
:103C7800B762002F00F00F8119F4804F0DD130F892
:103C8800221021F4E04121F070010904090C41F4EB
:103C9800404141F0800120F8221008EB050E04EBAA
:103CA800CE0E9EF83410012900F0ED81454404EB56
:103CB800C5052A7C30F822309BB203EA0B0383F057
:103CC800300343F4004343F0800320F8223035E505
:103CD800002A40F037811A7CB0F8503000F20240D8
:103CE800FCE62268B2F8443023F080031B041B0C66
:103CF800A2F8443094F8C832002B7ED1B2F8403094
:103D08009BB243F00403A2F84030B2F840309BB2B3
:103D180043F008030121A2F8403084F8C812B2F831
:103D28005430C3F38D0303F03C03C4F8CC3220466F
:103D3800BDE8F84F06F092B82268B2F840309BB25E
:103D480043F00803A2F84030B2F8443023F400638B
:103D58001B041B0CA2F84430B2F840309BB243F06D
:103D680004032046A2F8403005F082FFCDE419F4A0
:103D78008042B0F8503000F0F38000F2024212FAAC
:103D880083F391F850C1D1F8682133F83C30C3F37C
:103D980009039A421F46C0F06081D21AC1F868210F
:103DA800002A00F05D8119F0400F0FD00FFA8CFC4B
:103DB80030F82C2022F4E04222F070021204120C97
:103DC80042F4004242F0C00220F82C200BB91F46F2
:103DD8004BE508EB050104EBC101B1F85821D1F816
:103DE800641103F081FA40E5002940F0EF80EA5AB7
:103DF80092B242F40042EA5241E6204605F038FF0A
:103E080083E40023B36208EB050304EBC3035B7C84
:103E1800002B40F0E780B0F850301CFA83FC00F229
:103E280006463CF83230C3F309032CF832303CF82C
:103E380032309BB243F400432CF83230B0F85030A3
:103E480016FA83F333F83200C0F3090023F832007E
:103E580033F8320080B240F4004023F832002046A4
:103E680005F0E6FE19F4804F47D008EB050304EB94
:103E7800C30320681A7C30F8223023F4E04323F08F
:103E880070031B041B0C43F4404343F0800320F8E9
:103E980022300BE7B76208EB050304EBC3035B7C36
:103EA800002B40F0B280B0F8506000F2024313FAE1
:103EB80086F333F83260C6F3090623F8326033F824
:103EC8003260B6B246F4004623F83260B0F850309B
:103ED8001CFA83FC3CF83230C3F309032CF8323067
:103EE8003CF832309BB243F400432CF83230204681
:103EF80005F09EFE19F4804FB7D02068D6E62268F8
:103F0800B2F8443023F400731B041B0C2046A2F8BB
:103F1800443005F097FEFFF7F8BB84F8C812204636
:103F280005F09CFF72E4012A7FF4E5AD1A7CB0F835
:103F3800503000F2064010FA83F303EBC203A3F8F3
:103F48000090D8E5012A7FF4D6AD1A7CB0F850303D
:103F580000F2024010FA83F303EBC2031980CAE5AA
:103F680000F2064717FA83F391F850C1D1F868E1D7
:103F780033F83C30C3F309039E451F4658D3AEEBD4
:103F88000302C1F86821002A54D019F0400F0FD15C
:103F98000FFA8CFC30F82C2022F4E04222F0700258
:103FA8001204120C42F4004242F0C00220F82C2005
:103FB800002B3FF40CAF08EB050104EBC101B1F88D
:103FC8005A21D1F8641103F08FF94EE4CA07EA5A6E
:103FD8004FEA510648BF013692B242EA862292B2AF
:103FE800EA524CE5012B7FF43AAFB0F850301CFA96
:103FF80083FC00262CF83260B0F8503000F20647F7
:1040080017FA83F323F8326029E7012B7FF46FAFA7
:10401800B0F8503000F2024616FA83F3002623F86F
:104028003260B0F850301CFA83FC2CF832605EE73E
:10403800C1F868210FFA8CF130F8212022F480426F
:1040480022F070021204120C82F4005242F4004270
:1040580042F0800220F8212097E70022C1F8682169
:104068000FFA8CF130F8212022F4804222F07002FD
:104078001204120C82F4005242F4004242F0800210
:1040880020F821208FE6DEF824101944CEF82410F9
:10409800F76A1F44F762DEF83070DEF82060B74236
:1040A80046D3BF1BCEF83070B3B208EB050704EB5C
:1040B800C7077F7C9FBBB0F850701CFA87FC3E2E68
:1040C8003CF83270C7F309072CF832704ED97709DB
:1040D800F6063CF8326008BF07F1FF37B6B246EA89
:1040E80087266FEA46466FEA5646B6B22CF8326023
:1040F80008EB050204EBC202528B03F0E5F8FCE67C
:10410800012F7FF479ADB0F850601CFA86FC2CF8CA
:10411800323071E58FB98EF834701E4646E5012FAE
:10412800E6D1B0F850601CFA86FC2CF83230DFE794
:104138005FB98EF834701E46B7E700238EF8343026
:10414800CEF830303E46BBB230E50023CEF83030F2
:104158008EF834303E46BBB2A7E786B93CF83260E9
:10416800B6B246F400462CF8326045E5A6B93CF8EC
:104178003260B6B246F400462CF83260B8E77708E9
:10418800F6073CF8326048BF0137B6B246EA8726E0
:10419800B6B22CF832602FE57708F6073CF83260A3
:1041A80048BF0137B6B246EA8726B6B22CF8326065
:1041B8009EE700BF0F8FFFFFBF8FFFFF90F8902291
:1041C800012A0CD010B504460122006884F8902218
:1041D800217303F063F8002084F8900210BD0220D8
:1041E800704700BF01F0070C11F0800F4FF0280155
:1041F80010B501FB0C0104461FD10CEB8C0E00EB33
:10420800CE0E002001F5A8718EF85101022BCB705B
:1042180004BF00230B7181F800C00A6194F8903242
:10422800012B14D0012384F89032206802F032FA6E
:10423800002384F89032184610BD0CEB8C0004EB78
:10424800C0004FF0010E103180F811E0DEE70220C7
:1042580010BD00BF01F0070303EB830211F0800FCC
:104268004FF0280110B500EBC202044601FB030120
:1042780013D101F5A871002082F851010B7094F850
:104288009032012B11D00123206884F8903202F07B
:10429800C7FB002084F8900210BD10310120507433
:1042A8000B7094F89032012BEDD1022010BD00BFA5
:1042B80001F0070101EB810C10B500EBCC0C0024D8
:1042C800CCF86421282202FB01028CF85011006806
:1042D8008CF85141CCE95A3402F5A87102F080FCFF
:1042E800204610BD01F0070101EB810100EBC1017F
:1042F800D1F86C01704700BF10B501F0070E0EEB46
:104308008E0100EBC10C6146CCF82830CCF8303077
:10431800002401230068CCF8242010318CF83430B4
:10432800CCF82C408CF811308CF810E002F058FCD6
:10433800204610BD027901F007039A4232D30A06DB
:1043480010B504461BD401EB8102282000FB014173
:1043580004EBC20201F5A871002082F85101012284
:104368008A700B7094F89032934219D0206884F8C0
:10437800902202F01BFF002084F8900210BD03EB8E
:104388008302282101FB030100EBC2021031012046
:10439800507401228A700B7094F890329342E5D1E0
:1043A800022010BD0120704738B5027901F00F03D3
:1043B8009A422FD301F0070303EB830211F0800F19
:1043C8004FF02801044600EBC20201FB030115D19E
:1043D80001F5A8710020002582F851018D700B703D
:1043E80094F89032012B13D00123206884F890327E
:1043F80002F004FF84F89052284638BD103101209D
:10440800002550748D700B7094F89032012BEBD10D
:10441800022038BD012038BD11F0800F0BD001F00B
:10442800070101EB810100EBC10010305AB902739A
:10443800C3800020704701EB810100EBC10000F54B
:10444800A870002AF3D0012202738360002070470D
:104458000268002110B480F8C812B2F85430012460
:104468009BB22343C0F8D042A2F85430B2F854307B
:104478005DF8044B9BB243F002030846A2F854309F
:10448800704700BF10B43B4A70B9136803F4C063A7
:10449800B3F5806FD2F8803023D023F480735DF8B1
:1044A800044BC2F880307047B0F5007F09D013681C
:1044B8005DF8044B23F4C06343F480630020136069
:1044C8007047136803F4C063B3F5806FD2F8803087
:1044D8002FD043F4807300205DF8044BC2F880307D
:1044E800704723F48073C2F880301168224C234847
:1044F80021F4C06141F4007111602368322101FB8D
:1045080003F35169A0FB03039B0C480503F1010366
:1045180006D500E023B15169490503F1FF33F9D409
:10452800144B5B695C0554BF002003205DF8044B05
:10453800704743F48073C2F8803011680E4C0F48FE
:1045480021F4C06141F4007111602368322101FB3C
:1045580003F35169A0FB03039B0C480503F1010316
:10456800DED501E0002BDBD05169490503F1FF33AB
:10457800D6D5F7E7007000400000002083DE1B431B
:10458800024A936843F48043936070470070004088
:10459800002800F000822DE9F0410368D90782B0B5
:1045A80004462DD5AF498A68C96802F00C020C2A66
:1045B80000F00681082A00F008816368B3F5803F9F
:1045C80000F07781B3F5A02F00F0D881A54D2A68B7
:1045D80022F480322A602A6822F480222A60002B82
:1045E80040F06C81FCF73CFF064605E0FCF738FF1D
:1045F800801B642800F27F812B689F03F6D4236810
:104608009E0728D5974A9368D26803F00C030C2BB1
:1046180000F03081042B00F03281E368914D002BCB
:1046280000F05A812B6843F480732B60FCF718FF65
:10463800064605E0FCF714FF801B022800F25B81A8
:104648002B685805F6D56B68226923F0FE4343EAC8
:1046580002636B6023681A0719D56369814D002BC3
:1046680000F09980D5F8943043F00103C5F89430F0
:10467800FCF7F6FE064605E0FCF7F2FE801B022872
:1046880000F23981D5F894309B07F5D523685E0789
:1046980041D5744B9A6DD50000F131819A6D42F085
:1046A80080529A659B6D03F080530193019B01250D
:1046B8006D4E3368D80540F15081A368012B00F096
:1046C8002081052B00F06981664ED6F8902022F0F3
:1046D8000102C6F89020D6F8902022F00402C6F80D
:1046E8009020002B40F01481FCF7BAFE41F2883884
:1046F800074605E0FCF7B4FEC01B404500F2FB800E
:10470800D6F890309B07F5D425B1564A936D23F01F
:104718008053936523689D0618D5A369514D002BD6
:1047280000F00781D5F8983043F00103C5F89830B8
:10473800FCF796FE064605E0FCF792FE801B022871
:1047480000F2D980D5F898309807F5D5E0690028A7
:1047580000F08380434DAB6803F00C030C2B00F092
:104768002A812B68022823F080732B603AD0FCF74B
:1047780077FE044605E0FCF773FE001B022800F2F2
:10478800BA802B6813F00073F5D1E968374A0A40FC
:104798001846EA6062E0D5F8943023F00103C5F8C2
:1047A8009430FCF75DFE064605E0FCF759FE801BD9
:1047B800022800F2A080D5F894309F07F5D465E769
:1047C80001F0030103297FF4F8AE264A1268920328
:1047D8007FF516AF6268002A7FF412AF012002B09D
:1047E800BDE8F081FCF73CFE064604E0FCF738FE25
:1047F800801B02287FD82B689A01F7D4E9681C4BE4
:10480800226A606A174E0B401343D4E90A1243EA3E
:10481800012343EAC263D4E90C120138490843EA88
:1048280000130139520843EA4153013A43EA42630B
:10483800EB602B6843F080732B60EB6843F0807368
:10484800EB60FCF70DFE044604E0FCF709FE001BD4
:10485800022850D833689B01F7D5002002B0BDE884
:10486800F08100BF0010024000700040FCFFEEFE27
:104878000C809F0102F00302022A7FF4CEAE684B3F
:104888001B685D0502D5E368002BA7D0644A206940
:104898005368644923F0FE4343EA006353600868A1
:1048A800FCF79CFD002899D123681A077FF5EFAE25
:1048B800D3E65B4A136843F480331360FCF7D0FDFA
:1048C800574E054604E0FCF7CBFD401B642812D880
:1048D80033689B03F7D592E62B6823F480732B602B
:1048E800FCF7BEFD06462B685905DDD5FCF7B8FD7B
:1048F800801B0228F7D9032002B0BDE8F08100250B
:10490800D6E6474AD2F8903043F00103C2F8903017
:10491800FCF7A6FD424F064641F2883804E0FCF752
:104928009FFD801B4045E6D8D7F890309A07F6D50A
:10493800EAE6D5F8983023F00103C5F89830FCF77B
:104948008FFD064604E0FCF78BFD801B0228D2D8B9
:10495800D5F898309907F6D4F8E6336843F48073AD
:104968003360FCF77DFD07463368D9053FF5A5AEF2
:10497800FCF776FDC01B0228F6D9BCE703F180439B
:10498800A3F53C331A6842F480221A601A6842F48C
:1049980080321A6092E701207047214BD3F89020AB
:1049A80042F00402C3F89020D3F8902042F00102AC
:1049B800C3F89020ACE701283FF450AFEB68226AB7
:1049C80003F0030191427FF409AF616A03F0F0023A
:1049D8000139B2EB011F7FF401AFA16A03F4FE4273
:1049E800B2EB012F7FF4FAAEE16A03F07842B2EB42
:1049F800C16F7FF4F3AE226B520803F4C001013A91
:104A0800B1EB425F7FF4EAAE626B520803F0C06319
:104A1800013AB3EB426F14BF012000201EE700BF2C
:104A28000010024008000020184B9A6802F00C029F
:104A3800042A27D09A6802F00C02082A24D09A681F
:104A480002F00C020C2A01D000207047D968D868FF
:104A580001F003010329C0F3031000F10102D86833
:104A68000CBF0B4B0B4BB3FBF2F2084BDB68C3F3E9
:104A78004163C0F30620013302FB00F05B00B0FB8A
:104A8800F3F0704703487047014870470010024030
:104A980000127A000024F400002800F0EE807F4A1B
:104AA8002DE9F843136803F00F038B420D460446C3
:104AB8000CD2136823F00F030B431360136803F041
:104AC8000F038B4202D00120BDE8F8832368DF077B
:104AD80063D56268032A00F09A80714B022A1B682A
:104AE80000F091805B05EED5FFF79EFF6D4B984275
:104AF80000F2C58062684FF00009694EB36823F080
:104B080003031A43B260FCF7ABFC41F2883807464E
:104B180004E0FCF7A5FCC01B404571D8B368626887
:104B280003F00C03B3EB820FF3D123689F0736D44D
:104B3800B9F1800F03D1B36823F0F003B360574E87
:104B4800336803F00F03AB4246D823685A0706D5EB
:104B58005349E0688A6822F4E06202438A601B07CE
:104B680007D54F4A2169936823F4605343EAC10388
:104B78009360FFF759FF4A4A4B4C92684B49C2F37E
:104B880003120346A25C4A4802F01F02D3400B609E
:104B98000068BDE8F843FCF721BC9E07CFD558074D
:104BA80004D53F498A6842F4E0628A60190706D54D
:104BB8003B4A936823F47C5343F4E0639360384A98
:104BC800A1689368354E23F0F0030B439360336874
:104BD80003F00F03AB42B8D9336823F00F032B431C
:104BE8003360FCF73DFC41F288380746336803F030
:104BF8000F03AB42A9D0FCF733FCC01B4045F5D9E5
:104C08000320BDE8F8839A033FF56EAF5BE72449BC
:104C1800086880017FF557AFCE68C868C968214F1A
:104C280006F00306032EC0F303100CBF214E224EDC
:104C38000130B6FBF0F01A4EC1F3062100FB01F17A
:104C4800F068C0F3416001304000B1FBF0F1B942B7
:104C580020D9B16811F0F00F05D013F002093FF424
:104C68004CAFA368B3B90E498B6823F0F00343F047
:104C780080038B604FF080093FE701207047084AA6
:104C880093684FF0800923F0F00343EA0903936027
:104C9800626832E74FF000092FE700BF00200240AA
:104CA8000010024000B4C404BCB400080000002096
:104CB8000800002000127A000024F400024A136859
:104CC80043F400231360704700100240704700BF90
:104CD80010B5054CE369DB0500D410BDFFF7F6FFFE
:104CE8004FF48073236210BD001002402DE9F0419B
:104CF8000368044613F4002082B056D0AC4B9A6D7A
:104D0800D50040F13E810027AA4D2B6843F48073FB
:104D18002B60FCF7A5FB064605E0FCF7A1FB831B0F
:104D2800022B00F239812B68D805F6D5A04DD5F8AD
:104D3800903013F4407327D0226D9A4225D0D5F8CD
:104D48009010D5F8903043F48033C5F89030D5F8FA
:104D5800903023F48033C5F8903021F44073C907AC
:104D6800C5F8903040F14881FCF77AFB41F2883869
:104D7800064605E0FCF774FB801B404500F20C81F9
:104D8800D5F890309B07F5D5236D8949D1F8902047
:104D980022F440721343C1F89030002027B1844AAE
:104DA800936D23F0805393652368DD0708D5804908
:104DB8006568D1F8882022F003022A43C1F88820C8
:104DC800990708D57A49A568D1F8882022F00C02FD
:104DD8002A43C1F888205A0708D57549E568D1F8EB
:104DE800882022F030022A43C1F888201F0708D5FE
:104DF8006F492569D1F8882022F0C0022A43C1F8FA
:104E08008820DE0608D56A496569D1F8882022F429
:104E180040722A43C1F888209D0608D56449A569CF
:104E2800D1F8882022F440622A43C1F88820590624
:104E380008D55F49E569D1F8882022F440522A4311
:104E4800C1F888201A0608D55949256AD1F888205A
:104E580022F440422A43C1F88820DF0508D5544986
:104E6800656AD1F8882022F440322A43C1F88820A4
:104E78009E0308D54E49A56AD1F89C2022F003026A
:104E88002A43C1F89C209D0508D54949E56AD1F80F
:104E9800882022F440222A43C1F8882059050BD5DE
:104EA8004349256BD1F8882022F440122A43B5F5EE
:104EB800801FC1F8882071D01A050BD53C49656B55
:104EC800D1F8882022F440022A43B5F5800FC1F8B2
:104ED800882068D0DF040BD53549A56BD1F8882028
:104EE80022F040722A43B5F1807FC1F8882063D050
:104EF8009E040BD52E49E56BD1F8882022F040623C
:104F08002A43B5F1006FC1F888205AD05D040BD54B
:104F18002749256CD1F8882022F040622A43B5F150
:104F2800006FC1F8882051D019040BD52049656C51
:104F3800D1F8882022F040522A43B5F1805FC1F8A9
:104F4800882048D0DA030BD51949A56CD1F88820F8
:104F580022F040422A43B5F1804FC1F888203FD063
:104F68005B030BD5124AE16CD2F89C3023F4401352
:104F78000B43B1F5001FC2F89C3036D002B0BDE833
:104F8800F0819A6D42F080529A659B6D03F08053D0
:104F98000193019B0127B7E60320FFE6CA6842F4A4
:104FA8008012CA6088E7CA6842F48012CA6091E732
:104FB8000010024000700040CA6842F48012CA60C3
:104FC80096E7CA6842F48012CA609FE7CA6842F44A
:104FD8008012CA60A8E7CA6842F48032CA60B1E7A2
:104FE800CA6842F48032CA60BAE7D36843F48013CF
:104FF800D36002B0BDE8F0811346C6E62DE9F04360
:1050080083B09846002315468DF8033006460C46B3
:10501800FCF726FAA844A8EB0007FCF721FA304B66
:10502800D6F800901B6803EB8303C3EBC3031B0D87
:1050380007FB03F3804601934A4601E06B1C0ED13F
:10504800936823401DD0B4F5C06FF7D199F80C30A0
:10505800DBB28DF803309DF803306B1CF0D0FCF701
:10506800FFF9A0EB0800B8420FD2019B3268002B71
:10507800019B03F1FF330193936808BF0027234086
:10508800E1D1184603B0BDE8F083D6E900315A688B
:10509800B1F5827F22F0E0025A6014D0B26AB2F50C
:1050A800005F07D00122002386F85D2086F85C3077
:1050B8000320E7E71A6822F400521A601A6842F4DB
:1050C80000521A60EEE7B268B2F5004F02D0B2F5AE
:1050D800806FE3D11A6822F040021A60DEE700BF51
:1050E80000000020F0B583B00C4615460646FCF7D4
:1050F800B7F925442D1AFCF7B3F9254B1B68C3F300
:10510800CB3305FB03F307460193326801E0631CC8
:1051180006D1936813F08003F9D1184603B0F0BDA7
:10512800FCF79EF9C01BA84208D2019B002B019BEB
:1051380003F1FF3308BF00250193E6E7D6E9003104
:105148005A68B1F5827F22F0E0025A6014D0B26A40
:10515800B2F5005F07D00122002386F85D2086F8AB
:105168005C300320DAE71A6822F400521A601A68E1
:1051780042F400521A60EEE7B268B2F5004F02D06E
:10518800B2F5806FE3D11A6822F040021A60DEE7B8
:105198000000002070B513460D4616460A464FF427
:1051A800C0510446FFF72AFF70B932462946204607
:1051B800FFF798FF40B933462A464FF4C0612046AE
:1051C800FFF71CFF00B970BD236E43F020030320D6
:1051D800236670BD002877D02DE9F041466A044661
:1051E800002E58D00023C0E9043394F85D30002223
:1051F800A26203F0FF02002B59D02168E268022363
:1052080084F85D300868B2F5E06F20F0400008606F
:1052180047D9B2F5706F59D1A36A002003F400553D
:10522800A368276A02F4706E626803F4044302F408
:1052380082721A43236903F002031A43636903F075
:1052480001031A43636B03F0080306F0100C43EAEA
:105258000E0EA669E36903F0380806F400731343D9
:1052680007F0800743EA08033B432B430B60330CEA
:1052780003F004034EEA030343EA0C0303434B60C1
:10528800CB69002023F400630122CB61206684F8F7
:105298005D20BDE8F0814368B3F5827FA5D0C66183
:1052A800A3E70BD04FF480500025A562B8E784F837
:1052B8005C202046FBF71EFE666A9EE7A36A4FF451
:1052C800805003F40055ABE7012070470020EBE75E
:1052D8002DE9F843044690F85C00089D012800F089
:1052E800A5801F46012384F85C3089469046FCF768
:1052F800B7F8064694F85D0063680128C1B20DD07E
:10530800B3F5827F05D00220002384F85C30BDE825
:10531800F883A268002AF6D10429F4D1B9F1000F64
:1053280000F08280B8F1000F7ED0002F7CD094F876
:105338005D20E168C4F84080042A1CBF052284F877
:105348005D2000222266C4E913222268A4F8467070
:10535800B1F5E06FE7875168A4F84470C4F8389055
:10536800A78766D8012F00F0F58021F4805151609D
:105378001168490600F1B080116841F040011160E0
:10538800002B00F0AC80012F00F0A9800127E38FEB
:105398009BB223B9B4F846309BB2002B38D02268B0
:1053A8009368990705D5E38F9BB213B1002F40F09E
:1053B800B680936813F001031ED0B4F8461089B282
:1053C800D1B1B4F8461089B2012940F29A80216C13
:1053D800D06821F8020B2164B4F84610023989B26A
:1053E800A4F84610B4F8461089B201291F4603D81C
:1053F800536843F480535360FCF732F8801BA8428B
:105408007BD36B1CC3D0012384F85D3003207BE77A
:10541800324629462046FFF7BDFE10B120232366F9
:105428000120236E002B53D001206DE70220BDE838
:10543800F88321F4805151601168480603D411683B
:1054480041F040011160002B3FD1494631F8023B41
:10545800D360E38FA163013B9BB2E3870127E38F0E
:105468009BB223B9B4F846309BB2002BD0D0226847
:1054780093689B070DD5E38F9BB253B14FB1A36BD4
:1054880033F8021BD160A363E38F013B9BB2002773
:10549800E387936813F001030FD0B4F8461089B27C
:1054A80059B11F46236CD26823F8022B2364B4F841
:1054B8004630013B9BB2A4F84630FBF7D1FF801B76
:1054C800A842CCD3681CCAD09DE7012FC6D1BCE73F
:1054D800012384F85D3017E7002B7FF457AFE38F83
:1054E8009BB2012B3ED9494631F8023BD360E38F8A
:1054F800A163023B9BB2E38748E7002D7FF447AFE7
:1055080081E71F46236C127B1A70236C01332364D6
:10551800B4F84630013B9BB2A4F846306CE7E38F01
:105528009BB2012BA36B09D933F8021BD160A3638B
:10553800E38F023B9BB20027E3873AE71B7813739C
:10554800E38FA26B013B01329BB2A263E38722681F
:1055580000272EE741F480515160116849067FF514
:105568000BAFBCE799F800301373E38FA26B013BD4
:1055780001329BB2A263E38708E700BF036A026AAD
:1055880022F00102026270B4446882690D6822F454
:10559800803222F073022A438D6823F002032B43E2
:1055A800154DA84213D005F50065A8420FD005F5A2
:1055B8004065A8420BD005F58065A84207D005F5DF
:1055C8008065A84203D005F50065A8420DD1CD68D5
:1055D80023F008032B43D1E9056524F4407446EA17
:1055E800050C23F004034CEA040449684460826112
:1055F80070BC416303627047002C0140036A026A71
:1056080022F48072026270B44468C2690D6822F4A0
:10561800803222F073022A438D6823F4007343EA30
:1056280005231C4DA84217D005F50065A84213D0E4
:1056380005F5E055A84225D0174DA84213D005F529
:105648008065A8420FD005F58065A8420BD005F506
:105658000065A8420FD106E0CD6823F4006343EA51
:10566800052323F48063D1E9056524F4405446EA10
:10567800050C44EA0C1449684460C26170BCC163FB
:1056880003627047CD6823F4006343EA052323F4DB
:105698008063D1E7002C014000400140036A026AA0
:1056A80022F48052026270B44468C2690D6822F024
:1056B800807222F4E64242EA05228D6823F4005300
:1056C80043EA05331C4DA84217D005F50065A842EA
:1056D80013D005F5E055A84225D0184DA84213D09F
:1056E80005F58065A8420FD005F58065A8420BD066
:1056F80005F50065A8420FD106E0CD6823F4004304
:1057080043EA053323F48043D1E9056524F4404492
:1057180046EA050C44EA8C1449684460C26170BCCE
:10572800016403627047CD6823F4004343EA0533FC
:1057380023F48043D1E700BF002C01400040014022
:10574800036A026A22F48032026230B44468026D4D
:105758000D6822F4803222F070022A438D6823F407
:10576800003343EA0543114DA84213D005F50065FF
:10577800A8420FD005F54065A8420BD005F5806515
:10578800A84207D005F58065A84203D005F5006555
:10579800A84204D14D6924F4803444EA05244968B8
:1057A8004460026530BC816403627047002C01408C
:1057B800036A026A22F48012026230B44468026DFD
:1057C8000D6822F0807222F4E04242EA05228D68D8
:1057D80023F4001343EA0553114DA84213D005F5ED
:1057E8000065A8420FD005F54065A8420BD005F525
:1057F8008065A84207D005F58065A84203D005F565
:105808000065A84204D14D6924F4802444EA852423
:1058180049684460026530BCC1640362704700BFD8
:10582800002C014090F83D30012B32D103681B4910
:10583800022280F83D20DA688B4242F00102DA60E9
:1058480019D0B3F1804F16D0154A934213D002F500
:10585800806293420FD002F5806293420BD002F52A
:105868009432934207D002F54062934203D002F586
:105878008052934207D199680A4A0A40062A0AD0F8
:10588800B2F5803F07D01A6842F0010200201A6082
:105898007047012070470020704700BF002C01406E
:1058A8000004004007000100002956D190F83E305E
:1058B800012B5CD1022380F83E3003680122186A6C
:1058C80001F01F0102FA01F120EA01001862186ACA
:1058D800414A0143934219625DD002F50062934246
:1058E8000FD002F5406293420BD002F580629342DA
:1058F80007D002F58062934203D002F5006293421A
:1059080003D15A6C42F400425A64B3F1804F16D066
:10591800324A934213D002F5806293420FD002F5C7
:10592800806293420BD002F59432934207D002F57D
:105938004062934203D002F58052934207D199689E
:10594800274A0A40062A14D0B2F5803F11D01A68B7
:1059580042F0010200201A607047042920D008296B
:1059680026D00C2907D190F84130012B28D00120EE
:10597800704700207047102926D090F84330012B3B
:10598800F5D1082918D00C291AD0102920D00223C3
:1059980080F8433091E75A6C42F400425A64CEE7EB
:1059A80090F83F30012BE2D1022380F83F3084E7A2
:1059B80090F84030012BDAD1022380F840307CE7A0
:1059C800022380F8413078E790F84230012BCED19D
:1059D800022380F8423070E7002C014000040040A8
:1059E80007000100036810B41A6A01F01F044FF0A1
:1059F800010C0CFA04FC22EA0C021A622E4A1C6AF8
:105A08001C62934225D002F50062934221D002F530
:105A1800406293421DD002F58062934219D002F58C
:105A28008062934215D002F50062934211D01C6A3D
:105A380041F21112144204D11C6A44F24442144245
:105A480026D00123A1B980F83E3000205DF8044B30
:105A580070471C6A41F211121442E8D11C6A44F2E0
:105A680044421442E3D15A6C22F400425A64DEE7FD
:105A7800042912D0082919D00C2914D010290CBFD8
:105A880080F8423080F843305DF8044B00207047BE
:105A98001A6822F001021A60D3E780F83F305DF8F7
:105AA800044B0020704780F84130CEE780F8403042
:105AB8005DF8044B00207047002C0140FFF7F4BE4E
:105AC800FFF790BF00B590F83E3090F83F2090F86F
