:020000040800F2
:1000000000000220712700087D22000885220008D8
:10001000892200088D2200089122000800000000BB
:100020000000000000000000000000009522000811
:1000300099220008000000009D220008A12200086B
:10004000C1270008C1270008C1270008C1270008F0
:10005000C1270008C1270008C1270008C1270008E0
:10006000C1270008C1270008C1270008C1270008D0
:10007000C1270008C1270008C1270008C1270008C0
:10008000C1270008C1270008A5220008C1270008D1
:10009000C1220008C1270008C1270008C1270008A5
:1000A000C1270008CD220008C1270008C127000889
:1000B000E9220008C1270008C1270008C12700085D
:1000C000C1270008C1270008C1270008C127000870
:1000D000C1270008C1270008C1270008C127000860
:1000E000C1270008C1270008C1270008C127000850
:1000F000FD220008C1270008C1270008C127000809
:10010000C1270008C1270008C1270008C12700082F
:10011000C1270008C1270008C1270008C12700081F
:10012000C1270008C1270008C1270008C12700080F
:10013000C1270008C1270008C1270008C1270008FF
:10014000C1270008C1270008C1270008C1270008EF
:10015000C1270008C1270008C1270008C1270008DF
:10016000C1270008C1270008C1270008C1270008CF
:10017000C1270008C1270008C1270008C1270008BF
:10018000C1270008C1270008C1270008C1270008AF
:10019000C12700080000000009230008C12700084B
:1001A000C1270008C1270008C1270008C12700088F
:1001B000C1270008C1270008C1270008C12700087F
:1001C000C1270008C1270008C1270008C12700086F
:0801D000C1270008C127000847
:1001E00010B5054C237833B9044B13B10448AFF371
:1001F00000800123237010BDA40B0020000000002C
:100200004CCD000808B5034B1BB103490348AFF3BD
:10021000008008BD00000000A80B00204CCD0008A5
:1002200081F0004102E000BF83F0004330B54FEAA7
:1002300041044FEA430594EA050F08BF90EA020F14
:100240001FBF54EA000C55EA020C7FEA645C7FEAA7
:10025000655C00F0E2804FEA5454D4EB5555B8BFCA
:100260006D420CDD2C4480EA020281EA030382EA3B
:10027000000083EA010180EA020281EA0303362DCD
:1002800088BF30BD11F0004F4FEA01314FF4801CA0
:100290004CEA113102D0404261EB410113F0004FB2
:1002A0004FEA03334CEA133302D0524263EB430369
:1002B00094EA050F00F0A780A4F10104D5F1200E07
:1002C0000DDB02FA0EFC22FA05F2801841F1000162
:1002D00003FA0EF2801843FA05F359410EE0A5F136
:1002E00020050EF1200E012A03FA0EFC28BF4CF067
:1002F000020C43FA05F3C01851EBE37101F000451D
:1003000007D54FF0000EDCF1000C7EEB00006EEB29
:100310000101B1F5801F1BD3B1F5001F0CD34908B3
:100320005FEA30004FEA3C0C04F101044FEA44520A
:1003300012F5800F80F09A80BCF1004F08BF5FEA91
:10034000500C50F1000041EB045141EA050130BD71
:100350005FEA4C0C404141EB0101013C28BFB1F583
:10036000801FE9D291F0000F04BF01460020B1FACE
:1003700081F308BF2033A3F10B03B3F120020CDAA1
:100380000C3208DD02F1140CC2F10C0201FA0CF07F
:1003900021FA02F10CE002F11402D8BFC2F1200CE4
:1003A00001FA02F120FA0CFCDCBF41EA0C0190409A
:1003B000E41AA2BF01EB0451294330BD6FEA0404E3
:1003C0001F3C1CDA0C340EDC04F11404C4F12002CE
:1003D00020FA04F001FA02F340EA030021FA04F3E0
:1003E00045EA030130BDC4F10C04C4F1200220FA37
:1003F00002F001FA04F340EA0300294630BD21FA75
:1004000004F0294630BD94F0000F83F4801306BF3A
:1004100081F480110134013D4EE77FEA645C18BF2E
:100420007FEA655C29D094EA050F08BF90EA020FC5
:1004300005D054EA000C04BF1946104630BD91EABD
:10044000030F1EBF0021002030BD5FEA545C05D1C0
:100450004000494128BF41F0004130BD14F58004FF
:100460003CBF01F5801130BD01F0004545F0FE4173
:1004700041F470014FF0000030BD7FEA645C1ABFA8
:10048000194610467FEA655C1CBF0B46024650EADF
:10049000013406BF52EA033591EA030F41F400210B
:1004A00030BD00BF90F0000F04BF0021704730B591
:1004B0004FF4806404F132044FF000054FF0000166
:1004C00050E700BF90F0000F04BF0021704730B527
:1004D0004FF4806404F1320410F0004548BF4042FC
:1004E0004FF000013EE700BF42004FEAE2014FEA51
:1004F00031014FEA02701FBF12F07F4393F07F4F2C
:1005000081F06051704732F07F4208BF704793F02E
:100510007F4F04BF41F40021704730B54FF4607441
:1005200001F0004521F000411CE700BF50EA010244
:1005300008BF704730B54FF000050AE050EA0102ED
:1005400008BF704730B511F0004502D5404261EB5D
:1005500041014FF4806404F132045FEA915C3FF49E
:10056000D8AE4FF003025FEADC0C18BF03325FEA3B
:10057000DC0C18BF033202EBDC02C2F1200300FAEC
:1005800003FC20FA02F001FA03FE40EA0E0021FA11
:1005900002F11444BDE600BF4FEA4102B2F1E0436C
:1005A00024BFB3F5001CDCF1FE5C0DD901F0004C5A
:1005B0004FEAC0024CEA5070B2F1004F40EB8300AA
:1005C00008BF20F00100704711F0804F21D113F1D6
:1005D0003872BCBF01F00040704741F480114FEA0F
:1005E0005252C2F11802C2F1200C10FA0CF320FA98
:1005F00002F018BF40F001004FEAC1234FEAD323B5
:1006000003FA0CFC40EA0C0023FA02F34FEA43031E
:10061000CCE77FEA625307D150EA01331EBF4FF0A7
:10062000FE4040F44000704701F0004040F0FE40C2
:1006300040F40000704700BF03685A004CBF43F00D
:10064000004323F000431844704700BF2DE9F843EE
:1006500029B34F1E044615463E464FF0000808EBEE
:10066000060101EBD171491004EBC1094846FFF7BF
:10067000E3FF0346C80008308F42204409D0AB4254
:1006800009D8FFF7D9FF0138A8420AD201F10108C1
:10069000E5E7AB4205D9884501D04E1EDFE74FF0B4
:1006A00000094846BDE8F883012807D0022807D092
:1006B000044B00280CBF18460020704702487047C2
:1006C00002487047810D0008850D0008890D00085B
:1006D00030B5234B83B004468D1E3BB301A9284699
:1006E000AFF30080E8B101992A46FFF7AFFF01465A
:1006F000B8B1FFF7A1FF4B68A064012B2CD0002BF1
:1007000001F1040024DBFFF797FF0023C4E9130382
:100710000368002B11DBFFF78FFF2061002003B07F
:1007200030BD00230920236103B030BD0D4B0E49BD
:10073000C91AC91018460191D6E7C3F30360FFF741
:10074000B3FF0028206114BF0020092003B030BD92
:100750000123C4E91303DBE7002323610520DEE75F
:1007600000000000B8EC0008A0EE00080368DA07FB
:1007700010B5044606D49B0700F1480009D500F0E7
:100780005BFC2368590709D51A070ED5DB0613D57C
:1007900010BD00F049FC23685907F5D404F1D000DE
:1007A00000F052FC23681A07F0D404F5A87000F09A
:1007B00053FC2368DB06EBD404F5E870BDE8104079
:1007C00000F08EBC092070470346006800B1184451
:1007D000704700BF704700BF70B504460E46316CCD
:1007E0002046FFF775FF054688B9326C62612369C0
:1007F00032462146012098470828F0D0072806D124
:100800002846316CFFF7E6FF301D00F001FC0BF0CD
:10081000E1FF00BF2DE9F0470D1DD0F80C80D0F8A6
:100820001890074614460FCDADF5727D0DF10C0CF6
:10083000ACE80F000FCDACE80F000FCDACE80F0017
:1008400095E80F0002AE4FF0000E8CE80F00C6F8DE
:1008500000E020E0336C7B614FF4F07231467AA8FF
:1008600000F054FE3B697AAA394650469847889B67
:1008700073642146CDE9006905463B463A460120AE
:10088000C0470446E0B94FF4F0727AA9304600F050
:100890003DFE082D1AD1316C3846FFF719FF093497
:1008A0005FFA84FA05460028D4D0B36B73643A46E5
:1008B000CDE900693B464AF010010120C04700B174
:1008C000092528460DF5727DBDE8F087072DF7D183
:1008D0002046316CFFF77EFF03A800F099FB00BFB4
:1008E000406C7047F0B5CB6B0B6401F1040C0E4605
:1008F0000546BCE80F00F9B001AC0FC4BCE80F001E
:100900000FC4BCE80F000FC49CE80F004FF0FF3786
:1009100084E80F00009706E02B696A46294698474D
:100920000828044608D110992846FFF7D1FE002870
:10093000F2D0092079B0F0BD6846FFF717FF062C0A
:10094000F7D131462846FFF747FF00BFC160D96B9A
:1009500082611964002219465CE700BF70B5C66861
:1009600043690B64AEB903690A4604460D46014665
:1009700002209847072805D008280FD1294620468D
:10098000FFF72AFF3046296CFFF724FF281D00F0EF
:100990003FFB0122FFF73EFF0BF01CFF0BF01AFF9D
:1009A000C2681AB1CA6B0A64002233E79AE700BF33
:1009B000704700BF836801460BB10120184770479C
:1009C000012912D009D873B90F2A0CD800EB820282
:1009D00018465368009A136070470339012994BF81
:1009E000012002207047022070470846704700BF70
:1009F00000B585B00A46002303A900911946FFF708
:100A0000DFFF039805B05DF804FB00BF012912D099
:100A100009D873B90F2A0CD800EB8200009A12682B
:100A20004260184670470339012994BF0120022013
:100A30007047022070470846704700BF10B584B069
:100A4000002303AC039200940A461946FFF7DEFF29
:100A500004B010BD70B5D36B136402F1040C0546ED
:100A60000C46BCE80F00ADF50E7D0DF15C0EAEE856
:100A70000F00BCE80F00AEE80F00BCE80F00AEE8C6
:100A80000F009CE80F004FF0FF368EE80F0016961F
:100A900010E0FFF7D3FF214616A8A847034616AA81
:100AA0006946082083B9049B9847052806460CD060
:100AB000092809D026996846FFF70AFE03466A46C8
:100AC0000C2116A8002BE4D0092616A8FFF74EFE2D
:100AD00030460DF50E7D70BD2DE9F04FCC6C89B020
:100AE0001E4654F8043B06940D46174600F00308D2
:100AF000002E79D01A0C1B0405938DF81D200223BB
:100B0000D2B204EB82048DF81C302B6DB8F1020FC9
:100B100008BFAC6B13F001030CD005A9384600F0F8
:100B200079FB18B9082009B0BDE8F08F092009B099
:100B3000BDE8F08FD4F800A0BAF1000FEDD001931A
:100B400000F008030293022E4AD0B4F800A0B4F8D3
:100B500002900434AB6C29F0010B0F2138469B4402
:100B6000FFF746FF834539D82AF001039B448345AC
:100B700094BF002001204FEA490303F002030AF06A
:100B8000010A43EA0A03012B49D0022B32D0002B81
:100B9000CCD1B8F1000F02D0002840F0CD80043451
:100BA000D4F800A0BAF1000FCDD105A9384600F065
:100BB00031FB0028BAD1019B002BB3D00F2138465E
:100BC000FFF716FF0E2102463846FFF737FF38467B
:100BD0006A4A0F21FFF732FF0720A8E70020CAE783
:100BE000D4F804900834B5E71B0205930323ADF84D
:100BF0001C308AE7236823F0004BB8F1000F45D181
:100C000028B1029A002A5CD0BBF1000F74D0002BEF
:100C100000DA04340BF1010B04EB8B04C0E7B8F1EC
:100C2000000F19D1B0B163682268991C4FEAD272E3
:100C30003FF47CAF05F158010133049100F090803E
:100C4000201DFFF7C1FD04AB01462846AFF300802D
:100C500000285BD10834A3E70D213846D5F8209051
:100C6000FFF7C6FE8145F5D1AB6A9C42F2D1204622
:100C7000FFF7E2FC0F2102463846FFF7DFFE384659
:100C80002A460021FFF7DAFE072050E70D213846FB
:100C9000D5F82090FFF7ACFE814501D02368B6E778
:100CA000AB6A9C42FAD104230022C5E90B23E31866
:100CB000C5F828B06B632368002B59DB012301932F
:100CC000A8E705F15803CDF80C8004F1040AB046FA
:100CD00091461E460EE050460496FFF775FD002231
:100CE000014604AB284609F101090AF1040AAFF3F1
:100CF0000080E0B9D945EED10D213846FFF778FEE6
:100D0000049BAC62C5E90803062010E781460D216B
:100D10003846FFF76DFEB9F1020F286225D12B4648
:100D2000049A43F82C2F6B62AC620620FFE646461D
:100D30002368DDF80C806AE72046FFF77DFC043469
:100D40000246AC6328461446AFF3008000283FF407
:100D5000EDAE384622460F21FFF770FE0720E6E68B
:100D60000D213846FFF744FE2862049B6B62DBE7E7
:100D70000BF1010004EB80007AE700BF00000000E7
:100D80000023A9E60123A7E60223A5E62DE9F04307
:100D90000646C3B015461C46042900F2BF80DFE8B2
:100DA00001F09E57BD2D0300002C40F0B780102AA3
:100DB00000F2B4800368D80600F1F98020AF38460D
:100DC00000F098F9B46B394600234FF0010C0CFA8F
:100DD00003F22A42204603F1010303D050F8042B0A
:100DE0000A600446042B01F10401F0D13846B463D3
:100DF00000F076F9002043B0BDE8F083032C40F00A
:100E00008D8094B204EB1243102B4FEA124500F28E
:100E1000858003681F0700F1D28020AF384600F0BC
:100E20003DF9B26B07EBC50154B10B46D01A01EB8B
:100E3000C401E4001D5843F8045B8B42FAD12244FC
:100E40003846B26300F008F9002043B0BDE8F083F3
:100E5000012C4FEA124895B25CD0052C5ED108EB0C
:100E60000509B9F1200F59D8B8F10F0F79D9A94662
:100E7000002D40F08A80B36B6DB320AF4FF00009B6
:100E800007EBC807043F03EBC50553F8041B47F8FD
:100E9000041FAB42F9D1B9F1000F0FD06F464146A4
:100EA000102938BF102107EBC101843903EBC905B4
:100EB00053F8040B41F8040FAB42F9D1012C00F0B8
:100EC0008680B8F10F0FB56347D9B9F1000F02D092
:100ED000684600F0B9F8002043B0BDE8F083ECB9F3
:100EE000806B23461FFA82FC0124371D04FA03F2AB
:100EF00012EA0C0F014604D051F8042B47F82320C6
:100F000008460133102BF1D115F40055E3D1B0633D
:100F1000284604E008EB0503102B03D9022043B058
:100F2000BDE8F083B8F10F0FF8D83368DA0706D5BB
:100F3000304623F0030340F8483B00F079F820AF37
:100F4000384600F075F8B36B002D97D11D46043577
:100F5000B563384600F068F8BDE720A800F06CF8EB
:100F6000B3E7B9F1100F40D9A9F110093368D907D7
:100F700008D523F00103304643F0020340F8483B14
:100F800000F05EF8B9F1000F32D033685A0720D470
:100F9000B8F10F0F25D96F463846C8F1100500F09B
:100FA00057F8002DB36B7FF77AAF20AF68E723F0D7
:100FB0001003336006F5E87000F09CF8FEE623F0BD
:100FC0000803036000F5A87000F068F825E720AF7B
:100FD000BDE7304623F0040340F8D03B00F038F87A
:100FE000D6E720A800F02CF8D5E74FF00009BDE7C0
:100FF000B8F10F0F3FF63FAF20AF384600F020F8B2
:10100000B36B002D7FF43AAF384600F015F862E775
:1010100000F1340191E838009C46A6464CF8045D86
:1010200090E8FF0FE54600BD90EC210B704700BF34
:1010300080EC210B704700BF90EC200B704700BF85
:1010400080EC200B704700BFD0EC200B704700BF36
:10105000C0EC200B704700BFF0EC0201F0EC021175
:10106000F0EC0221F0EC0231F0EC0241F0EC025124
:10107000F0EC0261F0EC0271F0EC0281F0EC029114
:10108000F0EC02A1F0EC02B1F0EC02C1F0EC02D104
:10109000F0EC02E1F0EC02F1704700BFE0EC02017D
:1010A000E0EC0211E0EC0221E0EC0231E0EC024164
:1010B000E0EC0251E0EC0261E0EC0271E0EC028154
:1010C000E0EC0291E0EC02A1E0EC02B1E0EC02C144
:1010D000E0EC02D1E0EC02E1E0EC02F1704700BF8D
:1010E000B0FC0181B0FC0191B0FC01A1B0FC01B1E8
:1010F000704700BFA0FC0181A0FC0191A0FC01A1F0
:10110000A0FC01B1704700BFEC4600B52DE90050CE
:101110002DE9FF1F4FF000032DE90C0001A9FFF797
:10112000E1FBDDF840E012B0704700BFEC4600B5CF
:101130002DE900502DE9FF1F4FF000032DE90C00B1
:1011400001A9FFF70BFCDDF840E012B0704700BFCB
:10115000EC4600B52DE900502DE9FF1F4FF00003CC
:101160002DE90C0001A9FFF71BFCDDF840E012B0EF
:10117000704700BFEC4600B52DE900502DE9FF1F78
:101180004FF000032DE90C0001ABFFF7DFFBDDF8AA
:1011900040E012B0704700BFEC4600B52DE90050AA
:1011A0002DE9FF1F4FF000032DE90C0001AAFFF706
:1011B00051FCDDF840E012B0704700BF027A0346F0
:1011C0007AB9427AA2B14168013A10B44272086811
:1011D00003220C1D1A7202025C60000E10BC1A6021
:1011E00070470068013A1A7202021A60000E7047D6
:1011F000B020704700B585B0002303AA00921946BD
:101200000C22FFF7DDFB039805B05DF804FB00BF7F
:10121000F0E700BF2DE9F043054685B00E464FF0DC
:1012200000083046FFF7CAFFB028044600F0BA8035
:10123000070620D500F0F003802B4DD0902B36D040
:10124000A02B60D0B02B74D0C02B00F08B8000F0AE
:10125000F803D02B0BD100F007020132052342F432
:10126000002201212846FFF791FD0028D9D009204E
:1012700005B0BDE8F0838300DBB21F1D0DF10C0942
:1012800000231946CDF800900D222846FFF798FB61
:10129000039BCDF8009060064CBFDF1BFF180023B6
:1012A0000D22194628460397FFF7B0FBB9E700F077
:1012B0000D030D2BDBD003AF002300F00F02194606
:1012C00000972846FFF77CFB002300970D22194664
:1012D0002846FFF79BFBA4E73046FFF76FFF240289
:1012E0002043B0F5004FC2D004010023A2B219463A
:1012F0002846FFF74BFD0028B9D114F4004F18BF62
:101300004FF001088DE7C24302F007034FF47F62FC
:101310001A41010702F47F624FF0000348BF42F414
:10132000804219462846FFF731FD00283FF479AF87
:101330009DE7B1283BD0B22800F09380B32841D07C
:1013400000F0FC03B42B92D000F00702013201231D
:1013500042F4002219462846FFF718FD00283FF402
:1013600060AF84E7C6284AD0C72854D000F0F803FD
:10137000C02B63D0C82868D0C9287FF478AF304626
:10138000FFF71CFF020300F00F0002F4702201308F
:101390000243012105232846FFF7F8FC00283FF40B
:1013A00040AF64E7B8F1000F18D0002060E7304686
:1013B000FFF704FF024600283FF459AF10F0F00396
:1013C000C8D054E73046FFF7F9FE020300F00F03E0
:1013D000013302F470221A430123BBE703AC4346F6
:1013E0000E22414600942846FFF7EAFA009443464D
:1013F0000F2241462846FFF709FB404638E73046B2
:10140000FFF7DCFE020300F00F03013302F4702249
:101410001A4303239EE73046FFF7D0FE024600281A
:101420003FF425AF10F0F0037FF421AF04212846EC
:10143000FFF7ACFC00283FF4F4AE18E700F00F0211
:101440000132032342F4202284E73046FFF7B6FE40
:1014500000F0F00200F00F031032013343EA0232D1
:1014600097E700230DF10C090D221946CDF80090E5
:101470002846FFF7A5FA3046FFF7A0FE02064FF018
:1014800002040CD5039B00F07F00A0401844039099
:101490003046FFF793FE030604F10704F2D4039BE2
:1014A000CDF8009000F07F02A24003F501731A44CA
:1014B0000023039219460D222846FFF7A7FAB0E64B
:1014C00010B5C26C536884B04FF0030C08321C0294
:1014D00008461B0E01A9019402928DF80CC08DF8EC
:1014E0000D30FFF797FE04B010BD00BF08B5FFF741
:1014F0008FFE806C08BD00BF08B5FFF789FEC06C89
:10150000C379023300EB830008BD00BF844641EA83
:10151000000313F003036DD1403A41D351F8043B6B
:1015200040F8043B51F8043B40F8043B51F8043BBD
:1015300040F8043B51F8043B40F8043B51F8043BAD
:1015400040F8043B51F8043B40F8043B51F8043B9D
:1015500040F8043B51F8043B40F8043B51F8043B8D
:1015600040F8043B51F8043B40F8043B51F8043B7D
:1015700040F8043B51F8043B40F8043B51F8043B6D
:1015800040F8043B51F8043B40F8043B51F8043B5D
:1015900040F8043B51F8043B40F8043B403ABDD2CC
:1015A000303211D351F8043B40F8043B51F8043B6E
:1015B00040F8043B51F8043B40F8043B51F8043B2D
:1015C00040F8043B103AEDD20C3205D351F8043BFD
:1015D00040F8043B043AF9D2043208D0D2071CBFC9
:1015E00011F8013B00F8013B01D30B8803806046F2
:1015F000704700BF082A13D38B078DD010F0030368
:101600008AD0C3F10403D21ADB071CBF11F8013BD7
:1016100000F8013B80D331F8023B20F8023B7BE726
:10162000043AD9D3013A11F8013B00F8013BF9D251
:101630000B7803704B7843708B78837060467047EB
:10164000A2EB0300704700BF02780B78012A28BF85
:101650009A42F5D16DE9044540EA0104CDE90267FB
:101660006FF0000C4FEA447212B380EA010414F0E8
:10167000070F6AD100F0070420F0070004F003050B
:1016800021F007014FEAC505F0E8042314F0040F28
:10169000F1E804670CFA05F462EA040266EA04065B
:1016A0000AD063EA0403624667EA0407664603E079
:1016B000F0E80423F1E8046782FA4CF582EA0604B4
:1016C000A4FA8CF46CBB83FA4CF583EA0705A5FAFF
:1016D0008CF595B950E9022351E9026782FA4CF57D
:1016E00082EA0604A4FA8CF483FA4CF583EA07052F
:1016F000A5FA8CF52543DBD09CB92DBAB5FA85F453
:1017000024F0070427FA04F1DDE9026723FA04F361
:1017100003F0FF0001F0FF01FDE80445A0EB01002C
:10172000704724BAB4FA84F424F0070426FA04F1CA
:10173000DDE9026722FA04F202F0FF0001F0FF0186
:10174000FDE80445A0EB0100704714F0030F3CD105
:1017500010F0030428D150F8082B51F8083B82FA06
:101760004CF582EA0305A5FA8CF55DB950F8042C16
:1017700051F8043C82FA4CF582EA0305A5FA8CF58F
:10178000002DE8D02DBAB5FA85F424F0070423FA29
:1017900004F122FA04F202F0FF0001F0FF01FDE87B
:1017A0000445A0EB010070474FEAC40420F0030099
:1017B00050F8082B21F0030151F8083B0CFA04F40F
:1017C00062EA040263EA0403C9E710F003041AD0D2
:1017D000A1EB040120F00300E40750F8042B06D02D
:1017E0000FD28B785FFAA2F4E41A06D12BB1CB7832
:1017F0005FFAB2F4E41A00D11BB920465DF8104B31
:10180000704701F1040150F8042BCC0721F00301CB
:1018100051F8043B48D824D222F07F4482FA4CF598
:1018200094EA1325A5FA8CF50AD165B951F8043B61
:1018300084EA0204B4EB036F0ED150F8042BEBE7FB
:101840004FEA132355E035F07F454DD10878FDE888
:101850000445C0F1000070474FEA126203F0FF0335
:1018600047E002EA1C4482FA4CF594EA1345A5FAD3
:101870008CF50AD165B951F8043B84EA0204B4EB53
:10188000034F0CD150F8042BEBE74FEA134330E041
:1018900015EA1C4528D10B884FEA124229E04FEA8D
:1018A000124203EA1C4324E002F0FF0482FA4CF5E2
:1018B00094EA1365A5FA8CF50AD165B951F8043B91
:1018C00084EA0204B4EB032F09D150F8042BEBE7B0
:1018D0004FEA13630DE015F0FF0F05D10B684FEAD7
:1018E000122223F07F4304E04FF00000FDE804459E
:1018F000704712BA1BBA82FA4CF482EA0304A4FAC3
:101900008CF5B5FA85F402FA04F203FA04F34FEA0F
:101910001260FDE80445A0EB1360704700B587B086
:10192000CDE904239DF824309DF820C00191002BBF
:1019300014BF4FF0804200220221BCF1000F0CBF07
:1019400001230223029169460092039302F0C2F937
:1019500010B907B05DF804FB00F00CFC07B05DF8AF
:1019600004FB00BF38B504460D4602F0E5F9B8B9EE
:1019700000220121204602F099FAD0B90022082164
:10198000204602F093FAE8B92368134A93421FD025
:10199000124A934203BF124B00201D60012038BD44
:1019A00000F0E8FB00220121204602F07FFA002827
:1019B000E4D000F0DFFB00220821204602F076FA96
:1019C0000028E1D000F0D6FB2368034A9342DFD120
:1019D000044B00201D6038BD0064004000680040DA
:1019E000240C0020200C0020CB0709D50368114AE5
:1019F000934210B5044611D00F4A934201D010BD56
:101A000070470E4B2046A3F12802402102F0ACF9AA
:101A10000B4B0C481B68BDE810401847074B402192
:101A2000A3F1280202F0A0F9074B06481B6898476B
:101A30002368E1E70064004000680040180C0020C3
:101A4000240C0020F00B0020200C00200B0709D5EF
:101A50000368114A934210B5044611D00F4A9342CD
:101A600001D010BD70470E4B2046A3F12802412142
:101A700002F07AF90B4B0C481B68BDE81040184780
:101A8000074B4121A3F1280202F06EF9074B0648EB
:101A90001B6898472368E1E7006400400068004045
:101AA000E80B0020240C0020C00B0020200C00209C
:101AB00010B5002492B03C22214603A8CDE9004491
:101AC00002940AF0C7FE33484FF4A0124FF0A04131
:101AD0000123C0E9001284830422C0E90244C0E962
:101AE00004438261036280F8244080F83840C46374
:101AF00080F8404000F0C0FE00283AD1002325487D
:101B00000093694601F082FE00283FD12249214816
:101B1000032209240023CDE9031405929C210B9292
:101B20004FF48072CDE90D120893ADF830308DF886
:101B300032308DF83C307F22042303A9CDE90623FF
:101B400001F036FBF8B9154A124840F20F1303A909
:101B5000CDE9032301F02CFB90B9114A0D4840F266
:101B6000152303A9CDE9032301F022FB20B912B00C
:101B700010BD00F0FFFAC1E700F0FCFA12B010BD92
:101B800000F0F8FAE9E700F0F5FADCE700F0F2FA25
:101B9000BCE700BF2C0C00200200300404006008E9
:101BA0000800900C10B590B03C22002101A80AF06A
:101BB00051FE264C264800234FF4A0110122C0E913
:101BC000004183830421C0E90233C0E9043281610A
:101BD000026280F8243080F83830C36380F84030E7
:101BE00000F04AFE38BB1B4919480422092400238F
:101BF000CDE901140392022105929C2206930991DA
:101C0000ADF828308DF82A300B928DF834308022D0
:101C10007F2301A90C92049301F0CAFA90B90E4AED
:101C20000B4840F20F1301A9CDE9012301F0C0FADE
:101C300020B910B010BD00F09DFAD4E700F09AFA78
:101C400010B010BD00F096FAE9E700BF00010050A7
:101C5000980C00208000501D0001802130B5044602
:101C60009FB00021542209A8CDE90411CDE9061145
:101C700008910AF0EFFD2368B3F1A04F04D0384A71
:101C800093423BD01FB030BD4FF400424FF00053A1
:101C900009A809921A9304F0BBF9002859D1314AD6
:101CA00013680133012B136009D12F4BDA6C42F416
:101CB0000052DA64DB6C03F400530093009B2A4B60
:101CC000D96C41F00101D964DB6C03F0010301938D
:101CD0000722019D0492002404A903234FF09040A1
:101CE000CDE9053402F02CFA22462146122001F0FB
:101CF00051FE122001F08CFE1FB030BD4FF40042A7
:101D00004FF0005309A809921A9304F081F918BB07
:101D1000144A13680133012B136009D1124BDA6C9A
:101D200042F40052DA64DB6C03F400530293029B2A
:101D30000D4B0E48D96C41F00401D964DB6C03F003
:101D4000040306220393039B0492002404A90323A3
:101D5000C6E700F00FFAA2E700F00CFAD8E700BFE0
:101D600000010050280C002000100240000800482C
:101D700038B51048104D002301220A240D21C0E976
:101D80000053C0E90233C0E90D330382C363032368
:101D9000C0E90621C0E90A218274446144620362F9
:101DA000036301F05DFE00B938BDBDE8384000F0C6
:101DB000E1B900BF040D00200068004030B50446C2
:101DC0009DB00021542207A8CDE90211CDE90411EC
:101DD00006910AF03FFD1F4B22689A4201D01DB0C8
:101DE00030BD4FF480524FF0007307A8079215934F
:101DF00004F00EF950BB184B18489A6D42F000726F
:101E00009A659A6D02F000720092009ADA6C42F0C4
:101E10000202DA64DB6C03F0020301934FF44052D8
:101E200002230024CDE9022302A90923CDE90543B9
:101E3000019D049402F084F922462146562001F0C7
:101E4000A9FD562001F0E4FD1DB030BD00F092F96F
:101E5000D1E700BF006800400010024000040048C5
:101E600070B500248AB0CDE90544CDE90744284B7C
:101E70000994D96C274E41F02001D964D96C01F046
:101E8000200101910199D96C41F00401D964D96C08
:101E900001F0040102910299D96C41F00101D96469
:101EA000D96C01F0010103910399D96C41F0020151
:101EB000D964DB6C03F002032246049310214FF037
:101EC0009040049B02F03AFA22463046302102F05C
:101ED00035FA012505A910234FF09040CDE90535CD
:101EE000CDE9074402F02CF93046302305A90593CB
:101EF000CDE90654089402F023F907230648079415
:101F000005A9CDE9053402F01BF90AB070BD00BF88
:101F100000100240000800480004004810B51848AE
:101F2000184C194900230122C0E90041C0E90232DE
:101F3000C0E90433C0E90633036202F02BFB50B959
:101F40000F48002102F080FC68B90D48002102F022
:101F5000A5FC80B910BD00F00DF90948002102F080
:101F600073FC0028F1D000F005F90548002102F0CB
:101F700095FC0028EED0BDE8104000F0FBB800BF93
:101F8000680D002000540040FBA7A030F0B50446C7
:101F90009FB00021542209A8CDE90411CDE9061112
:101FA00008910AF057FC234B22689A4201D01FB0D7
:101FB000F0BD402309A8099304F02AF8002836D17F
:101FC0001D4CE36C43F00103E364E36C03F0010395
:101FD0000193019BE36C43F00203E364E36C03F0C1
:101FE00002030293002512264FF40043042704A99C
:101FF0004FF09040029A0493CDE906550596089754
:1020000002F09EF880230D48049304A9CDE90655FB
:102010000596089702F094F8A36D43F40013A365A6
:10202000A36D03F400130393039B1FB0F0BD00F0F6
:10203000A1F8C5E700540040001002400004004829
:1020400010B594B03822002106A80AF003FC002045
:10205000CDE90100CDE90300059003F0A5FB2122A5
:1020600006924FF4803207920122022303240C923D
:1020700006A85522CDE90D34CDE90F32CDE9113353
:10208000139303F017FC08B172B6FEE70421034670
:102090000F220DEB0100CDE90124CDE903330593B7
:1020A00003F08CFE08B172B6FEE703F099FF14B09E
:1020B00010BD00BFF0B583B000F0AAFBFFF7C0FF72
:1020C000642000F0C7FBFFF7CBFEFFF7F1FCFFF742
:1020D00069FDFFF74DFE00F05BF800F08DF900F0B0
:1020E000A1FA09F0F3F900F051F9FFF717FF00F03A
:1020F000BBF906F05DFF06F079FC07F023FE06F061
:102100005DFC1448144C154F154E04F01DFD154888
:1021100004F01AFD3C21144804F066FE1348012324
:10212000436104F0E9F9124804F00EFD08F092FE54
:102130000B4808F05BFF0025228892B2012AFBD1F0
:102140000221002200913B4611463046258009F0CD
:10215000F1F8F1E7C41200205A17002064D80008F3
:10216000BC0D0020101300202C120020C4110020F0
:102170007812002072B6FEE7024B0349034AC3E916
:1021800000127047BC0D0020680D0020C40D002017
:1021900010B51148114C4FF482720023C0E900427F
:1021A0004FF470614FF40072C0E90231282482615B
:1021B00007210822C0E90433C0E90743C0E9093315
:1021C000C0E90B13426304F097F900B910BDBDE8F4
:1021D0001040FFF7CFBF00BFC41100200030014006
:1021E00010B5184A016888B000239142CDE9033345
:1021F000CDE90533079301D008B010BD03F180434A
:1022000003F50433E0201A6E42F480521A661A6E07
:1022100002F480520192019ADA6C42F00102DA640F
:10222000DB6C039003F0010302930224052303A94E
:102230004FF09040029A0494079301F081FF08B098
:1022400010BD00BF003001400B4B1A6E42F001027E
:102250001A661A6E82B002F001020092009A9A6D1C
:1022600042F080529A659B6D03F080530193019B6D
:1022700002B003F017BB00BF0010024008B503F026
:10228000B9FEFEE7FEE700BFFEE700BFFEE700BFC6
:10229000FEE700BF704700BF704700BF704700BF38
:1022A00000F0C6BA08B5044800F012FCBDE80840CA
:1022B000024800F00DBC00BF2C0C0020980C002040
:1022C000014802F081BB00BFA82D002008B50448DA
:1022D00004F0D8FEBDE80840024804F0D3BE00BFB9
:1022E0002C1200207812002008B5034804F0CAFE22
:1022F000BDE808400BF07ABAC4120020014804F08F
:10230000C1BE00BF10130020014801F055BE00BF40
:10231000040D00200120704708B50AF069FA162361
:1023200003604FF0FF3008BD08B50AF061FA1623CC
:102330000360FEE710B50C4C0C4B0D492268591A8E
:102340002AB11044884207D82060104610BD094ABF
:10235000226010448842F7D90AF04AFA0C234FF061
:10236000FF320360104610BD28120020000002203A
:1023700000040000E0320020034AD2F8883043F421
:102380007003C2F88830704700ED00E000B58DB0F2
:102390002022002104A80AF05DFA154815490160C1
:1023A00040F69F7100230122C16003A9CDE90033EB
:1023B000C0E90133C0E904330293836103920592BB
:1023C000099205F023F858B9002309480293694699
:1023D000CDE9003305F00AFA28B90DB05DF804FB29
:1023E000FFF7C8FEF0E7FFF7C5FE0DB05DF804FB90
:1023F0002C120020002C014000B51A4889B04FF083
:1024000080420023026044F26722CDE90433CDE923
:102410000633CDE90133C0E90133C0E90323039357
:10242000836104F08FFF90B94FF480530D480493FB
:1024300004A904F03BFD90B900230A48019301A9C7
:10244000039305F0D3F928B909B05DF804FBFFF751
:1024500091FEE9E7FFF78EFE09B05DF804FBFFF798
:1024600089FEE9E7C412002010B50A480A4C00238F
:10247000A92141F28732C0E90041C0E90232C0E936
:102480000433836104F05EFF00B910BDBDE8104065
:10249000FFF770BE781200200044014030B51B4B9E
:1024A000026889B000249A42CDE90344CDE905448D
:1024B000079401D009B030BD03F5644303A91A6E37
:1024C00042F400621A661A6E02F400620192019AE6
:1024D000DA6C42F00102DA64DB6C03F00103029370
:1024E0004FF440720223CDE903234FF090400623BE
:1024F0000793029D01F024FE22462146192001F097
:1025000049FA192001F084FA09B030BD002C0140CD
:1025100000B50368B3F1804F83B005D0184A9342E9
:1025200018D003B05DF804FB03F504330022996D65
:1025300041F0010199659B6D03F0010300931C209C
:102540001146009B01F026FA1C2003B05DF804EB55
:1025500001F05EBA0B4B196E41F4003119661B6E27
:10256000002203F40033019319201146019B01F06E
:1025700011FA192003B05DF804EB01F049BA00BF6D
:1025800000440140001002400E4B02689A4200D005
:10259000704703F55C4300B5196E41F400511966AC
:1025A0001B6E83B0002203F4005301932C201146CC
:1025B000019B01F0EFF92C2003B05DF804EB01F072
:1025C00027BA00BF0034014030B5144A016887B013
:1025D00000239142CDE90133CDE90333059301D0C6
:1025E00007B030BD03F1804303F504330224DA6CF5
:1025F0000B4842F00402DA64DB6C03F0040300933E
:102600004FF4EE55042301A9CDE90154CDE904436B
:10261000009A01F095FD07B030BD00BF00340140C5
:102620000008004830B5002499B04F4D0194342281
:1026300021460BA8CDE90244CDE90544CDE9074484
:10264000CDE9094404940AF005F9484A2023AB6017
:1026500041F29A03C5E90024C5E90334012280232D
:102660002846C5E9052304F09FFE002863D17023A6
:1026700001934FF4001200233B4801A9CDE9022346
:1026800005F0B4F800286CD10022602336480A9285
:1026900004A9CDE90432CDE90622CDE9082204F0EF
:1026A0005FFF00285AD12A682F48936923F0080356
:1026B000936104A9042204F053FF00284BD12A6837
:1026C0002948936923F40063936104A9082204F064
:1026D00047FF00283CD12A682348D36923F0080328
:1026E000D36104A941F290030C22059304F038FF52
:1026F00058BB29681C48CA6922F400620023CA61D9
:102700004FF40052CDE90F3214244FF000720BA9A0
:10271000CDE90B33CDE90D34CDE91133CDE91332D9
:10272000CDE91533179305F0BDF838B90E48FFF71A
:102730004BFF19B030BDFFF71DFD98E7FFF71AFDFD
:102740000948FFF741FF19B030BDFFF713FDD0E78F
:10275000FFF710FDBFE7FFF70DFDB0E7FFF70AFD3C
:10276000A1E7FFF707FD8FE71013002000340140B9
:102770000D488546FFF700FE0C480D490D4A002321
:1027800002E0D458C4500433C4188C42F9D30A4A26
:102790000A4C002301E013600432A242FBD30AF08A
:1027A0002DF8FFF787FCFEE7000002200000002064
:1027B000A40B0020BCEE0008A40B0020DC3200209B
:1027C000FEE7000038B50F4B1B680BB9012038BD80
:1027D0000D494FF47A720546B2FBF3F30868B0FB7B
:1027E000F3F001F023F904460028EFD10F2DEDD8C6
:1027F000024629464FF0FF3001F0CCF8034B20464B
:102800001D6038BD08000020040000200C000020DE
:1028100010B5032001F0ACF80F20FFF7D3FF10B183
:102820000124204610BD0446FFF70EFD204610BDD2
:10283000034A0449136809680B441360704700BFDA
:102840005C13002008000020014B1868704700BF8F
:102850005C13002038B50446FFF7F6FF631C0546FD
:1028600002D0044B1B681C44FFF7EEFF431BA3423E
:10287000FAD338BD0800002030B583B0002301939F
:10288000002800F0DD80C56D0446002D00F0C580F5
:1028900022689368980005D5936823F0204323F0BD
:1028A0003F0393609368D90019D47E4B7E481B6820
:1028B00091689B09A0FB030321F010419B0921F0C3
:1028C0003F0101335B0041F0805191600193019B16
:1028D0002BB1019B013B0193019B002BF9D1936824
:1028E000DB0000F18B80E36D43F01003E365236EA2
:1028F000012003432366936813F0040FE36D40F057
:102900008580DD0600F18280E36D23F4817343F05E
:102910000203E3659368D90719D4B2F1A04F00F020
:10292000AF80624B9A4200F0B480614903F5806346
:1029300089689B680B435F4989680B43DB0706D4B2
:102940005D498B68656823F47C132B438B60E568D5
:10295000E36B94F824102B43A5682B43657F012972
:1029600043EA453343EA014365D0E16A21B1256B6F
:1029700001F4787129430B43D568504929400B4332
:10298000D3601369616B23F040630B431361936859
:102990001D0724D4D16894F83830257F21F4804174
:1029A0005B0021F0020143EA85330B432169D360C8
:1029B0001369002947D043F480331361D2F8C03043
:1029C00023F47F5323F03F030B43C2F8C03094F845
:1029D0004030012B43D0136923F001031361636975
:1029E000012B20D0136B23F00F031363E36D23F04F
:1029F000030343F00103E36503B030BD936813F0B4
:102A0000040F4FF00000E36D3FF47BAFE36D012056
:102A100043F01003E36503B030BDFFF71FF92566EF
:102A200084F8585034E7116B236A21F00F01013B01
:102A30000B431363DAE7A16A013943EA414394E7A0
:102A4000012003B030BD23F480331361D2F8C030CD
:102A500023F47F5323F03F03C2F8C030B7E7116976
:102A6000636CA56C21F4FF6121F004012B430B433F
:102A7000E16C0B43216D0B4343F001031361AEE79F
:102A80000A49936889680B43D9073FF560AF0C4941
:102A900057E74FF0A0439B6891680B43DB073FF576
:102AA00056AFF4E704000020632D3E0500010050FE
:102AB0000004005000060050000700500740F0FFDF
:102AC00000030050704700BF704700BF704700BF51
:102AD000F8B50368B3F1A04F1E685F68044600F0C4
:102AE000D2809448944A9549834218BF0A46956813
:102AF000B10705F01F0502D5BA0700F1B6807007CF
:102B000040F18680790740F18380E26DD10603D4DD
:102B1000E26D42F40072E265DA6812F4406F21D18E
:102B2000844A934200F0EC8002F58062934200F008
:102B30001881DA68900415D41A68110712D59A68BA
:102B4000520700F105815A6822F00C025A60E36DC9
:102B500023F48073E365E36DDB0403D4E36D43F09A
:102B60000103E3652046FFF7ADFF23680C221A60DE
:102B7000B00654D5B90652D5E26DD10603D4E26D44
:102B800042F40052E2656B49DA6CD8688B4202F479
:102B9000C07200F0BB8001F580618B4200F0C28002
:102BA000D968D2B98A0100F1A3801A68500614D5F9
:102BB000890212D49A68120700F1D7805A6822F06D
:102BC00060025A60E36D23F48053E365E36DD8053A
:102BD00003D4E36D43F00103E365204606F0E4FE11
:102BE000236860221A60310601D53A0659D4F005EF
:102BF00001D5F90560D4B20501D5B80545D4F10673
:102C000001D5FA0610D4710501D57A0560D4F8BD56
:102C10003207ADD538073FF578AFB006AAD47206B3
:102C2000E1D57806DFD5A7E7E26B7AB1002D7CD03D
:102C3000B3F1A04F00F097803E48404A3E4983429E
:102C400008BF0A46926812F4604F0BD0E36D43F45C
:102C50008063E365236E43F0020323662046FFF79B
:102C600035FF236810221A60CDE7E36DDB0603D43D
:102C7000E36D43F40063E365204600F097FA2368B0
:102C800002221A603BE72C4A31E7E36D43F48023CC
:102C9000E365204600F088FA23684FF400721A605A
:102CA000ADE7E36D43F48033E3652046FFF70CFFA7
:102CB000236880221A609AE7E36D43F40033E365EA
:102CC000204600F06FFA23684FF480721A6092E792
:102CD000E26D42F48042E265226E4FF4806142F080
:102CE0000802226620461960BDE8F84000F058BA94
:102CF00000F4406001F4005202437FF46EAF54E7E9
:102D00004FF0A041092D1DD9CA6813E74FF0A04C20
:102D1000002D3FF445AFA91F01297FF641AFDCF834
:102D20000C103EE7DFF818C0F2E7DA68D00799D553
:102D30008CE700BF00010050000300500007005066
:102D40000004005040F22122EA40D207DCD5F0E630
:102D5000E36D43F01003E365236E43F00103236644
:102D600000E70649CEE7064A6CE7E36D43F010033F
:102D7000E365236E43F0010323662EE70004005051
:102D80000003005070B582B00022036801929A6877
:102D9000D20734D499682C4A1142044632D19A6839
:102DA00022F0004222F03F0242F00102B3F1A04FB4
:102DB0009A6047D02548264A2649834218BF0A46CA
:102DC00093681B0228D4FFF73FFD23681A68D607D3
:102DD000054614D4204E9A68D00704D49A6832402D
:102DE00042F001029A60FFF72FFD431B022B23687C
:102DF00002D91A68D10705D51A68D207EBD5002089
:102E000002B070BDE36D43F01003E365236E012053
:102E10000343236602B070BD104B114A1B689B0927
:102E2000A2FB03239B09013303EB43039B000193A4
:102E3000019B002BC7D0019B013B0193019B002B01
:102E4000F9D1C0E7024ABBE73F0000800001005013
:102E50000003005000070050C0FFFF7F0400002067
:102E6000632D3E0538B503689A68950702D59B68BF
:102E7000002038BD9A68D4072BD59A6802F00D025D
:102E8000012A044608D0E36D43F01003E365236E86
:102E900001200343236638BD9A6822F0004222F0E5
:102EA0003F02032142F002029A601960FFF7CCFC56
:102EB00023689B68D90705460BD5FFF7C5FC401B67
:102EC0000228236802D99A68D207DCD49B68DB0702
:102ED000F3D4002038BD00BF70B590F8582082B000
:102EE0000023012A019340D0012380F85830044682
:102EF0000D46FFF7B7FFF0B9E26D266822F488525D
:102F000022F0020242F00202E265B368184A23F09E
:102F1000404305F0804123F03F030B4343F000435F
:102F2000B360B368002B0FDBE36D23F0030343F0C2
:102F30000103E36503E0E36D43F01003E365002361
:102F400084F8583002B070BD019B01330193019B9E
:102F50009342E6D9E36D23F01203002243F01003FD
:102F6000E36584F858200120ECE7022002B070BD30
:102F700001DE040038B50368B3F1A04F044651D018
:102F80003848394A3949834218BF0A4695689A68D1
:102F900011073DD4DA68DB6C13F4C07F3AD094F8A3
:102FA0005830012B34D0012384F858302046FFF7E5
:102FB000E9FE002838D1E36DDA0549BF236E2066AB
:102FC00023F008032366E36D226823F4405323F0C3
:102FD000010343F48053E365224B9A4228D003F562
:102FE00080639A4224D0E36D23F48013E36560216B
:102FF0000023116084F85830D3689B0107D493688C
:1030000023F0004323F03F0343F00803936038BDEF
:10301000022038BD002AC2DBE36D43F0200301200B
:10302000E36538BD104AB1E7002384F8583038BD55
:1030300015F01F050DD06023063D1360012D4FF0E4
:10304000000384F85830D7D9E36D43F48013E36567
:1030500038BDE36D23F48013E3656023136084F8C7
:103060005850C9E70001005000030050000700500D
:1030700038B50368B3F1A04F044669D04448454AC7
:103080004549834208BF0A4695689A68100755D497
:10309000DA68DB6C13F4C07F52D094F85830012BFF
:1030A0004CD0012384F858302046FFF76BFE0028EF
:1030B00050D1E36DD90549BF236E206623F0080384
:1030C0002366E26D236822F4405222F0010242F4AA
:1030D0008052E2652E4A934205F01F054ED002F55C
:1030E000806293424FD01946E26D22F48012E2656D
:1030F00060221A60002284F85820DA68920203D510
:103100005A6842F480625A60A269082A5A682DD02F
:1031100022F040025A605A6842F020025A608B4204
:1031200000D0DDB9DA68920107D49A6822F0004233
:1031300022F03F0242F008029A6038BD022038BDFA
:10314000002AAADBE36D43F020030120E36538BDCC
:10315000114A99E7002384F8583038BD063D012D07
:10316000E0D9E36D43F48013E36538BD22F020021B
:103170005A605A6842F040025A60D0E74FF0A041CE
:10318000002DB5D1B0E70549002DB1D1ACE700BFA6
:1031900000010050000700500003005000040050E0
:1031A000704700BF704700BF704700BF704700BF47
:1031B0002DE9F04190F8583082B00022012B0192A5
:1031C000426900F09981012380F85830E2B10B6A1E
:1031D000012B19D0846E002C40F036818A6A002AB7
:1031E00000F065825D1ECC6A02F07C032B43234312
:1031F000D1E90024856604F01F05C2F38464AC4065
:103200001C434466036805E04B68092B00F0088105
:103210000A6803689C68270710D491F82540002CA1
:1032200040F0F58091F82440DD6891F8266024058F
:1032300025F4401544EA46542C43DC609C6814F0A5
:10324000040474D09C6800249D68EE0714D4CF68F1
:10325000AE4DD3F8B06007F0180C25FA0CF5C2F3A8
:10326000120E154026EA0E0C45EA0C05C3F8B050C4
:10327000A74DAF4200F00D81A6490A4229D0B3F113
:10328000A04F00F03781A44EA449A54DB34218BF0A
:103290002946A44D8968AA4201F0E07620D0A24DCB
:1032A000AA421DD0A14DAA4240F04C81CD0110D4BC
:1032B000B3F1A04F00F05382974D984A9849AB4222
:1032C00018BF0A46936823F0E073334343F08073DA
:1032D0009360002380F85830204602B0BDE8F081AA
:1032E0000A02F6D4B3F1A04F00F03B82904A934219
:1032F000EFD18B498A688F4B22F0E072324342F45F
:1033000000021B688A608C4A9B09A2FB03239B096D
:1033100003EB43039B0018330193019B002BD8D090
:10332000019B013B0193019B002BF9D1D1E79D68E3
:1033300015F0080588D18C6A002C40F09B8091F82C
:103340002540012CDC680CBF44F0007424F00074AC
:10335000DC60002491F83060012E1E6900F0658168
:1033600026F002061E618E68B6F1004F00F049811A
:103370004FEAD25C0CF0040C03F11407C2F30452C0
:103380004FF0070E96400EFA02FE5CF8072022EA84
:103390000E0216434CF807605A6922F000425A6147
:1033A000D1F810C0DE68BCF1040F00F0E58003F135
:1033B0006002C6F3C10652F82C800F684FEA460E31
:1033C0005E4E07F0F84708EA060637434E6906FAEC
:1033D0000EF63E4346F0004642F82C60D1F810C08D
:1033E0008F6952F82C6026F080763E4342F82C60BC
:1033F0000E7F0F69012E52F8276008BF4FF000754D
:1034000026F00076354342F827500A681CE7DC684E
:1034100091F8265024F4401444EA4554DC600DE74A
:103420008B6A0A68002B6CD0CC6A03F07C03550CC5
:1034300005F4785523431D430368414EDC6C34404A
:103440002C43DC644566E5E60A684B68C2F3846594
:1034500003F01F039D40436E013C1D4384660368D7
:103460004566002C7FF4D6AEDC6C354E34402543E7
:10347000DD64CFE6CC6A002C3FF461AF91F82540C3
:10348000012C00F06781DC6824F00074DC602C46BD
:1034900060E7BEF1000F40F0D380920E551C05F09E
:1034A0001F0CBCF1090F40F205810CEB4C02AD067C
:1034B0001E3A012605F0F845120506FA0CFC42F00A
:1034C000007245EA0C052A43D70D8D6807F0040702
:1034D00003F11406C2F3045205FA02FC4FF0070E82
:1034E000BD590EFA02F225EA020242EA0C02BA5172
:1034F0000A68C1E60949CCE60224204602B0BDE8CC
:10350000F081550C05F4785596E700BFFFFF0700E2
:1035100000007F40000008800001005000030050C0
:1035200000070050000021C31000C090000052C7E7
:103530000006005004000020632D3E0500F0FF034C
:1035400000401004AC4DAA427FF4C3AE49023FF5DF
:10355000C0AEAA4A93423FF4BCAEA94902F500723C
:10356000B3F1A04F18BF0A46936823F0E0733343CA
:1035700043F480039360ACE61A6E0A681D6EC2F3D2
:103580001206C5F38465002E00F0A08092FAA2F620
:1035900026B1B6FA86F6B54200F0E5805D6E5E6E45
:1035A00003F16005C6F3846603F1640C92FAA2F796
:1035B00027B1B7FA87F7BE4200F0EA80AE68AE687E
:1035C00005F1080CC6F3846692FAA2F727B1B7FAA0
:1035D00087F7BE4200F0EF80EE68EE680C35C6F368
:1035E000846692FAA2F7002F3FF42EAEB7FA87F75F
:1035F000B7427FF429AE2A6822F000422A600A68A6
:1036000022E6D70D07F0040703F11406C2F30452B3
:103610004FF0070C0CFA02FCBA5922EA0C02BA511C
:103620005A6942F000425A61BAE626F4FF7CD1E9B9
:103630000D673E4346EA0C0646F002061E6192E61E
:1036400092FAA2F5002D61D0B5FA85F5013505F0A5
:103650001F05092D5AD992FAA2F5002D00F0C98054
:10366000B5FA85F50135AD0605F0F84592FAA2F6F2
:10367000002E00F0BC80B6FA86F6013606F01F0672
:10368000012707FA06F6354392FAA2F2002A00F063
:10369000AC80B2FA82F2013202F01F066FF01D0711
:1036A000032212FB0672120542F000720BE7013B87
:1036B0001D469DE5AE06012202FA0CF206F0F84620
:1036C00016430CEB4C0212053243FDE6C2F384674D
:1036D000BD4248D05D6E5E6E03F16005C6F3846640
:1036E00003F1640CBE4253D0AE68AE6805F1080C1D
:1036F000C6F38466C2F38467B7425CD0EE68EE68B6
:103700000C35C6F38466C2F3846771E792FAA2F6B9
:10371000002E64D0B6FA86F60136B60606F0F846F4
:1037200092FAA2F5002D58D0B5FA85F5013505F0CD
:103730001F05012707FA05F52E4392FAA2F2002A87
:1037400050D0B2FA82F5013505F01F0505EB4505AD
:103750002A05B9E7C66D46F02006C665FAE5294A8E
:10376000B0E52849C6E51A6E1D4622F0004245F82C
:10377000602F5A6E0A685E6EC2F31207C6F3846643
:1037800003F1640C002F7FF411AFC2F38467A9E743
:10379000DCF8002022F00042CCF80020AA680A6879
:1037A000AE68C2F31207C6F3846605F1080C002F59
:1037B0007FF40AAF9EE7DCF8002022F00042CCF84C
:1037C0000020EA680A68EE68C2F312070C35C6F3F7
:1037D0008466002F7FF405AF95E70225ACE74FF034
:1037E00080669DE74FF440126EE7074A6BE60226BB
:1037F00049E74FF0806539E7000084CB00010050B5
:103800000007005000030050000050FE70B490F814
:1038100058300E68012B9DB057D002680024012358
:10382000B2F1A04F189480F8583019940CD04A4D3A
:10383000AA4248D0C26D80F8584042F02002C265CA
:1038400018461DB070BC7047444B9B685B070CD595
:103850009368C26D42F020020123C265002280F805
:10386000582018461DB070BC704793685C07F0D4B0
:10387000B2F1A04F2ED0394B9A422BD0002E59D006
:10388000374A4C68936823F46043234390F83840E8
:1038900043EA44339360304B9C6803F580739B6824
:1038A0002343304CA4682343DB4303F0010343B1BB
:1038B00094688B6824F471611E4321F00F010E435C
:1038C00096600023CAE7284BBFE7022318461DB0C5
:1038D00070BC7047AEB1254A4C68936823F46043CE
:1038E000234390F8384043EA443393601B4B4FF036
:1038F000A04292689B681343DB431C4A03F0010318
:10390000D5E71A4A936823F4604393604FF0A041CF
:10391000124B89689B68154A0B43DB4303F0010394
:10392000002BCED0916821F4716121F00F010023AA
:10393000916093E70A4A084993680B4C23F460436B
:1039400093608968A3680B43064989680B43DB438E
:1039500003F00103E4E700BF000400500001005041
:103960000007005000060050000500500003005002
:103970000749CA6803024FF6FF0003F4E063024000
:10398000134343F0BF6343F40033CB60704700BF81
:1039900000ED00E01C4BDB68C3F3022300B5C3F16C
:1039A000070EBEF1040F03F1040C28BF4FF0040E04
:1039B000BCF1060F1BD9033B4FF0FF3C0CFA03FC94
:1039C00022EA0C024FF0FF3C0CFA0EFC21EA0C013B
:1039D0009940002841EA02010CDB00F16040090136
:1039E00000F56140C9B280F800135DF804FB0022C5
:1039F0001346E7E7054B00F00F0009010344C9B285
:103A000019765DF804FB00BF00ED00E0FCEC00E07F
:103A1000002808DB044A4109012300F01F0003FAD3
:103A200000F042F82100704700E100E00138B0F1F9
:103A3000807F10D210B44FF0E023084C58614FF053
:103A4000F00C84F823C00022072110469A615DF82B
:103A5000044B196170470120704700BF00ED00E082
:103A6000002800F009812DE9F84390F85C30044605
:103A700003F0FF02002B73D02268936923F0100338
:103A80009361FEF7E1FE054604E0FEF7DDFE431B11
:103A90000A2B5BD823689A691207F6D49A6942F018
:103AA00001029A61FEF7D0FE054604E0FEF7CCFE67
:103AB000401B0A284AD822689369DB07F6D5936928
:103AC000764943F002038A42936100F0D080237C60
:103AD000012B93690CBF23F0400343F04003936133
:103AE000637C012B93690CBF43F4804323F4804330
:103AF0009361A37C012B93690CBF23F4805343F49F
:103B0000805393619369A068E16823F44073034391
:103B10009361936923F0A40393611369012923F04E
:103B20001003136121D021B30229936900F0B18001
:103B300043F0800393611369032943F01003136179
:103B400017D1936943F02003936112E0236E03229F
:103B500043F00103236684F85C200120BDE8F8836C
:103B600080F85D20FEF72AF986E7936943F00403A5
:103B70009361D4E90613013B01391B0243EA416317
:103B8000216A01390B436169013943EA0143B0F508
:103B9000407FD3610ED1D4E90B03A16A013B013808
:103BA0001B01013943EA00230B43616A013943EAEF
:103BB0000143D360D2F8C030E06B394903438A42F5
:103BC000C2F8C0305AD0374B374E384F384D39488D
:103BD00001F580618A4218BF9946A3F1180318BF06
:103BE0001E46A3F1D80318BF1F4601F57D51A3F16E
:103BF000D80301F1100118BF9C46A3F140030CBF8C
:103C00008C469846A1F1400103F5387304BF8846FD
:103C1000A94601F5387118BF1946A3F5547308BFBA
:103C20000346D2F88000236420F4F81E606BA56B75
:103C30004EEA0040C2F88000D2F88000C4F8448008
:103C400020F0706040EA0560C2F88000C4E912C745
:103C5000C4E91469002243F8042B8B42FBD30123EF
:103C6000226684F85C30A2650020BDE8F883124B20
:103C70006168C3F800152AE701207047DFF8489013
:103C80000E4E0F4FDFF844C0DFF8448009490D4B5A
:103C9000C7E743F0200393616BE700BF0064004077
:103CA0000068004078A6004000AD004028AC00400D
:103CB00018AD0040A0AA004000600040B0A900403C
:103CC000D8A8004050A70040C8A9004000A8004064
:103CD000C0A7004090F85C20013A012A034605D9AC
:103CE000026E42F0020201201A667047086830B482
:103CF00078B9D1E90242D20642EA84721C6C4B695F
:103D00004D6813430A6943EA024344F8253030BC46
:103D10007047586C8A684B694C6843EA8273D1E9F2
:103D2000035200EBC40C42EA457240F834200020F4
:103D300030BCCCF80430704790F85C20012A034670
:103D400005D0026E42F0040201201A667047006836
:103D5000022283F85C208269002122F00102826144
:103D600008461966704700BF2DE9F041044690F8F7
:103D70005C0002280DD14029256811D0D5F89800A3
:103D8000070771D1236E43F4807301202366BDE8D9
:103D9000F081236E43F0080301202366BDE8F08123
:103DA000D5F890000707EDD0D5F89060C6F3006015
:103DB000F60148BFD5F88000D5F8907048BFC0F331
:103DC0004020C7F3012707EB0008A06C08EBC806EA
:103DD00000EBC600066806F080465660002E5FD1F4
:103DE0000668C6F38A461660066806F000569660B6
:103DF000066806F0004616618688D661B0F806C0EF
:103E00000CF00F0CC2F80CC0466806F48016566120
:103E1000466806F400169661C67906F07F061662BB
:103E2000214E476816F80CE04FEAD77CC2F824C050
:103E3000BEF1000F0FD003F1FF3E00F1070C634607
:103E40001CF8015F0EF8015FD568063B755D1B1A13
:103E50009D42F4D8256840290CBFC5F89480C5F868
:103E60009C800020BDE8F081D5F89860C6F3006022
:103E7000F60148BFD5F88000D5F8987048BFC0F368
:103E80000020C7F3012707EB0008E06C08EBC80629
:103E900000EBC600066806F080465660002E9FD0F4
:103EA000066826F060469EE780D80008034690F832
:103EB0005C000138012805D91A6E42F00202012087
:103EC0001A6670471B6830B411F00705986D3DD035
:103ED000C4073BD4DC6D44F00104DC65CDB1C507FB
:103EE00017D5D86D40F00200D8650C0604D5D3F87C
:103EF000DC001043C3F8DC00C80504D5D3F8E000AB
:103F00000243C3F8E0205A6D1143002030BC5965CC
:103F1000704711F0380F01D08407E2D411F4E07F2C
:103F200031D111F4F05F01D00407DAD411F4604FFD
:103F300001D0C506D5D411F4403F01D08406D0D4B9
:103F400011F47C0FD1D04506CFD5CAE711F0380F58
:103F500001D08407BED511F4E07F17D111F4F05FD2
:103F600001D00407B6D511F4604F01D0C406B1D515
:103F700011F4403F01D08406ACD511F47C0FADD0D4
:103F80004406ABD4A6E74507ABD4CAE74407A1D59E
:103F9000E4E700BF704700BF704700BF704700BF35
:103FA000704700BF704700BF704700BF704700BF39
:103FB000704700BF704700BF2DE9F84F03681A6DC6
:103FC000596D02EA010A1A6D596D02EA01091A6D6A
:103FD000596D1E6D02EA01085A6D1F6D16405A6D2B
:103FE000D3F854B01D6D1740690604460AF4E05A30
:103FF00009F0070908F0380806F4710607F460278D
:1040000002D51BF0400F72D1EA0502D51BF4807F68
:104010005DD1BAF1000F4AD1B9F1000F35D1B8F135
:10402000000F3CD1AB0502D51BF4007F74D12806EC
:1040300002D51BF0800F77D1A90402D51BF4005FD5
:104040005AD12A0402D51BF4004F5DD16B040AD566
:104050001BF4804F07D023684FF480421A65236E0B
:1040600043F0800323664FB926B123681E65236E93
:104070001E432666236E2BBBBDE8F88F23683946A6
:104080001F652046FFF796FFEEE723684946C3F811
:1040900050902046FDF7A8FCB8F1000FC2D023686D
:1040A0004146C3F850802046FDF7D0FCBAE72368AC
:1040B0005146C3F850A02046FFF76CFFB9F1000F3E
:1040C000ADD0E2E72046FFF773FFBDE8F88F236825
:1040D000D3F8D810D3F8E0204FF480701865114061
:1040E0002046FFF75DFFBAF1000F95D0DFE74022D1
:1040F0001A65FFF75BFF87E723684FF400521A65E4
:104100002046FFF74FFF9CE723684FF400421A65F3
:104110002046FFF749FF99E723684FF400721A65BC
:104120002046FFF739FF82E72368D3F8D410D3F88D
:10413000DC208020186511402046FFF72FFF7BE729
:104140002DE9F04F0C6885B0002C00F083804FF013
:10415000000CDFF8D8A163464FF0010B89460BFA3B
:1041600003F515EA04086FD0D9F8047007F00302CC
:10417000511E012971D9032A40F0B08002FA0CF2D5
:10418000D143056829400A4317F4403F02605BD0E1
:10419000DAF8602042F00102CAF86020DAF8602004
:1041A00002F001020392039A23F0030202F180421B
:1041B00002F5803203F003059168AD000F2606FA80
:1041C00005FEB0F1904F21EA0E0119D0514EB042D8
:1041D00000F08F80504EB04200F08F804F4EB042C2
:1041E00000F081804E4EB04200F08D804D4EB042C6
:1041F0000CBF4FF0050E4FF0060E0EFA05F52943E1
:104200009160494A484992686FEA0805FE0254BF26
:104210002A4048EA02028A60CA68B902424954BF89
:104220002A4048EA0202CA6049683F4ABE0354BFB6
:10423000294048EA010151601268F9033A4954BF24
:104240002A4048EA02020A60013334FA03F20CF110
:10425000020C84D105B0BDE8F08F8168D9F80C60FC
:104260004FF0030E0EFA0CFE21EA0E0106FA0CF6D0
:10427000314381606FEA0E01D0F804E02EEA050EAA
:10428000C7F300159D4045EA0E054560C56805EA7F
:10429000010ED9F8085005FA0CF545EA0E05022A78
:1042A000C56002FA0CF27FF46CAFDD0800EB850507
:1042B00001952E6AD9F81050009603F0070E4FEAC8
:1042C0008E0E0F2605FA0EF506FA0EFE009E26EA61
:1042D0000E0E019E45EA0E05356252E7032101FAF2
:1042E0000CF1C943D2E74FF0030E0EFA05F529434E
:1042F00086E70BFA05F5294382E74FF0020E0EFA26
:1043000005F529437CE74FF0040E0EFA05F5294325
:1043100076E700BF0004004800080048000C004891
:104320000010004800140048000401400010024042
:104330000369194214BF0120002070470AB181614E
:1043400070478162704700BFF8B503689D6915F03A
:104350001005064640D0174610220C46DA619A69CD
:10436000950604D4621C4DD19A699706FCD520228B
:10437000DA6100259A69D40545F004054FF0010083
:104380002ED4510539D54FF48061D96145F0080527
:10439000970504D54FF4007245F00205DA619A6979
:1043A000910744BF00229A629A69D20703D49A699E
:1043B00042F001029A615A6826490A405A60736CB9
:1043C00000221D432023756486F8402086F8413082
:1043D00086F842200120F8BD9A69D4052846D0D538
:1043E0004FF480715005D96145F00105D0D54FF4E7
:1043F0008061D96145F00805CAE79405CAD4002850
:10440000CDD1F8BDFEF720FAC01BA042336801D819
:10441000002CA4D1586896F8422099690D04D2B2B4
:104420000BD5410409D4202A07D05A6842F48042AF
:104430005A60FEF709FA3368074699698A068ED4EE
:10444000FEF702FAC31B192B3368F6D99A692025A7
:1044500090E700BF00E800FE70B5036804460D4613
:10446000164605E0FFF770FF50B96A1C0AD12368B1
:104470009B699B07324629462046F3D5002070BD34
:10448000012070BDFEF7E0F9801BA842236801D827
:10449000002DEDD19A6912F00202E9D1636C84F823
:1044A000402020210B43636484F8411084F84220AB
:1044B000012070BD2DE9F041DDF818801D4604464D
:1044C00003680F46164605E0FFF73EFF80B96B1CF8
:1044D00011D123689B6937EA03030CBF0123002332
:1044E000B342424629462046EED00020BDE8F08186
:1044F0000120BDE8F081FEF7A7F9A0EB0800A84273
:10450000236801D8002DE5D19A6937EA02020CBF71
:1045100001220022B242DDD1636C002243F020036D
:104520002021636484F8402084F84110012084F83D
:104530004220DBE703689B699B0629D470B50546DA
:104540000C4616460DE0FEF77FF9801BA042296855
:1045500000D81CB98B6913F020030DD08B699B0622
:1045600008D4324621462846FFF7EEFE0028EAD05E
:10457000012070BD002070BD6A6C85F8403020219C
:104580000A436A6485F8411085F84230012070BD05
:1045900000207047002854D010B590F841300446F0
:1045A00003F0FF02002B47D02368242284F8412027
:1045B0001968626821F0010122F0706219601A61C5
:1045C0009A68E16822F4004201299A60A26809D041
:1045D00042F4044202299A6007D15A6842F4006208
:1045E0005A6006E042F400429A605A6822F400627F
:1045F0005A605968226941F0007141F400415960E4
:104600006169D8680A43A16920F4004042EA0122A6
:10461000E169D860206ADA6001431960196841F0E5
:104620000101196000222023626484F84130226372
:1046300084F84220104610BD80F84020FDF7A6FC0B
:10464000B2E70120704700BF2DE9F04F994690F87E
:10465000413083B0202BBDF834A00E9F26D10C9B97
:104660000446E3B1BAF1000F19D090F84030012BA5
:104670001CD04FF0010B80F840B00D469046FEF77D
:10468000E3F85A460646009019234FF400412046AD
:10469000FFF710FF70B1012003B0BDE8F08F4FF4B9
:1046A00000736364012003B0BDE8F08F022003B003
:1046B000BDE8F08F0C9B6362212384F841302268AF
:1046C0005D496063402384F842306064A4F82AA006
:1046D00053680B405FFA89F143EA0143C5F30905CA
:1046E0002B4343F0807343F4005353603946324602
:1046F0002046FFF7B1FE002868D1B9F1010F5AD169
:1047000023685FFA88F29A62802100963B46002275
:104710002046FFF7CFFE002858D1638D9BB2FF2BB8
:1047200058D8638D216845484A689BB22385DBB21F
:1047300045EA03430240134343F000734B60DFF844
:10474000FC80DFF8009103E0638D9BB2002B5DD00D
:10475000324639462046FFF77FFE00289BD1636A28
:10476000226813F8011B91626362638D228D013B05
:104770009BB26385638D013A92B29BB22285002B76
:10478000E2D0002AE0D100963B4680212046FFF788
:1047900091FE00287FF47FAF638D9BB2FF2B26D95B
:1047A0002268FF232385536803EA08032B4343EA67
:1047B00009035360C8E723684FEA18229A62394612
:1047C00032462046FFF748FE002899D0002384F89F
:1047D000403060E722681949FF23238553680B4066
:1047E0002B4343F0FF7343F480335360A7E7638D9B
:1047F00021689BB24A682385DBB245EA034302EA9B
:104800000802134343F000734B609DE7324639467C
:104810002046FFF78FFE00287FF43DAF2368084D48
:104820002021D9615A682A405A6084F8411084F8DE
:10483000400084F8420036E7009800FC009C00FC31
:1048400000E800FE0000FF0190F84120202A23D15B
:104850005FFA82FC90F84020012A03461CD00268CF
:10486000242000B583F84100106820F0010010609A
:10487000106820F4805010601068014311601168C6
:104880004FF0000E41F00101116083F841C083F840
:1048900040E070465DF804FB0220704790F841202C
:1048A000202A22D100B55FFA82FE90F84020012A2A
:1048B00003461CD00268242083F84100106820F0D1
:1048C00001001060106820F4706040EA012111605E
:1048D00011684FF0000C41F00101116083F841E0D4
:1048E00083F840C060465DF804FB02207047022058
:1048F0005DF804FB002849D070B590F89132064667
:1049000003F0FF02002B3CD00323306886F891327D
:1049100003F032F835791DB30021334632464FF0AB
:10492000010C0C4611740131C8B28542C2E9084439
:1049300082F811C0D47442F8284FF3D800210A46F7
:1049400083F850110131CCB2A542C3E9582283F853
:10495000512183F85321C3F8682103F12803EFD8CC
:104960003346002453F8040B93E8060003F00EF8D6
:10497000B37A34730122934286F8912208D02046FC
:1049800070BD80F8902206F08DFEBDE701207047D3
:10499000304600F0EFFE204670BD00BF90F8903228
:1049A000012B0ED010B504460123006884F8903224
:1049B00002F0D8FF206803F007FE002084F8900280
:1049C00010BD0220704700BF2DE9F84F0446006873
:1049D00003F006FE10F400452BD1430500F172816F
:1049E00047041BD410F4005140F0EA81C60400F1E2
:1049F0008980050500F13283010600F104838205F8
:104A000000F10F84C30512D52268B2F8443023F4B4
:104A100080731B041B0CA2F8443008E02268B2F833
:104A2000443023F480431B041B0CA2F84430BDE83F
:104A3000F88F2068B0F844301F04F8D5DFF898AA42
:104A4000DFF898BA10E011F0100100F0C080018882
:104A500011F400658BB240F0E0801E0400F14F813C
:104A6000B0F844301A04E2D5B0F84450A9B215F0B9
:104A70000F05E8D02EB230F826301F041FFA83F954
:104A800063D419F0800FEBD030F826309BB203EAE4
:104A90000A0343F4004320F8263005EB850304EBBA
:104AA000C3034FEA8508DA7C012A00F0948119F4E7
:104AB000807740F0C281B0F8502093F810C000F227
:104AC000024106EB860611FA82F204EBC60532F8C3
:104AD0003C20A96AC2F3090291424FEAC60640F29D
:104AE000A581891AA962002900F0A1811036A119B7
:104AF0005E6A16445E62EB6A1344EB6203F000FAEE
:104B00002068ADE72268B2F8403023F004031B04AC
:104B10001B0CA2F84030B2F8403023F008031B040D
:104B20001B0CA2F8403094F8C832012B00F08783A8
:104B3000204606F027FE2268B2F8443023F4805362
:104B40001B041B0CA2F8443071E730F8262040F615
:104B50008F73134043F0800305EB850120F8263066
:104B600004EBC1014FEA850891F85C31002B76D146
:104B7000B0F8503000F2064212FA83F391F8502157
:104B800033F83270C7F30907002F40F0ED8108EBCE
:104B9000050304EBC303D3F86C213A44C3F86C213A
:104BA000D3F864213A44C3F86421D3F8682122B1D0
:104BB000D3F86031BB4240F2BA81A84404EBC80884
:104BC000204698F8501106F0A3FD206859E70388A5
:104BD0009BB203EA0A0343F400430380B0F8503069
:104BE000227C10FA83F040F2024303EBC203626AB4
:104BF000C35AC3F30903E36213446362204606F019
:104C000091FD237B4BB3A36A3BBB227B206842F020
:104C10008002A0F84C20237322E7B0F8502094F8CB
:104C2000501140F2064310FA82F203EBC10304F57F
:104C30002671D35AB4F85621C3F30903C4F86C3172
:104C400003F0E2FC2268118840F68F730B4043F0BA
:104C500080031380204606F055FD206800E791F898
:104C60005331022B00F0158291F8502130F8223098
:104C700023F4E04323F070031B041B0C43F40043B4
:104C800043F0C00320F8223091F850311AB230F8C6
:104C9000222012F4804FB0F8502000F0528100F230
:104CA000024717FA82F232F83370C7F30907002F70
:104CB0003FF46DAFB1F85821D1F864113B4603F0D1
:104CC000A3FC64E72268B2F8443023F480631B0439
:104CD0001B0CA2F84430204606F032FD94F89032C6
:104CE000012B3FF4A4AE0123206884F89032257391
:104CF000294603F063FC84F89052BDE8F88F0288DF
:104D000040F68F73134043F080030380B0F85020C7
:104D100094F8501140F2064310FA82F203EBC103FB
:104D2000D35AC3F30903C4F86C3193B1D4F86411B6
:104D300079B1B4F8562103F067FCD4F86431D4F8A3
:104D40006C21134420462946C4F8643106F0E0FC87
:104D5000206803881D059AB23FF582AE02F44052E6
:104D6000B2F5405F3FF47CAEB0F85030D4F860113B
:104D70009BB200F206453E29EA5AC2F30902EA5202
:104D800040F2C481EA5A4E09C90608BF06F1FF364F
:104D900092B242EA86226FEA42426FEA524292B2ED
:104DA000EA52038823F4804323F070031B041B0C96
:104DB00083F4405343F4004343F0800303804FE601
:104DC0002268B2F8443023F400531B041B0CA2F8F1
:104DD0004430BDE8F88F6A1C02EB8202002144F8DF
:104DE00032101A7FCAB119F040095A7C40F0028192
:104DF000002A40F02A821A7CB0F8503000F20640B7
:104E000010FA83F303EBC2031A88C2F309021A8073
:104E10001A8892B242F400421A80454404EBC50558
:104E20002046297C06F07EFC206819E6AF62204609
:104E3000614606F077FC206812E6197CB0F8503025
:104E400006EB8606CA0019F0400704EBC60612FA04
:104E500083F300F0918000F2024CB76A33F80C3013
:104E6000C3F309039F420AB240F25D81FF1AB762A1
:104E7000002F00F05A8119F4804F0DD030F8221025
:104E800021F4E04121F070010904090C41F4404192
:104E900041F0800120F8221008EB050E04EBCE0E45
:104EA0009EF83410012940F09380DEF82410194454
:104EB000CEF82410F76A1F44F762DEF83070DEF88F
:104EC0002060B742C0F0B882BF1BCEF83070B3B2DA
:104ED00008EB050704EBC7077F7C002F40F0A28298
:104EE000B0F850701CFA87FC3E2E3CF83270C7F3C5
:104EF00009072CF8327040F2C2827709F6063CF8B6
:104F0000326008BF07F1FF37B6B246EA87266FEA7C
:104F100046466FEA5646B6B22CF8326008EB0502F8
:104F200004EBC202128B03F05FFB206850E02821E3
:104F300001FB0541206801F5A87102F0E1FF20683E
:104F40009FE500F2064717FA82F232F83370C7F392
:104F50000907002F3FF41BAEB1F85A21D1F86411B4
:104F60003B4603F051FB12E6B1F85621D1F864112B
:104F70003B4603F049FB0AE600F2064CD6F828E06F
:104F800033F80C30C3F309039E450AB2C0F0148114
:104F9000AEEB0307B762002F00F00F8119F4804FCA
:104FA0000DD130F8221021F4E04121F07001090404
:104FB000090C41F4404141F0800120F8221008EB37
:104FC000050E04EBCE0E9EF83410012900F0ED81A1
:104FD000454404EBC5052A7C30F822309BB203EA35
:104FE0000B0383F0300343F4004343F0800320F8C5
:104FF000223035E5002A40F037811A7CB0F8503075
:1050000000F20240FCE62268B2F8443023F080034C
:105010001B041B0CA2F8443094F8C832002B7ED13C
:10502000B2F840309BB243F00403A2F84030B2F82B
:1050300040309BB243F008030121A2F8403084F8CD
:10504000C812B2F85430C3F38D0303F03C03C4F824
:10505000CC322046BDE8F84F06F07ABC2268B2F8A0
:1050600040309BB243F00803A2F84030B2F844301D
:1050700023F400631B041B0CA2F84430B2F8403048
:105080009BB243F004032046A2F8403006F06AFBCE
:10509000CDE419F48042B0F8503000F0F38000F213
:1050A000024212FA83F391F850C1D1F8682133F823
:1050B0003C30C3F309039A421F46C0F06081D21A04
:1050C000C1F86821002A00F05D8119F0400F0FD06F
:1050D0000FFA8CFC30F82C2022F4E04222F070020F
:1050E0001204120C42F4004242F0C00220F82C20BC
:1050F0000BB91F464BE508EB050104EBC101B1F804
:105100005821D1F8641103F07FFA40E5002940F0FE
:10511000EF80EA5A92B242F40042EA5241E6204657
:1051200006F020FB83E40023B36208EB050304EBE5
:10513000C3035B7C002B40F0E780B0F850301CFAD2
:1051400083FC00F206463CF83230C3F309032CF826
:1051500032303CF832309BB243F400432CF832300A
:10516000B0F8503016FA83F333F83200C0F3090078
:1051700023F8320033F8320080B240F4004023F8C4
:105180003200204606F0CEFA19F4804F47D008EBE3
:10519000050304EBC30320681A7C30F8223023F4A3
:1051A000E04323F070031B041B0C43F4404343F023
:1051B000800320F822300BE7B76208EB050304EB0D
:1051C000C3035B7C002B40F0B280B0F8506000F26B
:1051D000024313FA86F333F83260C6F3090623F864
:1051E000326033F83260B6B246F4004623F83260DB
:1051F000B0F850301CFA83FC3CF83230C3F309039A
:105200002CF832303CF832309BB243F400432CF897
:105210003230204606F086FA19F4804FB7D0206865
:10522000D6E62268B2F8443023F400731B041B0C4A
:105230002046A2F8443006F07FFAFFF7F8BB84F866
:10524000C812204606F084FB72E4012A7FF4E5AD23
:105250001A7CB0F8503000F2064010FA83F303EBEA
:10526000C203A3F80090D8E5012A7FF4D6AD1A7CDA
:10527000B0F8503000F2024010FA83F303EBC2039F
:105280001980CAE500F2064717FA83F391F850C176
:10529000D1F868E133F83C30C3F309039E451F465B
:1052A00058D3AEEB0302C1F86821002A54D019F09C
:1052B000400F0FD10FFA8CFC30F82C2022F4E04282
:1052C00022F070021204120C42F4004242F0C002BA
:1052D00020F82C20002B3FF40CAF08EB050104EB69
:1052E000C101B1F85A21D1F8641103F08DF94EE4EF
:1052F000CA07EA5A4FEA510648BF013692B242EA5B
:10530000862292B2EA524CE5012B7FF43AAFB0F814
:1053100050301CFA83FC00262CF83260B0F8503074
:1053200000F2064717FA83F323F8326029E7012BCE
:105330007FF46FAFB0F8503000F2024616FA83F3F4
:10534000002623F83260B0F850301CFA83FC2CF8A9
:1053500032605EE7C1F868210FFA8CF130F8212045
:1053600022F4804222F070021204120C82F40052E5
:1053700042F4004242F0800220F8212097E7002208
:10538000C1F868210FFA8CF130F8212022F4804214
:1053900022F070021204120C82F4005242F4004215
:1053A00042F0800220F821208FE6DEF82410194414
:1053B000CEF82410F76A1F44F762DEF83070DEF88A
:1053C0002060B74246D3BF1BCEF83070B3B208EBB3
:1053D000050704EBC7077F7C9FBBB0F850701CFA31
:1053E00087FC3E2E3CF83270C7F309072CF8327068
:1053F0004ED97709F6063CF8326008BF07F1FF374F
:10540000B6B246EA87266FEA46466FEA5646B6B215
:105410002CF8326008EB050204EBC202528B03F059
:10542000E3F8FCE6012F7FF479ADB0F850601CFA88
:1054300086FC2CF8323071E58FB98EF834701E4638
:1054400046E5012FE6D1B0F850601CFA86FC2CF836
:105450003230DFE75FB98EF834701E46B7E70023BD
:105460008EF83430CEF830303E46BBB230E5002303
:10547000CEF830308EF834303E46BBB2A7E786B95E
:105480003CF83260B6B246F400462CF8326045E58E
:10549000A6B93CF83260B6B246F400462CF8326049
:1054A000B8E77708F6073CF8326048BF0137B6B274
:1054B00046EA8726B6B22CF832602FE57708F60761
:1054C0003CF8326048BF0137B6B246EA8726B6B22A
:1054D0002CF832609EE700BF0F8FFFFFBF8FFFFFEA
:1054E00090F89022012A0CD010B5044601220068E1
:1054F00084F89022217303F061F8002084F8900270
:1055000010BD0220704700BF01F0070C11F0800FA2
:105510004FF0280110B501FB0C0104461FD10CEB24
:105520008C0E00EBCE0E002001F5A8718EF8510113
:10553000022BCB7004BF00230B7181F800C00A61FD
:1055400094F89032012B14D0012384F89032206813
:1055500002F030FA002384F89032184610BD0CEBAC
:105560008C0004EBC0004FF0010E103180F811E008
:10557000DEE7022010BD00BF01F0070303EB83024A
:1055800011F0800F4FF0280110B500EBC202044665
:1055900001FB030113D101F5A871002082F851012C
:1055A0000B7094F89032012B11D00123206884F8FD
:1055B000903202F0C5FB002084F8900210BD10313B
:1055C000012050740B7094F89032012BEDD1022021
:1055D00010BD00BF01F0070101EB810C10B500EB1D
:1055E000CC0C0024CCF86421282202FB01028CF8A8
:1055F000501100688CF85141CCE95A3402F5A87179
:1056000002F07EFC204610BD01F0070101EB810194
:1056100000EBC101D1F86C01704700BF10B501F07B
:10562000070E0EEB8E0100EBC10C6146CCF8283062
:10563000CCF83030002401230068CCF8242010314D
:105640008CF83430CCF82C408CF811308CF810E009
:1056500002F056FC204610BD027901F007039A4281
:1056600032D30A0610B504461BD401EB8102282070
:1056700000FB014104EBC20201F5A871002082F891
:10568000510101228A700B7094F89032934219D024
:10569000206884F8902202F019FF002084F890021C
:1056A00010BD03EB8302282101FB030100EBC202C2
:1056B00010310120507401228A700B7094F89032DE
:1056C0009342E5D1022010BD0120704738B5027920
:1056D00001F00F039A422FD301F0070303EB83027B
:1056E00011F0800F4FF02801044600EBC20201FBCD
:1056F000030115D101F5A8710020002582F85101A0
:105700008D700B7094F89032012B13D00123206818
:1057100084F8903202F002FF84F89052284638BD97
:1057200010310120002550748D700B7094F8903268
:10573000012BEBD1022038BD012038BD11F0800FC4
:105740000BD001F0070101EB810100EBC10010302B
:105750005AB90273C3800020704701EB810100EB4E
:10576000C10000F5A870002AF3D001220273836003
:10577000002070470268002110B480F8C812B2F807
:10578000543001249BB22343C0F8D042A2F85430D5
:10579000B2F854305DF8044B9BB243F00203084664
:1057A000A2F85430704700BF10B43B4A70B9136878
:1057B00003F4C063B3F5806FD2F8803023D023F4B4
:1057C00080735DF8044BC2F880307047B0F5007FFD
:1057D00009D013685DF8044B23F4C06343F480637D
:1057E000002013607047136803F4C063B3F5806F43
:1057F000D2F880302FD043F4807300205DF8044B42
:10580000C2F88030704723F48073C2F8803011688A
:10581000224C234821F4C06141F4007111602368D7
:10582000322101FB03F35169A0FB03039B0C4805E4
:1058300003F1010306D500E023B15169490503F1E5
:10584000FF33F9D4144B5B695C0554BF002003207F
:105850005DF8044B704743F48073C2F880301168E0
:105860000E4C0F4821F4C06141F4007111602368AF
:10587000322101FB03F35169A0FB03039B0C480594
:1058800003F10103DED501E0002BDBD051694905AE
:1058900003F1FF33D6D5F7E7007000400400002085
:1058A00083DE1B43024A936843F48043936070474E
:1058B00000700040002800F000822DE9F0410368EC
:1058C000D90782B004462DD5AF498A68C96802F06D
:1058D0000C020C2A00F00681082A00F00881636897
:1058E000B3F5803F00F07781B3F5A02F00F0D881A9
:1058F000A54D2A6822F480322A602A6822F4802288
:105900002A60002B40F06C81FCF79EFF064605E004
:10591000FCF79AFF801B642800F27F812B689F03AD
:10592000F6D423689E0728D5974A9368D26803F077
:105930000C030C2B00F03081042B00F03281E36863
:10594000914D002B00F05A812B6843F480732B603B
:10595000FCF77AFF064605E0FCF776FF801B02287D
:1059600000F25B812B685805F6D56B68226923F03D
:10597000FE4343EA02636B6023681A0719D5636923
:10598000814D002B00F09980D5F8943043F001034D
:10599000C5F89430FCF758FF064605E0FCF754FFC5
:1059A000801B022800F23981D5F894309B07F5D589
:1059B00023685E0741D5744B9A6DD50000F13181A3
:1059C0009A6D42F080529A659B6D03F0805301936B
:1059D000019B01256D4E3368D80540F15081A368C5
:1059E000012B00F02081052B00F06981664ED6F86E
:1059F000902022F00102C6F89020D6F8902022F0E4
:105A00000402C6F89020002B40F01481FCF71CFF24
:105A100041F28838074605E0FCF716FFC01B4045F9
:105A200000F2FB80D6F890309B07F5D425B1564A9A
:105A3000936D23F08053936523689D0618D5A36961
:105A4000514D002B00F00781D5F8983043F0010349
:105A5000C5F89830FCF7F8FE064605E0FCF7F4FEC2
:105A6000801B022800F2D980D5F898309807F5D528
:105A7000E069002800F08380434DAB6803F00C031D
:105A80000C2B00F02A812B68022823F080732B60F6
:105A90003AD0FCF7D9FE044605E0FCF7D5FE001B22
:105AA000022800F2BA802B6813F00073F5D1E96880
:105AB000374A0A401846EA6062E0D5F8943023F08D
:105AC0000103C5F89430FCF7BFFE064605E0FCF77D
:105AD000BBFE801B022800F2A080D5F894309F07FF
