:020000040800F2
:1000000000000220451500080D100008151000081A
:10001000191000081D100008211000080000000041
:100020000000000000000000000000002510000893
:1000300029100008000000002D10000831100008F1
:1000400095150008951500089515000895150008E8
:1000500095150008951500089515000895150008D8
:1000600095150008951500089515000895150008C8
:1000700095150008951500089515000895150008B8
:10008000951500089515000835100008951500080D
:1000900051100008951500089515000895150008E1
:1000A0009515000895150008951500089515000888
:1000B0005D100008951500089515000895150008B5
:1000C0009515000895150008951500089515000868
:1000D0009515000895150008951500089515000858
:1000E0009515000895150008951500089515000848
:1000F0007110000895150008951500089515000861
:100100009515000895150008951500089515000827
:100110009515000895150008951500089515000817
:100120009515000895150008951500089515000807
:1001300095150008951500089515000895150008F7
:1001400095150008951500089515000895150008E7
:1001500095150008951500089515000895150008D7
:1001600095150008951500089515000895150008C7
:1001700095150008951500089515000895150008B7
:1001800095150008951500089515000895150008A7
:100190009515000800000000951500089515000849
:1001A0009515000895150008951500089515000887
:1001B0009515000895150008951500089515000877
:1001C0009515000895150008951500089515000867
:0801D0009515000895150008C3
:1001D80010B5054C237833B9044B13B10448AFF379
:1001E80000800123237010BD8C0600200000000051
:1001F8009898000808B5034B1BB103490348AFF3AF
:10020800008008BD000000009006002098980008B3
:1002180081F0004102E000BF83F0004330B54FEAAF
:1002280041044FEA430594EA050F08BF90EA020F1C
:100238001FBF54EA000C55EA020C7FEA645C7FEAAF
:10024800655C00F0E2804FEA5454D4EB5555B8BFD2
:100258006D420CDD2C4480EA020281EA030382EA43
:10026800000083EA010180EA020281EA0303362DD5
:1002780088BF30BD11F0004F4FEA01314FF4801CA8
:100288004CEA113102D0404261EB410113F0004FBA
:100298004FEA03334CEA133302D0524263EB430371
:1002A80094EA050F00F0A780A4F10104D5F1200E0F
:1002B8000DDB02FA0EFC22FA05F2801841F100016A
:1002C80003FA0EF2801843FA05F359410EE0A5F13E
:1002D80020050EF1200E012A03FA0EFC28BF4CF06F
:1002E800020C43FA05F3C01851EBE37101F0004525
:1002F80007D54FF0000EDCF1000C7EEB00006EEB32
:100308000101B1F5801F1BD3B1F5001F0CD34908BB
:100318005FEA30004FEA3C0C04F101044FEA445212
:1003280012F5800F80F09A80BCF1004F08BF5FEA99
:10033800500C50F1000041EB045141EA050130BD79
:100348005FEA4C0C404141EB0101013C28BFB1F58B
:10035800801FE9D291F0000F04BF01460020B1FAD6
:1003680081F308BF2033A3F10B03B3F120020CDAA9
:100378000C3208DD02F1140CC2F10C0201FA0CF087
:1003880021FA02F10CE002F11402D8BFC2F1200CEC
:1003980001FA02F120FA0CFCDCBF41EA0C019040A2
:1003A800E41AA2BF01EB0451294330BD6FEA0404EB
:1003B8001F3C1CDA0C340EDC04F11404C4F12002D6
:1003C80020FA04F001FA02F340EA030021FA04F3E8
:1003D80045EA030130BDC4F10C04C4F1200220FA3F
:1003E80002F001FA04F340EA0300294630BD21FA7D
:1003F80004F0294630BD94F0000F83F4801306BF43
:1004080081F480110134013D4EE77FEA645C18BF36
:100418007FEA655C29D094EA050F08BF90EA020FCD
:1004280005D054EA000C04BF1946104630BD91EAC5
:10043800030F1EBF0021002030BD5FEA545C05D1C8
:100448004000494128BF41F0004130BD14F5800407
:100458003CBF01F5801130BD01F0004545F0FE417B
:1004680041F470014FF0000030BD7FEA645C1ABFB0
:10047800194610467FEA655C1CBF0B46024650EAE7
:10048800013406BF52EA033591EA030F41F4002113
:1004980030BD00BF90F0000F04BF0021704730B599
:1004A8004FF4806404F132044FF000054FF000016E
:1004B80050E700BF90F0000F04BF0021704730B52F
:1004C8004FF4806404F1320410F0004548BF404204
:1004D8004FF000013EE700BF42004FEAE2014FEA59
:1004E80031014FEA02701FBF12F07F4393F07F4F34
:1004F80081F06051704732F07F4208BF704793F037
:100508007F4F04BF41F40021704730B54FF4607449
:1005180001F0004521F000411CE700BF50EA01024C
:1005280008BF704730B54FF000050AE050EA0102F5
:1005380008BF704730B511F0004502D5404261EB65
:1005480041014FF4806404F132045FEA915C3FF4A6
:10055800D8AE4FF003025FEADC0C18BF03325FEA43
:10056800DC0C18BF033202EBDC02C2F1200300FAF4
:1005780003FC20FA02F001FA03FE40EA0E0021FA19
:1005880002F11444BDE600BF4FEA4102B2F1E04374
:1005980024BFB3F5001CDCF1FE5C0DD901F0004C62
:1005A8004FEAC0024CEA5070B2F1004F40EB8300B2
:1005B80008BF20F00100704711F0804F21D113F1DE
:1005C8003872BCBF01F00040704741F480114FEA17
:1005D8005252C2F11802C2F1200C10FA0CF320FAA0
:1005E80002F018BF40F001004FEAC1234FEAD323BD
:1005F80003FA0CFC40EA0C0023FA02F34FEA430327
:10060800CCE77FEA625307D150EA01331EBF4FF0AF
:10061800FE4040F44000704701F0004040F0FE40CA
:1006280040F40000704700BF53B94AB9002908BF19
:1006380000281CBF4FF0FF314FF0FF3000F074B9B5
:10064800ADF1080C6DE904CE00F006F8DDF804E021
:10065800DDE9022304B070472DE9F047089D044600
:100668008E46002B4DD18A42944669D9B2FA82F25D
:1006780052B101FA02F3C2F1200120FA01F10CFA99
:1006880002FC41EA030E94404FEA1C48210CBEFBD1
:10069800F8F61FFA8CF708FB16E341EA034306FB5A
:1006A80007F199420AD91CEB030306F1FF3080F0E9
:1006B8001F81994240F21C81023E63445B1AA4B236
:1006C800B3FBF8F008FB103344EA034400FB07F7D8
:1006D800A7420AD91CEB040400F1FF3380F00A8119
:1006E800A74240F207816444023840EA0640E41B0E
:1006F80000261DB1D4400023C5E900433146BDE8BA
:10070800F0878B4209D9002D00F0EF800026C5E95B
:10071800000130463146BDE8F087B3FA83F6002E73
:100728004AD18B4202D3824200F2F980841A61EBEB
:10073800030301209E46002DE0D0C5E9004EDDE709
:1007480002B9FFDEB2FA82F2002A40F09280A1EBF1
:100758000C014FEA1C471FFA8CFE0126200CB1FB46
:10076800F7F307FB131140EA01410EFB03F088423F
:1007780008D91CEB010103F1FF3802D2884200F2CC
:10078800CB804346091AA4B2B1FBF7F007FB10115E
:1007980044EA01440EFB00FEA64508D91CEB0404FC
:1007A80000F1FF3102D2A64500F2BB800846A4EB57
:1007B8000E0440EA03409CE7C6F12007B34022FA42
:1007C80007FC4CEA030C20FA07F401FA06F31C4371
:1007D800F9404FEA1C4900FA06F3B1FBF9F8200C7E
:1007E8001FFA8CFE09FB181140EA014108FB0EF0C4
:1007F800884202FA06F20BD91CEB010108F1FF3A14
:1008080080F08880884240F28580A8F1020861441F
:10081800091AA4B2B1FBF9F009FB101144EA01412D
:1008280000FB0EFE8E4508D91CEB010100F1FF34D8
:100838006CD28E456AD90238614440EA0840A0FB70
:100848000294A1EB0E01A142C846A64656D353D046
:100858005DB1B3EB080261EB0E0101FA07F722FA6A
:1008680006F3F1401F43C5E9007100263146BDE893
:10087800F087C2F12003D8400CFA02FC21FA03F3F6
:10088800914001434FEA1C471FFA8CFEB3FBF7F077
:1008980007FB10360B0C43EA064300FB0EF69E429C
:1008A80004FA02F408D91CEB030300F1FF382FD235
:1008B8009E422DD9023863449B1B89B2B3FBF7F6DD
:1008C80007FB163341EA034106FB0EF38B4208D9B6
:1008D8001CEB010106F1FF3816D28B4214D9023EF7
:1008E8006144C91A46EA004638E72E46284605E715
:1008F8000646E3E61846F8E64B45A9D2B9EB0208E6
:1009080064EB0C0E0138A3E74646EAE7204694E775
:100918004046D1E7D0467BE7023B614432E73046A8
:1009280009E76444023842E7704700BF10B5002465
:1009380092B03C22214603A8CDE90044029408F075
:100948007FFD39484FF440324FF0A0410123C0E900
:10095800001284830422C0E90244C0E9044382618E
:10096800036280F8244080F83840C46380F840402F
:1009780000F068FE002843D100232B480093694605
:1009880001F02AFE00284BD12849274804220924CF
:100998000023CDE9031405929C2107920B924FF492
:1009A8008072CDE90D120893ADF830308DF83230F1
:1009B8008DF83C3003A97F23069301F0DFFA60BB72
:1009C8001B4A194840F20F1303A9CDE9032301F08C
:1009D800D5FAF8B9174A144840F2152303A9CDE906
:1009E800032301F0CBFA90B9134A0F4840F21B33A6
:1009F80003A9CDE9032301F0C1FA20B912B010BD53
:100A080000F088FAB8E700F085FA12B010BD00F0DF
:100A180081FAE9E700F07EFADCE700F07BFACFE73D
:100A280000F078FAB0E700BFAC06002002003004FE
:100A3800040060080800900C2000F01410B590B075
:100A48003C22002101A808F0FBFC354C3548002366
:100A58004FF440310122C0E9004183830421C0E9F9
:100A68000233C0E904328161026280F8243080F8E0
:100A78003830C36380F8403000F0E4FD00283FD1EF
:100A880029492848042209240023CDE901140592A4
:100A98009C2109924FF48072CDE90B120693ADF8B0
:100AA80028308DF82A308DF8343005227F2301A9AB
:100AB800CDE9032301F062FA78BB1C4A194840F2D9
:100AC8000F1301A9CDE9012301F058FA10BB184A08
:100AD800144840F2152301A9CDE9012301F04EFA8B
:100AE800A8B90423134C0F48039340F21B320DEBB3
:100AF8000301CDE9014201F041FA20B910B010BD5F
:100B080000F008FABCE700F005FA10B010BD00F0DC
:100B180001FAE6E700F0FEF9D9E700F0FBF9CCE7C7
:100B28000001005018070020400020198000501DC7
:100B3800000180210080F03E30B50446A1B00021BC
:100B480054220BA8CDE90611CDE908110A9108F045
:100B580077FC2368B3F1A04F04D0494A93424DD0A3
:100B680021B030BD4FF400424FF000530BA80B9258
:100B78001C9303F045FC00287CD1424A13680133DA
:100B8800012B136009D1404BDA6C42F40052DA644D
:100B9800DB6C03F400530093009B3B4BDA6C42F090
:100BA8000102DA64DA6C02F001020192019ADA6C4D
:100BB80042F00202DA64DB6C03F0020302934FF0A6
:100BC800904007230024032506A90693029A079557
:100BD800089401F065FF2D484FF4804306A9CDE93C
:100BE8000635089401F05CFF22462146122001F0E8
:100BF800B7FD122001F0F2FD21B030BD4FF40042E4
:100C08004FF000530BA80B921C9303F0F9FB00283C
:100C180033D11C4A13680133012B136009D11A4BD5
:100C2800DA6C42F40052DA64DB6C03F40053039389
:100C3800039B154B1648DA6C42F00402DA64DA6C4E
:100C480002F004020492049ADA6C42F00202DA64B6
:100C5800DB6C03F00203059300240723032506A990
:100C680006930795059B089401F01AFF07484FF46F
:100C78000043B3E700F04EF97FE700F04BF9C8E70F
:100C880000010050A806002000100240000400489F
:100C9800000800480F4810B500230F4C04600122DB
:100CA800022110240382C0E90133C0E90542C0E9EA
:100CB8000711C0E90922C0E90B22C0E90D33C3605E
:100CC8008374C36301F0B2FD00B910BDBDE81040E4
:100CD80000F020B9840700200068004030B50446C1
:100CE8009DB00021542207A8CDE90211CDE90411D5
:100CF800069108F0A5FB1B4B22689A4201D01DB053
:100D080030BD4FF480524FF0007307A80792159337
:100D180003F076FB10BB144B9A6D42F000729A6593
:100D28009A6D02F000720092009ADA6C42F00202A8
:100D3800DA64DB6C4FF4405003F0020301930024A3
:100D48000290022209230948019D02A9CDE9032442
:100D5800CDE9054301F0A4FE1DB030BD00F0DAF87E
:100D6800D9E700BF006800400010024000040048B6
:100D780070B500248AB0CDE90544CDE90744244B79
:100D88000994D96C234E41F02001D964D96C01F043
:100D9800200101910199D96C41F00401D964D96C01
:100DA80001F0040102910299D96C41F00101D96462
:100DB800D96C01F0010103910399D96C41F002014A
:100DC800D964DB6C03F002032246049310214FF030
:100DD8009040049B01F05CFF01223046182101F08D
:100DE80057FF012505A910234FF09040CDE905359F
:100DF800CDE9074401F054FE182305A93046CDE992
:100E08000535CDE9074401F04BFE0AB070BD00BFBF
:100E1800001002400004004810B594B038220021A8
:100E280006A808F00DFB0020CDE90100CDE903007C
:100E3800059002F08DFE212206924FF4803207922F
:100E48000122022303240C9206A85522CDE90D3471
:100E5800CDE90F32CDE91133139302F0FFFE08B14B
:100E680072B6FEE7042103460F220DEB0100CDE91F
:100E78000124CDE90333059303F074F908B172B680
:100E8800FEE703F0A5FA14B010BD00BF00B583B0AB
:100E9800012400F0A3FBFFF7BFFF642000F0C0FBB4
:100EA800FFF766FFFFF742FDFFF7C8FDFFF7F2FE09
:100EB80000F032F800F020F900F012FA00F0B6FA6B
:100EC80008F024F800F0E0F806F074FA06F04EFF97
:100ED80006F01CFA2346224621462046CDE9004466
:100EE80006F09AFA074804F027F8074804F024F8AF
:100EF80006483C2104F070F90548446103F0F4FC0D
:100F0800FEE700BF98080020E40800204C080020F5
:100F1800E807002072B6FEE710B51148114C4FF4EF
:100F280082720023C0E900424FF470614FF40072EE
:100F3800C0E902312824826107210822C0E904336C
:100F4800C0E90743C0E90933C0E90B13426303F062
:100F5800CBFC00B910BDBDE81040FFF7DBBF00BFF8
:100F6800E80700200030014010B5184A016888B031
:100F780000239142CDE90333CDE90533079301D02E
:100F880008B010BD03F1804303F50433E0201A6E66
:100F980042F480521A661A6E02F480520192019A43
:100FA800DA6C42F00102DA64DB6C039003F00103AF
:100FB80002930224052303A94FF09040029A049457
:100FC800079301F06DFD08B010BD00BF003001406F
:100FD8000B4B1A6E42F001021A661A6E82B002F0CA
:100FE80001020092009A9A6D42F080529A659B6DB8
:100FF80003F080530193019B02B002F027BE00BFAB
:101008000010024008B503F0EDF9FEE7FEE700BF67
:10101800FEE700BFFEE700BFFEE700BF704700BF66
:10102800704700BF704700BF00F0E8BA08B5044831
:1010380000F034FCBDE80840024800F02FBC00BFB7
:10104800AC06002018070020014801F091BE00BF3F
:101058007422002008B5034804F00EFABDE80840E1
:1010680009F0F4BA98080020014804F005BA00BF56
:10107800E4080020034AD2F8883043F47003C2F829
:101088008830704700ED00E000B58DB020220021C7
:1010980004A808F0D5F916481649016040F69F7172
:1010A800C160032100230122039103A9CDE9003384
:1010B800C0E90133C0E904330293836105920992C0
:1010C80004F09EFB58B90023094802936946CDE90C
:1010D800003304F085FD28B90DB05DF804FBFFF777
:1010E80019FFF0E7FFF716FF0DB05DF804FB00BF2E
:1010F8004C080020002C014000B51A4889B04FF078
:1011080080420023026044F26722CDE90433CDE92E
:101118000633CDE90133C0E90133C0E90323039362
:10112800836104F009FB90B94FF480530D48049390
:1011380004A904F0B3F890B900230A48019301A95F
:10114800039304F04DFD28B909B05DF804FBFFF7DF
:10115800E1FEE9E7FFF7DEFE09B05DF804FBFFF703
:10116800D9FEE9E79808002010B5194A016888B047
:1011780000239142CDE90333CDE90533079301D02C
:1011880008B010BD03F1804303F504334FF44070F9
:101198001A6E42F400621A661A6E02F40062019234
:1011A800019ADA6C42F00102DA64DB6C039003F016
:1011B800010302930224062303A94FF09040CDE9CE
:1011C8000643029A049401F06BFC08B010BD00BFFE
:1011D800002C014030B5036889B00024B3F1804F7A
:1011E800CDE90344CDE90544079401D009B030BDE9
:1011F80003F5043303A99A6D42F001029A659A6DCA
:1012080002F001020192019ADA6C42F00102DA64FA
:10121800DB6C03F0010302934FF400420223CDE993
:1012280003234FF0904001230793029D01F038FCFF
:10123800224621461C2001F093FA1C2001F0CEFA28
:1012480009B030BD0E4B02689A4200D0704703F5D2
:101258005C4300B5196E41F4005119661B6E83B0EA
:10126800002203F4005301932C201146019B01F046
:1012780077FA2C2003B05DF804EB01F0AFBA00BF99
:101288000034014030B5144A016887B00023914208
:10129800CDE90133CDE90333059301D007B030BD63
:1012A80003F1804303F504330224DA6C0B4842F05F
:1012B8000402DA64DB6C03F0040300934FF4EE5588
:1012C800042301A9CDE90154CDE90443009A01F0B2
:1012D800E7FB07B030BD00BF0034014000080048FC
:1012E80030B5002499B04F4D0194342221460BA803
:1012F800CDE90244CDE90544CDE90744CDE90944E7
:10130800049408F09DF8484A2023AB6041F29A0300
:10131800C5E90024C5E90334012280232846C5E92C
:10132800052304F03BFA002862D1702301934FF49F
:10133800001200233B4801A9CDE9022304F050FC28
:1013480000286BD10022602336480A9204A9CDE90F
:101358000432CDE90622CDE9082204F0FBFA002880
:1013680059D12A682F48936923F00803936104A987
:10137800042204F0EFFA00284AD12A682948936920
:1013880023F40063936104A9082204F0E3FA002817
:101398003BD12A682348D36923F00803D36104A901
:1013A80041F290030C22059304F0D4FA50BB29684B
:1013B8001C48CA6922F400620023CA614FF4005431
:1013C8004FF000720BA9CDE90B33CDE90D33CDE910
:1013D8000F34CDE91133CDE91332CDE91533179325
:1013E80004F05AFC38B90F48FFF74CFF19B030BD6C
:1013F800FFF790FD99E7FFF78DFD0A48FFF742FFD9
:1014080019B030BDFFF786FDD1E7FFF783FDC0E7D0
:10141800FFF780FDB1E7FFF77DFDA2E7FFF77AFD53
:1014280090E700BFE40800200034014010B51F48D1
:101438001F4C00234FF4E1310C22C0E90041C0E900
:101448000233C0E90432C0E90633C0E908338362D5
:1014580004F044FF70B91548002104F0B1FF88B9C1
:101468001248002104F0D6FFA0B9104804F08AFF02
:10147800B8B910BDFFF74EFD0C48002104F0A0FFDD
:101488000028EDD0FFF746FD0848002104F0C2FF10
:101498000028EAD0FFF73EFD044804F073FF002857
:1014A800E7D0BDE81040FFF735BD00BF3009002088
:1014B8000038014030B504469DB00021542207A8E9
:1014C800CDE90211CDE90411069107F0B9FF184BD7
:1014D80022689A4201D01DB030BD012307A80793A6
:1014E80002F08EFF08BB134B1A6E42F480421A6654
:1014F8001A6E02F480420092009ADA6C42F00402FA
:10150800DA64DB6C302003F00403019300240290BA
:10151800022207230848019D02A9CDE90324CDE949
:10152800054301F0BDFA1DB030BDFFF7F3FCDAE763
:101538000038014000100240000800480D48854668
:10154800FFF798FD0C480D490D4A002302E0D458D6
:10155800C4500433C4188C42F9D30A4A0A4C0023F5
:1015680001E013600432A242FBD307F045FFFFF706
:101578008DFCFEE700000220000000208C06002001
:1015880028B000088C06002074270020FEE7000021
:1015980038B50F4B1B680BB9012038BD0D494FF406
:1015A8007A720546B2FBF3F30868B0FBF3F001F07A
:1015B80023F904460028EFD10F2DEDD8024629461D
:1015C8004FF0FF3001F0CCF8034B20461D6038BDCA
:1015D80004000020000000200800002010B50320AF
:1015E80001F0ACF80F20FFF7D3FF10B1012420461B
:1015F80010BD0446FFF7ECFC204610BD034A044921
:10160800136809680B441360704700BFC4090020C1
:1016180004000020014B1868704700BFC40900206F
:1016280038B50446FFF7F6FF631C054602D0044BA5
:101638001B681C44FFF7EEFF431BA342FAD338BDD7
:101648000400002030B583B000230193002800F087
:10165800DD80C56D0446002D00F0C58022689368C2
:10166800980005D5936823F0204323F03F03936047
:101678009368D90019D47E4B7E481B6891689B09F2
:10168800A0FB030321F010419B0921F03F01013326
:101698005B0041F0805191600193019B2BB1019B4C
:1016A800013B0193019B002BF9D19368DB0000F10A
:1016B8008B80E36D43F01003E365236E0120034341
:1016C8002366936813F0040FE36D40F08580DD0610
:1016D80000F18280E36D23F4817343F00203E36534
:1016E8009368D90719D4B2F1A04F00F0AF80624BCC
:1016F8009A4200F0B480614903F5806389689B6869
:101708000B435F4989680B43DB0706D45D498B6847
:10171800656823F47C132B438B60E568E36B94F8CE
:1017280024102B43A5682B43657F012943EA4533E1
:1017380043EA014365D0E16A21B1256B01F4787170
:1017480029430B43D568504929400B43D36013699B
:10175800616B23F040630B43136193681D0724D426
:10176800D16894F83830257F21F480415B0021F05E
:10177800020143EA85330B432169D36013690029C9
:1017880047D043F480331361D2F8C03023F47F5339
:1017980023F03F030B43C2F8C03094F84030012BCC
:1017A80043D0136923F0010313616369012B20D02F
:1017B800136B23F00F031363E36D23F0030343F06C
:1017C8000103E36503B030BD936813F0040F4FF0D5
:1017D8000000E36D3FF47BAFE36D012043F010039D
:1017E800E36503B030BDFFF7A7F9256684F85850C4
:1017F80034E7116B236A21F00F01013B0B4313639C
:10180800DAE7A16A013943EA414394E7012003B0CA
:1018180030BD23F480331361D2F8C03023F47F53F2
:1018280023F03F03C2F8C030B7E71169636CA56CB9
:1018380021F4FF6121F004012B430B43E16C0B43BE
:10184800216D0B4343F001031361AEE70A49936826
:1018580089680B43D9073FF560AF0C4957E74FF04C
:10186800A0439B6891680B43DB073FF556AFF4E74D
:1018780000000020632D3E050001005000040050C8
:1018880000060050000700500740F0FF000300501A
:10189800704700BF704700BF704700BFF8B50368C6
:1018A800B3F1A04F1E685F68044600F0D2809448E8
:1018B800944A9549834218BF0A469568B10705F0CE
:1018C8001F0502D5BA0700F1B680700740F186807F
:1018D800790740F18380E26DD10603D4E26D42F4CA
:1018E8000072E265DA6812F4406F21D1844A9342AB
:1018F80000F0EC8002F58062934200F01881DA680B
:10190800900415D41A68110712D59A68520700F185
:1019180005815A6822F00C025A60E36D23F4807343
:10192800E365E36DDB0403D4E36D43F00103E36592
:101938002046FFF7ADFF23680C221A60B00654D585
:10194800B90652D5E26DD10603D4E26D42F40052D5
:10195800E2656B49DA6CD8688B4202F4C07200F019
:10196800BB8001F580618B4200F0C280D968D2B992
:101978008A0100F1A3801A68500614D5890212D48E
:101988009A68120700F1D7805A6822F060025A60FC
:10199800E36D23F48053E365E36DD80503D4E36D69
:1019A80043F00103E365204605F074FF23686022D5
:1019B8001A60310601D53A0659D4F00501D5F90562
:1019C80060D4B20501D5B80545D4F10601D5FA06AB
:1019D80010D4710501D57A0560D4F8BD3207ADD5AC
:1019E80038073FF578AFB006AAD47206E1D5780675
:1019F800DFD5A7E7E26B7AB1002D7CD0B3F1A04F19
:101A080000F097803E48404A3E49834208BF0A4654
:101A1800926812F4604F0BD0E36D43F48063E36582
:101A2800236E43F0020323662046FFF735FF236841
:101A380010221A60CDE7E36DDB0603D4E36D43F4AF
:101A48000063E365204600F097FA236802221A60D3
:101A58003BE72C4A31E7E36D43F48023E3652046F6
:101A680000F088FA23684FF400721A60ADE7E36D5E
:101A780043F48033E3652046FFF70CFF2368802298
:101A88001A609AE7E36D43F40033E365204600F0FB
:101A98006FFA23684FF480721A6092E7E26D42F49D
:101AA8008042E265226E4FF4806142F008022266AD
:101AB80020461960BDE8F84000F058BA00F44060CC
:101AC80001F4005202437FF46EAF54E74FF0A04197
:101AD800092D1DD9CA6813E74FF0A04C002D3FF41B
:101AE80045AFA91F01297FF641AFDCF80C103EE78E
:101AF800DFF818C0F2E7DA68D00799D58CE700BF9D
:101B0800000100500003005000070050000400507E
:101B180040F22122EA40D207DCD5F0E6E36D43F03B
:101B28001003E365236E43F00103236600E70649CB
:101B3800CEE7064A6CE7E36D43F01003E365236ED6
:101B480043F0010323662EE7000400500003005011
:101B580070B582B00022036801929A68D20734D423
:101B680099682C4A1142044632D19A6822F0004200
:101B780022F03F0242F00102B3F1A04F9A6047D031
:101B88002548264A2649834218BF0A4693681B02FD
:101B980028D4FFF73FFD23681A68D607054614D4F2
:101BA800204E9A68D00704D49A68324042F0010265
:101BB8009A60FFF72FFD431B022B236802D91A688E
:101BC800D10705D51A68D207EBD5002002B070BD41
:101BD800E36D43F01003E365236E0120034323669E
:101BE80002B070BD104B114A1B689B09A2FB03236E
:101BF8009B09013303EB43039B000193019B002BDB
:101C0800C7D0019B013B0193019B002BF9D1C0E791
:101C1800024ABBE73F00008000010050000300506B
:101C280000070050C0FFFF7F00000020632D3E0525
:101C380038B503689A68950702D59B68002038BDB7
:101C48009A68D4072BD59A6802F00D02012A044637
:101C580008D0E36D43F01003E365236E01200343CE
:101C6800236638BD9A6822F0004222F03F02032121
:101C780042F002029A601960FFF7CCFC23689B6867
:101C8800D90705460BD5FFF7C5FC401B022823687A
:101C980002D99A68D207DCD49B68DB07F3D400200A
:101CA80038BD00BF70B590F8582082B00023012AD3
:101CB800019340D0012380F8583004460D46FFF7C1
:101CC800B7FFF0B9E26D266822F4885222F00202CA
:101CD80042F00202E265B368184A23F0404305F077
:101CE800804123F03F030B4343F00043B360B368E4
:101CF800002B0FDBE36D23F0030343F00103E365DF
:101D080003E0E36D43F01003E365002384F85830E3
:101D180002B070BD019B01330193019B9342E6D948
:101D2800E36D23F01203002243F01003E36584F807
:101D380058200120ECE7022002B070BD01DE04004B
:101D480038B50368B3F1A04F044651D03848394A32
:101D58003949834218BF0A4695689A6811073DD4E5
:101D6800DA68DB6C13F4C07F3AD094F85830012B52
:101D780034D0012384F858302046FFF7E9FE0028C4
:101D880038D1E36DDA0549BF236E206623F00803D6
:101D98002366E36D226823F4405323F0010343F4E0
:101DA8008053E365224B9A4228D003F580639A4218
:101DB80024D0E36D23F48013E365602100231160D0
:101DC80084F85830D3689B0107D4936823F0004304
:101DD80023F03F0343F00803936038BD022038BD69
:101DE800002AC2DBE36D43F020030120E36538BD20
:101DF800104AB1E7002384F8583038BD15F01F05A4
:101E08000DD06023063D1360012D4FF0000384F8C8
:101E18005830D7D9E36D43F48013E36538BDE36DDB
:101E280023F48013E3656023136084F85850C9E7EE
:101E380000010050000300500007005038B5036847
:101E4800B3F1A04F044669D04448454A4549834206
:101E580008BF0A4695689A68100755D4DA68DB6C9B
:101E680013F4C07F52D094F85830012B4CD0012382
:101E780084F858302046FFF76BFE002850D1E36DF8
:101E8800D90549BF236E206623F008032366E26D57
:101E9800236822F4405222F0010242F48052E265A3
:101EA8002E4A934205F01F054ED002F580629342F8
:101EB8004FD01946E26D22F48012E26560221A6062
:101EC800002284F85820DA68920203D55A6842F44E
:101ED80080625A60A269082A5A682DD022F040020E
:101EE8005A605A6842F020025A608B4200D0DDB92D
:101EF800DA68920107D49A6822F0004222F03F0281
:101F080042F008029A6038BD022038BD002AAADBD8
:101F1800E36D43F020030120E36538BD114A99E7DA
:101F2800002384F8583038BD063D012DE0D9E36D13
:101F380043F48013E36538BD22F020025A605A68E2
:101F480042F040025A60D0E74FF0A041002DB5D1D1
:101F5800B0E70549002DB1D1ACE700BF0001005042
:101F6800000700500003005000040050704700BFF5
:101F7800704700BF704700BF704700BF2DE9F041B0
:101F880090F8583082B00022012B0192426900F08B
:101F98009981012380F85830E2B10B6A012B19D0DE
:101FA800846E002C40F036818A6A002A00F065822F
:101FB8005D1ECC6A02F07C032B432343D1E9002445
:101FC800856604F01F05C2F38464AC401C43446674
:101FD800036805E04B68092B00F008810A6803686C
:101FE8009C68270710D491F82540002C40F0F58014
:101FF80091F82440DD6891F82660240525F4401501
:1020080044EA46542C43DC609C6814F0040474D001
:102018009C6800249D68EE0714D4CF68AE4DD3F8B1
:10202800B06007F0180C25FA0CF5C2F3120E154033
:1020380026EA0E0C45EA0C05C3F8B050A74DAF428E
:1020480000F00D81A6490A4229D0B3F1A04F00F053
:102058003781A44EA449A54DB34218BF2946A44DC3
:102068008968AA4201F0E07620D0A24DAA421DD08C
:10207800A14DAA4240F04C81CD0110D4B3F1A04F3C
:1020880000F05382974D984A9849AB4218BF0A46C8
:10209800936823F0E073334343F080739360002325
:1020A80080F85830204602B0BDE8F0810A02F6D424
:1020B800B3F1A04F00F03B82904A9342EFD18B4995
:1020C8008A688F4B22F0E072324342F400021B68A8
:1020D8008A608C4A9B09A2FB03239B0903EB4303F9
:1020E8009B0018330193019B002BD8D0019B013B27
:1020F8000193019B002BF9D1D1E79D6815F00805E4
:1021080088D18C6A002C40F09B8091F82540012CE6
:10211800DC680CBF44F0007424F00074DC60002418
:1021280091F83060012E1E6900F0658126F00206E4
:102138001E618E68B6F1004F00F049814FEAD25C0B
:102148000CF0040C03F11407C2F304524FF0070E0D
:1021580096400EFA02FE5CF8072022EA0E021643A9
:102168004CF807605A6922F000425A61D1F810C051
:10217800DE68BCF1040F00F0E58003F16002C6F3ED
:10218800C10652F82C800F684FEA460E5E4E07F0E3
:10219800F84708EA060637434E6906FA0EF63E4344
:1021A80046F0004642F82C60D1F810C08F6952F80A
:1021B8002C6026F080763E4342F82C600E7F0F6933
:1021C800012E52F8276008BF4FF0007526F0007600
:1021D800354342F827500A681CE7DC6891F8265016
:1021E80024F4401444EA4554DC600DE78B6A0A681D
:1021F800002B6CD0CC6A03F07C03550C05F47855A1
:1022080023431D430368414EDC6C34402C43DC649B
:102218004566E5E60A684B68C2F3846503F01F0368
:102228009D40436E013C1D43846603684566002C4F
:102238007FF4D6AEDC6C354E34402543DD64CFE602
:10224800CC6A002C3FF461AF91F82540012C00F0D6
:102258006781DC6824F00074DC602C4660E7BEF11E
:10226800000F40F0D380920E551C05F01F0CBCF1F6
:10227800090F40F205810CEB4C02AD061E3A01260F
:1022880005F0F845120506FA0CFC42F0007245EA22
:102298000C052A43D70D8D6807F0040703F11406CF
:1022A800C2F3045205FA02FC4FF0070EBD590EFAAC
:1022B80002F225EA020242EA0C02BA510A68C1E6B1
:1022C8000949CCE60224204602B0BDE8F081550C4D
:1022D80005F4785596E700BFFFFF070000007F4030
:1022E8000000088000010050000300500007005063
:1022F800000021C31000C090000052C70006005023
:1023080000000020632D3E0500F0FF03004010048C
:10231800AC4DAA427FF4C3AE49023FF5C0AEAA4A0B
:1023280093423FF4BCAEA94902F50072B3F1A04F45
:1023380018BF0A46936823F0E073334343F48003DD
:102348009360ACE61A6E0A681D6EC2F31206C5F3F6
:102358008465002E00F0A08092FAA2F626B1B6FAA3
:1023680086F6B54200F0E5805D6E5E6E03F16005AD
:10237800C6F3846603F1640C92FAA2F727B1B7FAA0
:1023880087F7BE4200F0EA80AE68AE6805F1080C37
:10239800C6F3846692FAA2F727B1B7FA87F7BE4266
:1023A80000F0EF80EE68EE680C35C6F3846692FAAA
:1023B800A2F7002F3FF42EAEB7FA87F7B7427FF4A3
:1023C80029AE2A6822F000422A600A6822E6D70D60
:1023D80007F0040703F11406C2F304524FF0070C88
:1023E8000CFA02FCBA5922EA0C02BA515A6942F0B4
:1023F80000425A61BAE626F4FF7CD1E90D673E43F4
:1024080046EA0C0646F002061E6192E692FAA2F52A
:10241800002D61D0B5FA85F5013505F01F05092DA8
:102428005AD992FAA2F5002D00F0C980B5FA85F5BF
:102438000135AD0605F0F84592FAA2F6002E00F037
:10244800BC80B6FA86F6013606F01F06012707FAA1
:1024580006F6354392FAA2F2002A00F0AC80B2FAEE
:1024680082F2013202F01F066FF01D07032212FBF1
:102478000672120542F000720BE7013B1D469DE50E
:10248800AE06012202FA0CF206F0F84616430CEBEF
:102498004C0212053243FDE6C2F38467BD4248D0C0
:1024A8005D6E5E6E03F16005C6F3846603F1640C2D
:1024B800BE4253D0AE68AE6805F1080CC6F3846618
:1024C800C2F38467B7425CD0EE68EE680C35C6F399
:1024D8008466C2F3846771E792FAA2F6002E64D08C
:1024E800B6FA86F60136B60606F0F84692FAA2F56E
:1024F800002D58D0B5FA85F5013505F01F050127DF
:1025080007FA05F52E4392FAA2F2002A50D0B2FA41
:1025180082F5013505F01F0505EB45052A05B9E7E4
:10252800C66D46F02006C665FAE5294AB0E5284991
:10253800C6E51A6E1D4622F0004245F8602F5A6E15
:102548000A685E6EC2F31207C6F3846603F1640C70
:10255800002F7FF411AFC2F38467A9E7DCF80020ED
:1025680022F00042CCF80020AA680A68AE68C2F3DC
:102578001207C6F3846605F1080C002F7FF40AAF32
:102588009EE7DCF8002022F00042CCF80020EA6840
:102598000A68EE68C2F312070C35C6F38466002F8A
:1025A8007FF405AF95E70225ACE74FF080669DE71D
:1025B8004FF440126EE7074A6BE6022649E74FF0F0
:1025C800806539E7000084CB000100500007005007
:1025D80000030050000050FE70B490F858300E68A8
:1025E800012B9DB057D0026800240123B2F1A04FFF
:1025F800189480F8583019940CD04A4DAA4248D003
:10260800C26D80F8584042F02002C26518461DB0DD
:1026180070BC7047444B9B685B070CD59368C26DD0
:1026280042F020020123C265002280F85820184693
:102638001DB070BC704793685C07F0D4B2F1A04F2E
:102648002ED0394B9A422BD0002E59D0374A4C689D
:10265800936823F46043234390F8384043EA4433B3
:102668009360304B9C6803F580739B682343304C20
:10267800A4682343DB4303F0010343B194688B68E8
:1026880024F471611E4321F00F010E43966000236C
:10269800CAE7284BBFE7022318461DB070BC704735
:1026A800AEB1254A4C68936823F46043234390F8FD
:1026B800384043EA443393601B4B4FF0A042926882
:1026C8009B681343DB431C4A03F00103D5E71A4A0E
:1026D800936823F4604393604FF0A041124B8968DC
:1026E8009B68154A0B43DB4303F00103002BCED054
:1026F800916821F4716121F00F010023916093E743
:102708000A4A084993680B4C23F46043936089682C
:10271800A3680B43064989680B43DB4303F00103B5
:10272800E4E700BF0004005000010050000700501B
:102738000006005000050050000300500749CA6811
:1027480003024FF6FF0003F4E0630240134343F033
:10275800BF6343F40033CB60704700BF00ED00E077
:102768001C4BDB68C3F3022300B5C3F1070EBEF1AF
:10277800040F03F1040C28BF4FF0040EBCF1060F40
:102788001BD9033B4FF0FF3C0CFA03FC22EA0C0276
:102798004FF0FF3C0CFA0EFC21EA0C01994000288E
:1027A80041EA02010CDB00F16040090100F56140DB
:1027B800C9B280F800135DF804FB00221346E7E76E
:1027C800054B00F00F0009010344C9B219765DF802
:1027D80004FB00BF00ED00E0FCEC00E0002808DB93
:1027E800044A4109012300F01F0003FA00F042F8EF
:1027F8002100704700E100E00138B0F1807F10D27D
:1028080010B44FF0E023084C58614FF0F00C84F8F6
:1028180023C00022072110469A615DF8044B196114
:1028280070470120704700BF00ED00E0002800F06D
:1028380009812DE9F84390F85C30044603F0FF0263
:10284800002B73D02268936923F010039361FEF77D
:10285800E1FE054604E0FEF7DDFE431B0A2B5BD8CC
:1028680023689A691207F6D49A6942F001029A61BC
:10287800FEF7D0FE054604E0FEF7CCFE401B0A2812
:102888004AD822689369DB07F6D59369764943F0FD
:1028980002038A42936100F0D080237C012B936964
:1028A8000CBF23F0400343F040039361637C012B8A
:1028B80093690CBF43F4804323F480439361A37C62
:1028C800012B93690CBF23F4805343F48053936125
:1028D8009369A068E16823F44073034393619369A3
:1028E80023F0A40393611369012923F010031361F2
:1028F80021D021B30229936900F0B18043F080030D
:1029080093611369032943F01003136117D1936985
:1029180043F02003936112E0236E032243F0010386
:10292800236684F85C200120BDE8F88380F85D20E8
:10293800FEF7D4F986E7936943F004039361D4E979
:102948000613013B01391B0243EA4163216A01393D
:102958000B436169013943EA0143B0F5407FD36114
:102968000ED1D4E90B03A16A013B01381B010139DF
:1029780043EA00230B43616A013943EA0143D36008
:10298800D2F8C030E06B394903438A42C2F8C030FC
:102998005AD0374B374E384F384D394801F580619A
:1029A8008A4218BF9946A3F1180318BF1E46A3F11F
:1029B800D80318BF1F4601F57D51A3F1D80301F1D3
:1029C800100118BF9C46A3F140030CBF8C469846E3
:1029D800A1F1400103F5387304BF8846A94601F503
:1029E800387118BF1946A3F5547308BF0346D2F8C7
:1029F8008000236420F4F81E606BA56B4EEA00404B
:102A0800C2F88000D2F88000C4F8448020F07060DA
:102A180040EA0560C2F88000C4E912C7C4E9146935
:102A2800002243F8042B8B42FBD30123226684F84F
:102A38005C30A2650020BDE8F883124B6168C3F8DA
:102A480000152AE701207047DFF848900E4E0F4F17
:102A5800DFF844C0DFF8448009490D4BC7E743F06D
:102A6800200393616BE700BF0064004000680040EA
:102A780078A6004000AD004028AC004018AD0040EA
:102A8800A0AA004000600040B0A90040D8A80040BB
:102A980050A70040C8A9004000A80040C0A70040B7
:102AA8002DE9F04F0C6885B0002C00F083804FF0C2
:102AB800000CDFF8D8A163464FF0010B89460BFAEA
:102AC80003F515EA04086FD0D9F8047007F003027B
:102AD800511E012971D9032A40F0B08002FA0CF284
:102AE800D143056829400A4317F4403F02605BD090
:102AF800DAF8602042F00102CAF86020DAF86020B3
:102B080002F001020392039A23F0030202F18042C9
:102B180002F5803203F003059168AD000F2606FA2E
:102B280005FEB0F1904F21EA0E0119D0514EB04286
:102B380000F08F80504EB04200F08F804F4EB04270
:102B480000F081804E4EB04200F08D804D4EB04274
:102B58000CBF4FF0050E4FF0060E0EFA05F529438F
:102B68009160494A484992686FEA0805FE0254BFD5
:102B78002A4048EA02028A60CA68B902424954BF38
:102B88002A4048EA0202CA6049683F4ABE0354BF65
:102B9800294048EA010151601268F9033A4954BFD3
:102BA8002A4048EA02020A60013334FA03F20CF1BF
:102BB800020C84D105B0BDE8F08F8168D9F80C60AB
:102BC8004FF0030E0EFA0CFE21EA0E0106FA0CF67F
:102BD800314381606FEA0E01D0F804E02EEA050E59
:102BE800C7F300159D4045EA0E054560C56805EA2E
:102BF800010ED9F8085005FA0CF545EA0E05022A27
:102C0800C56002FA0CF27FF46CAFDD0800EB8505B5
:102C180001952E6AD9F81050009603F0070E4FEA76
:102C28008E0E0F2605FA0EF506FA0EFE009E26EA0F
:102C38000E0E019E45EA0E05356252E7032101FAA0
:102C48000CF1C943D2E74FF0030E0EFA05F52943FC
:102C580086E70BFA05F5294382E74FF0020E0EFAD4
:102C680005F529437CE74FF0040E0EFA05F52943D4
:102C780076E700BF0004004800080048000C004840
:102C880000100048001400480004014000100240F1
:102C98000AB1816170478162704700BF002849D03E
:102CA80070B590F89132064603F0FF02002B3CD035
:102CB8000323306886F8913203F0E0FB35791DB3C1
:102CC8000021334632464FF0010C0C461174013195
:102CD800C8B28542C2E9084482F811C0D47442F8E7
:102CE800284FF3D800210A4683F850110131CCB29D
:102CF800A542C3E9582283F8512183F85321C3F828
:102D0800682103F12803EFD83346002453F8040B55
:102D180093E8060003F0BCFBB37A347301229342B4
:102D280086F8912208D0204670BD80F8902206F0DF
:102D3800D9F9BDE701207047304600F0EFFE204684
:102D480070BD00BF90F89032012B0ED010B504462C
:102D58000123006884F8903203F086FB206804F0B1
:102D6800B5F9002084F8900210BD0220704700BF1A
:102D78002DE9F84F0446006804F0B4F910F4004552
:102D88002BD1430500F1728147041BD410F4005184
:102D980040F0EA81C60400F18980050500F132831C
:102DA800010600F10483820500F10F84C30512D5E2
:102DB8002268B2F8443023F480731B041B0CA2F879
:102DC800443008E02268B2F8443023F480431B04FE
:102DD8001B0CA2F84430BDE8F88F2068B0F84430E6
:102DE8001F04F8D5DFF898AADFF898BA10E011F0B8
:102DF800100100F0C080018811F400658BB240F02A
:102E0800E0801E0400F14F81B0F844301A04E2D586
:102E1800B0F84450A9B215F00F05E8D02EB230F83A
:102E280026301F041FFA83F963D419F0800FEBD002
:102E380030F826309BB203EA0A0343F4004320F833
:102E4800263005EB850304EBC3034FEA8508DA7CDB
:102E5800012A00F0948119F4807740F0C281B0F81B
:102E6800502093F810C000F2024106EB860611FAD2
:102E780082F204EBC60532F83C20A96AC2F30902C3
:102E880091424FEAC60640F2A581891AA962002933
:102E980000F0A1811036A1195E6A16445E62EB6AE1
:102EA8001344EB6203F0AEFD2068ADE72268B2F888
:102EB800403023F004031B041B0CA2F84030B2F886
:102EC800403023F008031B041B0CA2F8403094F890
:102ED800C832012B00F08783204606F073F9226878
:102EE800B2F8443023F480531B041B0CA2F844307E
:102EF80071E730F8262040F68F73134043F08003C3
:102F080005EB850120F8263004EBC1014FEA85085E
:102F180091F85C31002B76D1B0F8503000F20642BF
:102F280012FA83F391F8502133F83270C7F3090786
:102F3800002F40F0ED8108EB050304EBC303D3F841
:102F48006C213A44C3F86C21D3F864213A44C3F89D
:102F58006421D3F8682122B1D3F86031BB4240F232
:102F6800BA81A84404EBC808204698F8501106F026
:102F7800EFF8206859E703889BB203EA0A0343F491
:102F880000430380B0F85030227C10FA83F040F2FE
:102F9800024303EBC203626AC35AC3F30903E36241
:102FA80013446362204606F0DDF8237B4BB3A36A23
:102FB8003BBB227B206842F08002A0F84C202373A0
:102FC80022E7B0F8502094F8501140F2064310FA66
:102FD80082F203EBC10304F52671D35AB4F85621E3
:102FE800C3F30903C4F86C3104F090F8226811881F
:102FF80040F68F730B4043F080031380204606F0A1
:10300800A1F8206800E791F85331022B00F01582EF
:1030180091F8502130F8223023F4E04323F0700374
:103028001B041B0C43F4004343F0C00320F8223078
:1030380091F850311AB230F8222012F4804FB0F8CB
:10304800502000F0528100F2024717FA82F232F85B
:103058003370C7F30907002F3FF46DAFB1F858215B
:10306800D1F864113B4604F051F864E72268B2F8DD
:10307800443023F480631B041B0CA2F84430204620
:1030880006F07EF894F89032012B3FF4A4AE0123A9
:10309800206884F890322573294604F011F884F8E2
:1030A8009052BDE8F88F028840F68F73134043F0C2
:1030B80080030380B0F8502094F8501140F2064382
:1030C80010FA82F203EBC103D35AC3F30903C4F81D
:1030D8006C3193B1D4F8641179B1B4F8562104F085
:1030E80015F8D4F86431D4F86C21134420462946E5
:1030F800C4F8643106F02CF8206803881D059AB2DC
:103108003FF582AE02F44052B2F5405F3FF47CAE28
:10311800B0F85030D4F860119BB200F206453E2951
:10312800EA5AC2F30902EA5240F2C481EA5A4E0945
:10313800C90608BF06F1FF3692B242EA86226FEA54
:1031480042426FEA524292B2EA52038823F4804321
:1031580023F070031B041B0C83F4405343F4004317
:1031680043F0800303804FE62268B2F8443023F42A
:1031780000531B041B0CA2F84430BDE8F88F6A1CEE
:1031880002EB8202002144F832101A7FCAB119F00A
:1031980040095A7C40F00281002A40F02A821A7CB9
:1031A800B0F8503000F2064010FA83F303EBC20384
:1031B8001A88C2F309021A801A8892B242F40042AD
:1031C8001A80454404EBC5052046297C05F0CAFF52
:1031D800206819E6AF622046614605F0C3FF206803
:1031E80012E6197CB0F8503006EB8606CA0019F0D2
:1031F800400704EBC60612FA83F300F0918000F250
:10320800024CB76A33F80C30C3F309039F420AB281
:1032180040F25D81FF1AB762002F00F05A8119F45D
:10322800804F0DD030F8221021F4E04121F07001D8
:103238000904090C41F4404141F0800120F82210B2
:1032480008EB050E04EBCE0E9EF83410012940F071
:103258009380DEF824101944CEF82410F76A1F442E
:10326800F762DEF83070DEF82060B742C0F0B8824E
:10327800BF1BCEF83070B3B208EB050704EBC707E5
:103288007F7C002F40F0A282B0F850701CFA87FCB7
:103298003E2E3CF83270C7F309072CF8327040F222
:1032A800C2827709F6063CF8326008BF07F1FF379B
:1032B800B6B246EA87266FEA46466FEA5646B6B27F
:1032C8002CF8326008EB050204EBC202128B03F003
:1032D8000DFF206850E0282101FB0541206801F519
:1032E800A87103F08FFB20689FE500F2064717FAE4
:1032F80082F232F83370C7F30907002F3FF41BAE90
:10330800B1F85A21D1F864113B4603F0FFFE12E6EA
:10331800B1F85621D1F864113B4603F0F7FE0AE6EE
:1033280000F2064CD6F828E033F80C30C3F3090352
:103338009E450AB2C0F01481AEEB0307B762002FB6
:1033480000F00F8119F4804F0DD130F8221021F4CC
:10335800E04121F070010904090C41F4404141F0B9
:10336800800120F8221008EB050E04EBCE0E9EF823
:103378003410012900F0ED81454404EBC5052A7C91
:1033880030F822309BB203EA0B0383F0300343F496
:10339800004343F0800320F8223035E5002A40F04E
:1033A80037811A7CB0F8503000F20240FCE62268FF
:1033B800B2F8443023F080031B041B0CA2F84430FD
:1033C80094F8C832002B7ED1B2F840309BB243F05B
:1033D8000403A2F84030B2F840309BB243F008032F
:1033E8000121A2F8403084F8C812B2F85430C3F36F
:1033F8008D0303F03C03C4F8CC322046BDE8F84FF7
:1034080005F0C6BF2268B2F840309BB243F008030B
:10341800A2F84030B2F8443023F400631B041B0CBC
:10342800A2F84430B2F840309BB243F0040320467F
:10343800A2F8403005F0B6FECDE419F48042B0F8A9
:10344800503000F0F38000F2024212FA83F391F850
:1034580050C1D1F8682133F83C30C3F309039A42CC
:103468001F46C0F06081D21AC1F86821002A00F016
:103478005D8119F0400F0FD00FFA8CFC30F82C202A
:1034880022F4E04222F070021204120C42F40042CC
:1034980042F0C00220F82C200BB91F464BE508EB80
:1034A800050104EBC101B1F85821D1F8641103F00A
:1034B8002DFE40E5002940F0EF80EA5A92B242F42E
:1034C8000042EA5241E6204605F06CFE83E4002300
:1034D800B36208EB050304EBC3035B7C002B40F0ED
:1034E800E780B0F850301CFA83FC00F206463CF83E
:1034F8003230C3F309032CF832303CF832309BB237
:1035080043F400432CF83230B0F8503016FA83F305
:1035180033F83200C0F3090023F8320033F83200E0
:1035280080B240F4004023F83200204605F01AFE2D
:1035380019F4804F47D008EB050304EBC303206858
:103548001A7C30F8223023F4E04323F070031B0484
:103558001B0C43F4404343F0800320F822300BE770
:10356800B76208EB050304EBC3035B7C002B40F058
:10357800B280B0F8506000F2024313FA86F333F8D1
:103588003260C6F3090623F8326033F83260B6B207
:1035980046F4004623F83260B0F850301CFA83FC39
:1035A8003CF83230C3F309032CF832303CF832309F
:1035B8009BB243F400432CF83230204605F0D2FD8C
:1035C80019F4804FB7D02068D6E62268B2F84430A4
:1035D80023F400731B041B0C2046A2F8443005F0AA
:1035E800CBFDFFF7F8BB84F8C812204605F0D0FEE3
:1035F80072E4012A7FF4E5AD1A7CB0F8503000F28D
:10360800064010FA83F303EBC203A3F80090D8E551
:10361800012A7FF4D6AD1A7CB0F8503000F202408F
:1036280010FA83F303EBC2031980CAE500F20647D8
:1036380017FA83F391F850C1D1F868E133F83C30B8
:10364800C3F309039E451F4658D3AEEB0302C1F8E6
:103658006821002A54D019F0400F0FD10FFA8CFCC2
:1036680030F82C2022F4E04222F070021204120CEE
:1036780042F4004242F0C00220F82C20002B3FF414
:103688000CAF08EB050104EBC101B1F85A21D1F8E0
:10369800641103F03BFD4EE4CA07EA5A4FEA5106AB
:1036A80048BF013692B242EA862292B2EA524CE50B
:1036B800012B7FF43AAFB0F850301CFA83FC002697
:1036C8002CF83260B0F8503000F2064717FA83F34E
:1036D80023F8326029E7012B7FF46FAFB0F8503040
:1036E80000F2024616FA83F3002623F83260B0F897
:1036F80050301CFA83FC2CF832605EE7C1F8682170
:103708000FFA8CF130F8212022F4804222F0700266
:103718001204120C82F4005242F4004242F0800279
:1037280020F8212097E70022C1F868210FFA8CF1D0
:1037380030F8212022F4804222F070021204120C88
:1037480082F4005242F4004242F0800220F8212024
:103758008FE6DEF824101944CEF82410F76A1F44C7
:10376800F762DEF83070DEF82060B74246D3BF1B40
:10377800CEF83070B3B208EB050704EBC7077F7CBF
:103788009FBBB0F850701CFA87FC3E2E3CF8327094
:10379800C7F309072CF832704ED97709F6063CF8BA
:1037A800326008BF07F1FF37B6B246EA87266FEAEC
:1037B80046466FEA5646B6B22CF8326008EB050268
:1037C80004EBC202528B03F091FCFCE6012F7FF45C
:1037D80079ADB0F850601CFA86FC2CF8323071E5EF
:1037E8008FB98EF834701E4646E5012FE6D1B0F841
:1037F80050601CFA86FC2CF83230DFE75FB98EF88F
:1038080034701E46B7E700238EF83430CEF83030D7
:103818003E46BBB230E50023CEF830308EF8343067
:103828003E46BBB2A7E786B93CF83260B6B246F46A
:1038380000462CF8326045E5A6B93CF83260B6B2CD
:1038480046F400462CF83260B8E77708F6073CF8EB
:10385800326048BF0137B6B246EA8726B6B22CF8BE
:1038680032602FE57708F6073CF8326048BF013729
:10387800B6B246EA8726B6B22CF832609EE700BF99
:103888000F8FFFFFBF8FFFFF90F89022012A0CD007
:1038980010B504460122006884F89022217303F0D1
:1038A8000FFC002084F8900210BD0220704700BF72
:1038B80001F0070C11F0800F4FF0280110B501FB43
:1038C8000C0104461FD10CEB8C0E00EBCE0E002031
:1038D80001F5A8718EF85101022BCB7004BF0023AB
:1038E8000B7181F800C00A6194F89032012B14D052
:1038F800012384F89032206802F0DEFD002384F86A
:103908009032184610BD0CEB8C0004EBC0004FF051
:10391800010E103180F811E0DEE7022010BD00BF73
:1039280001F0070303EB830211F0800F4FF0280129
:1039380010B500EBC202044601FB030113D101F5E7
:10394800A871002082F851010B7094F89032012B75
:1039580011D00123206884F8903202F073FF002010
:1039680084F8900210BD1031012050740B7094F847
:103978009032012BEDD1022010BD00BF01F00701EC
:1039880001EB810C10B500EBCC0C0024CCF86421C1
:10399800282202FB01028CF8501100688CF8514172
:1039A800CCE95A3402F5A87103F02CF8204610BD72
:1039B80001F0070101EB810100EBC101D1F86C01B5
:1039C800704700BF10B501F0070E0EEB8E0100EB3B
:1039D800C10C6146CCF82830CCF8303000240123E3
:1039E8000068CCF8242010318CF83430CCF82C4006
:1039F8008CF811308CF810E003F004F8204610BD64
:103A0800027901F007039A4232D30A0610B5044638
:103A18001BD401EB8102282000FB014104EBC20208
:103A280001F5A871002082F8510101228A700B70FB
:103A380094F89032934219D0206884F8902203F0C9
:103A4800C7FA002084F8900210BD03EB83022821F6
:103A580001FB030100EBC202103101205074012266
:103A68008A700B7094F890329342E5D1022010BD11
:103A78000120704738B5027901F00F039A422FD31D
:103A880001F0070303EB830211F0800F4FF02801C8
:103A9800044600EBC20201FB030115D101F5A87130
:103AA8000020002582F851018D700B7094F8903237
:103AB800012B13D00123206884F8903203F0B0FA68
:103AC80084F89052284638BD1031012000255074E2
:103AD8008D700B7094F89032012BEBD1022038BD19
:103AE800012038BD11F0800F0BD001F0070101EB68
:103AF800810100EBC10010305AB90273C380002065
:103B0800704701EB810100EBC10000F5A870002AA5
:103B1800F3D00122027383600020704702680021FD
:103B280010B480F8C812B2F8543001249BB2234371
:103B3800C0F8D042A2F85430B2F854305DF8044BC3
:103B48009BB243F002030846A2F85430704700BF06
:103B580010B43B4A70B9136803F4C063B3F5806FBF
:103B6800D2F8803023D023F480735DF8044BC2F878
:103B780080307047B0F5007F09D013685DF8044BBA
:103B880023F4C06343F48063002013607047136814
:103B980003F4C063B3F5806FD2F880302FD043F4BC
:103BA800807300205DF8044BC2F88030704723F41E
:103BB8008073C2F880301168224C234821F4C06118
:103BC80041F4007111602368322101FB03F351694C
:103BD800A0FB03039B0C480503F1010306D500E095
:103BE80023B15169490503F1FF33F9D4144B5B69DB
:103BF8005C0554BF002003205DF8044B704743F474
:103C08008073C2F8803011680E4C0F4821F4C061EF
:103C180041F4007111602368322101FB03F35169FB
:103C2800A0FB03039B0C480503F10103DED501E06B
:103C3800002BDBD05169490503F1FF33D6D5F7E7EF
:103C4800007000400000002083DE1B43024A936896
:103C580043F480439360704700700040002800F0F0
:103C680000822DE9F0410368D90782B004462DD5BA
:103C7800AF498A68C96802F00C020C2A00F0068174
:103C8800082A00F008816368B3F5803F00F0778167
:103C9800B3F5A02F00F0D881A54D2A6822F4803210
:103CA8002A602A6822F480222A60002B40F06C8166
:103CB800FDF7B0FC064605E0FDF7ACFC801B642868
:103CC80000F27F812B689F03F6D423689E0728D5CE
:103CD800974A9368D26803F00C030C2B00F03081EC
:103CE800042B00F03281E368914D002B00F05A81DB
:103CF8002B6843F480732B60FDF78CFC064605E0C7
:103D0800FDF788FC801B022800F25B812B685805B0
:103D1800F6D56B68226923F0FE4343EA02636B60C1
:103D280023681A0719D56369814D002B00F0998023
:103D3800D5F8943043F00103C5F89430FDF76AFCD8
:103D4800064605E0FDF766FC801B022800F2398173
:103D5800D5F894309B07F5D523685E0741D5744B99
:103D68009A6DD50000F131819A6D42F080529A65C2
:103D78009B6D03F080530193019B01256D4E3368C1
:103D8800D80540F15081A368012B00F02081052B54
:103D980000F06981664ED6F8902022F00102C6F83C
:103DA8009020D6F8902022F00402C6F89020002B2C
:103DB80040F01481FDF72EFC41F28838074605E0F3
:103DC800FDF728FCC01B404500F2FB80D6F8903078
:103DD8009B07F5D425B1564A936D23F0805393651C
:103DE80023689D0618D5A369514D002B00F0078163
:103DF800D5F8983043F00103C5F89830FDF70AFC70
:103E0800064605E0FDF706FC801B022800F2D98073
:103E1800D5F898309807F5D5E069002800F0838038
:103E2800434DAB6803F00C030C2B00F02A812B6880
:103E3800022823F080732B603AD0FDF7EBFB044691
:103E480005E0FDF7E7FB001B022800F2BA802B68AB
:103E580013F00073F5D1E968374A0A401846EA605A
:103E680062E0D5F8943023F00103C5F89430FDF7EB
:103E7800D1FB064605E0FDF7CDFB801B022800F2CA
:103E8800A080D5F894309F07F5D465E701F00301C9
:103E980003297FF4F8AE264A126892037FF516AF1D
:103EA8006268002A7FF412AF012002B0BDE8F081F9
:103EB800FDF7B0FB064604E0FDF7ACFB801B0228CB
:103EC8007FD82B689A01F7D4E9681C4B226A606A8C
:103ED800174E0B401343D4E90A1243EA012343EA7D
:103EE800C263D4E90C120138490843EA00130139C6
:103EF800520843EA4153013A43EA4263EB602B68B4
:103F080043F080732B60EB6843F08073EB60FDF740
:103F180081FB044604E0FDF77DFB001B022850D816
:103F280033689B01F7D5002002B0BDE8F08100BFDF
:103F38000010024000700040FCFFEEFE0C809F0164
:103F480002F00302022A7FF4CEAE684B1B685D05BF
:103F580002D5E368002BA7D0644A206953686449F6
:103F680023F0FE4343EA006353600868FDF710FB43
:103F7800002899D123681A077FF5EFAED3E65B4A8C
:103F8800136843F480331360FDF744FB574E05462E
:103F980004E0FDF73FFB401B642812D833689B03FD
:103FA800F7D592E62B6823F480732B60FDF732FB7C
:103FB80006462B685905DDD5FDF72CFB801B02282A
:103FC800F7D9032002B0BDE8F0810025D6E6474ABC
:103FD800D2F8903043F00103C2F89030FDF71AFB95
:103FE800424F064641F2883804E0FDF713FB801B78
:103FF8004045E6D8D7F890309A07F6D5EAE6D5F8DE
:10400800983023F00103C5F89830FDF703FB064606
:1040180004E0FDF7FFFA801B0228D2D8D5F89830C3
:104028009907F6D4F8E6336843F480733360FDF7F4
:10403800F1FA07463368D9053FF5A5AEFDF7EAFA68
:10404800C01B0228F6D9BCE703F18043A3F53C3333
:104058001A6842F480221A601A6842F480321A60A0
:1040680092E701207047214BD3F8902042F00402D8
:10407800C3F89020D3F8902042F00102C3F89020B2
:10408800ACE701283FF450AFEB68226A03F0030164
:1040980091427FF409AF616A03F0F0020139B2EB93
:1040A800011F7FF401AFA16A03F4FE42B2EB012FB6
:1040B8007FF4FAAEE16A03F07842B2EBC16F7FF4A5
:1040C800F3AE226B520803F4C001013AB1EB425F30
:1040D8007FF4EAAE626B520803F0C063013AB3EBB7
:1040E800426F14BF012000201EE700BF00100240ED
:1040F80008000020184B9A6802F00C02042A27D006
:104108009A6802F00C02082A24D09A6802F00C027D
:104118000C2A01D000207047D968D86801F0030143
:104128000329C0F3031000F10102D8680CBF0B4B40
:104138000B4BB3FBF2F2084BDB68C3F34163C0F3EC
:104148000620013302FB00F05B00B0FBF3F0704780
:1041580003487047014870470010024000127A0077
:104168000024F400002800F0EE807F4A2DE9F8438F
:10417800136803F00F038B420D4604460CD21368F4
:1041880023F00F030B431360136803F00F038B42F4
:1041980002D00120BDE8F8832368DF0763D5626891
:1041A800032A00F09A80714B022A1B6800F0918064
:1041B8005B05EED5FFF79EFF6D4B984200F2C58078
:1041C80062684FF00009694EB36823F003031A438D
:1041D800B260FDF71FFA41F28838074604E0FDF7A0
:1041E80019FAC01B404571D8B368626803F00C0324
:1041F800B3EB820FF3D123689F0736D4B9F1800F50
:1042080003D1B36823F0F003B360574E336803F06B
:104218000F03AB4246D823685A0706D55349E068CE
:104228008A6822F4E06202438A601B0707D54F4A76
:104238002169936823F4605343EAC1039360FFF74D
:1042480059FF4A4A4B4C92684B49C2F30312034642
:10425800A25C4A4802F01F02D3400B600068BDE828
:10426800F843FDF795B99E07CFD5580704D53F49C0
:104278008A6842F4E0628A60190706D53B4A936867
:1042880023F47C5343F4E0639360384AA16893684D
:10429800354E23F0F0030B439360336803F00F03AC
:1042A800AB42B8D9336823F00F032B433360FDF7D3
:1042B800B1F941F288380746336803F00F03AB427F
:1042C800A9D0FDF7A7F9C01B4045F5D90320BDE8E3
:1042D800F8839A033FF56EAF5BE7244908688001CD
:1042E8007FF557AFCE68C868C968214F06F0030646
:1042F800032EC0F303100CBF214E224E0130B6FB33
:10430800F0F01A4EC1F3062100FB01F1F068C0F38A
:10431800416001304000B1FBF0F1B94220D9B168E9
:1043280011F0F00F05D013F002093FF44CAFA36869
:10433800B3B90E498B6823F0F00343F080038B6018
:104348004FF080093FE701207047084A93684FF013
:10435800800923F0F00343EA09039360626832E7B7
:104368004FF000092FE700BF002002400010024074
:1043780000B4C4042CA70008000000200800002096
:1043880000127A000024F400054B064A9B6806498F
:10439800C3F302230868D35C03F01F03D8407047B7
:1043A800001002403CA7000800000020054B064A08
:1043B8009B680649C3F3C2230868D35C03F01F0354
:1043C800D8407047001002403CA7000800000020B9
:1043D800024A136843F40023136070470010024038
:1043E800704700BF10B5054CE369DB0500D410BD6C
:1043F800FFF7F6FF4FF48073236210BD00100240F0
:104408002DE9F0410368044613F4002082B056D029
:10441800AC4B9A6DD50040F13E810027AA4D2B6820
:1044280043F480732B60FDF7F5F8064605E0FDF7C9
:10443800F1F8831B022B00F239812B68D805F6D5D9
:10444800A04DD5F8903013F4407327D0226D9A42CE
:1044580025D0D5F89010D5F8903043F48033C5F8BE
:104468009030D5F8903023F48033C5F8903021F49B
:104478004073C907C5F8903040F14881FDF7CAF884
:1044880041F28838064605E0FDF7C4F8801B404530
:1044980000F20C81D5F890309B07F5D5236D89493A
:1044A800D1F8902022F440721343C1F890300020D4
:1044B80027B1844A936D23F0805393652368DD0701
:1044C80008D580496568D1F8882022F003022A437C
:1044D800C1F88820990708D57A49A568D1F88820B5
:1044E80022F00C022A43C1F888205A0708D57549DA
:1044F800E568D1F8882022F030022A43C1F88820E4
:104508001F0708D56F492569D1F8882022F0C00215
:104518002A43C1F88820DE0608D56A496569D1F8BA
:10452800882022F440722A43C1F888209D0608D5C5
:104538006449A569D1F8882022F440622A43C1F869
:104548008820590608D55F49E569D1F8882022F402
:1045580040522A43C1F888201A0608D55949256AC5
:10456800D1F8882022F440422A43C1F88820DF0588
:1045780008D55449656AD1F8882022F440322A4384
:10458800C1F888209E0308D54E49A56AD1F89C2019
:1045980022F003022A43C1F89C209D0508D5494909
:1045A800E56AD1F8882022F440222A43C1F88820FD
:1045B80059050BD54349256BD1F8882022F44012C0
:1045C8002A43B5F5801FC1F8882071D01A050BD58C
:1045D8003C49656BD1F8882022F440022A43B5F59E
:1045E800800FC1F8882068D0DF040BD53549A56B4A
:1045F800D1F8882022F040722A43B5F1807FC1F8B3
:10460800882063D09E040BD52E49E56BD1F888200D
:1046180022F040622A43B5F1006FC1F888205AD0D1
:104628005D040BD52749256CD1F8882022F040621B
:104638002A43B5F1006FC1F8882051D019040BD571
:104648002049656CD1F8882022F040522A43B5F100
:10465800805FC1F8882048D0DA030BD51949A56CCA
:10466800D1F8882022F040422A43B5F1804FC1F8A2
:1046780088203FD05B030BD5124AE16CD2F89C30FE
:1046880023F440130B43B1F5001FC2F89C3036D019
:1046980002B0BDE8F0819A6D42F080529A659B6D38
:1046A80003F080530193019B0127B7E60320FFE63F
:1046B800CA6842F48012CA6088E7CA6842F4801265
:1046C800CA6091E70010024000700040CA6842F4D6
:1046D8008012CA6096E7CA6842F48012CA609FE7EF
:1046E800CA6842F48012CA60A8E7CA6842F48032F5
:1046F800CA60B1E7CA6842F48032CA60BAE7D368D0
:1047080043F48013D36002B0BDE8F0811346C6E6D7
:104718002DE9F04383B09846002315468DF8033001
:1047280006460C46FCF776FFA844A8EB0007FCF702
:1047380071FF304BD6F800901B6803EB8303C3EB83
:10474800C3031B0D07FB03F3804601934A4601E0B0
:104758006B1C0ED1936823401DD0B4F5C06FF7D100
:1047680099F80C30DBB28DF803309DF803306B1CE0
:10477800F0D0FCF74FFFA0EB0800B8420FD2019B26
:104788003268002B019B03F1FF330193936808BF44
:1047980000272340E1D1184603B0BDE8F083D6E9ED
:1047A80000315A68B1F5827F22F0E0025A6014D0D5
:1047B800B26AB2F5005F07D00122002386F85D20B7
:1047C80086F85C300320E7E71A6822F400521A6082
:1047D8001A6842F400521A60EEE7B268B2F5004F68
:1047E80002D0B2F5806FE3D11A6822F040021A6055
:1047F800DEE700BF00000020F0B583B00C46154688
:104808000646FCF707FF25442D1AFCF703FF254B46
:104818001B68C3F3CB3305FB03F3074601933268E8
:1048280001E0631C06D1936813F08003F9D11846A0
:1048380003B0F0BDFCF7EEFEC01BA84208D2019BF6
:10484800002B019B03F1FF3308BF00250193E6E726
:10485800D6E900315A68B1F5827F22F0E0025A6049
:1048680014D0B26AB2F5005F07D00122002386F89F
:104878005D2086F85C300320DAE71A6822F40052DB
:104888001A601A6842F400521A60EEE7B268B2F58C
:10489800004F02D0B2F5806FE3D11A6822F04002CF
:1048A8001A60DEE70000002070B513460D46164674
:1048B8000A464FF4C0510446FFF72AFF70B9324642
:1048C80029462046FFF798FF40B933462A464FF459
:1048D800C0612046FFF71CFF00B970BD236E43F08E
:1048E80020030320236670BD002877D02DE9F0410E
:1048F800466A0446002E58D00023C0E9043394F8D1
:104908005D300022A26203F0FF02002B59D021681B
:10491800E268022384F85D300868B2F5E06F20F0A1
:104928004000086047D9B2F5706F59D1A36A0020DA
:1049380003F40055A368276A02F4706E626803F4F2
:10494800044302F482721A43236903F002031A43F0
:10495800636903F001031A43636B03F0080306F06D
:10496800100C43EA0E0EA669E36903F0380806F452
:104978000073134307F0800743EA08033B432B43C4
:104988000B60330C03F004034EEA030343EA0C0301
:1049980003434B60CB69002023F400630122CB6101
:1049A800206684F85D20BDE8F0814368B3F5827F16
:1049B800A5D0C661A3E70BD04FF480500025A562AF
:1049C800B8E784F85C202046FCF7CEFA666A9EE7D2
:1049D800A36A4FF4805003F40055ABE701207047F9
:1049E8000020EBE72DE9F843044690F85C00089DA9
:1049F800012800F0A5801F46012384F85C30894611
:104A08009046FCF707FE064694F85D0063680128A7
:104A1800C1B20DD0B3F5827F05D00220002384F8FF
:104A28005C30BDE8F883A268002AF6D10429F4D1E5
:104A3800B9F1000F00F08280B8F1000F7ED0002F8E
:104A48007CD094F85D20E168C4F84080042A1CBF3B
:104A5800052284F85D2000222266C4E91322226818
:104A6800A4F84670B1F5E06FE7875168A4F8447080
:104A7800C4F83890A78766D8012F00F0F58021F494
:104A8800805151601168490600F1B080116841F009
:104A980040011160002B00F0AC80012F00F0A980CC
:104AA8000127E38F9BB223B9B4F846309BB2002BA1
:104AB80038D022689368990705D5E38F9BB213B164
:104AC800002F40F0B680936813F001031ED0B4F8AD
:104AD800461089B2D1B1B4F8461089B2012940F222
:104AE8009A80216CD06821F8020B2164B4F8461032
:104AF800023989B2A4F84610B4F8461089B20129DF
:104B08001F4603D8536843F480535360FCF782FD73
:104B1800801BA8427BD36B1CC3D0012384F85D3073
:104B280003207BE7324629462046FFF7BDFE10B139
:104B3800202323660120236E002B53D001206DE72C
:104B48000220BDE8F88321F48051516011684806BD
:104B580003D4116841F040011160002B3FD1494650
:104B680031F8023BD360E38FA163013B9BB2E3873B
:104B78000127E38F9BB223B9B4F846309BB2002BD0
:104B8800D0D0226893689B070DD5E38F9BB253B1B1
:104B98004FB1A36B33F8021BD160A363E38F013BD2
:104BA8009BB20027E387936813F001030FD0B4F892
:104BB800461089B259B11F46236CD26823F8022BDC
:104BC8002364B4F84630013B9BB2A4F84630FCF7A6
:104BD80021FD801BA842CCD3681CCAD09DE7012FB9
:104BE800C6D1BCE7012384F85D3017E7002B7FF4BA
:104BF80057AFE38F9BB2012B3ED9494631F8023BB0
:104C0800D360E38FA163023B9BB2E38748E7002DA3
:104C18007FF447AF81E71F46236C127B1A70236C21
:104C280001332364B4F84630013B9BB2A4F8463004
:104C38006CE7E38F9BB2012BA36B09D933F8021BF6
:104C4800D160A363E38F023B9BB20027E3873AE777
:104C58001B781373E38FA26B013B01329BB2A263F3
:104C6800E387226800272EE741F4805151601168DC
:104C780049067FF50BAFBCE799F800301373E38F53
:104C8800A26B013B01329BB2A263E38708E700BF36
:104C9800036A026A22F00102026270B444688269FF
:104CA8000D6822F4803222F073022A438D6823F0C3
:104CB80002032B43154DA84213D005F50065A84201
:104CC8000FD005F54065A8420BD005F58065A842D0
:104CD80007D005F58065A84203D005F50065A84210
:104CE8000DD1CD6823F008032B43D1E9056524F4E1
:104CF800407446EA050C23F004034CEA04044968AE
:104D08004460826170BC416303627047002C0140BB
:104D1800036A026A22F48072026270B44468C2694B
:104D28000D6822F4803222F073022A438D6823F43E
:104D3800007343EA05231C4DA84217D005F500650A
:104D4800A84213D005F5E055A84225D0174DA84232
:104D580013D005F58065A8420FD005F58065A842F7
:104D68000BD005F50065A8420FD106E0CD6823F405
:104D7800006343EA052323F48063D1E9056524F43D
:104D8800405446EA050C44EA0C1449684460C26180
:104D980070BCC16303627047CD6823F4006343EAC3
:104DA800052323F48063D1E7002C01400040014033
:104DB800036A026A22F48052026270B44468C269CB
:104DC8000D6822F0807222F4E64242EA05228D68DC
:104DD80023F4005343EA05331C4DA84217D005F5C8
:104DE8000065A84213D005F5E055A84225D0184D16
:104DF800A84213D005F58065A8420FD005F5806557
:104E0800A8420BD005F50065A8420FD106E0CD6891
:104E180023F4004343EA053323F48043D1E90565CD
:104E280024F4404446EA050C44EA8C14496844607A
:104E3800C26170BC016403627047CD6823F400430B
:104E480043EA053323F48043D1E700BF002C014037
:104E580000400140036A026A22F48032026230B4E0
:104E68004468026D0D6822F4803222F070022A43F1
:104E78008D6823F4003343EA0543114DA84213D04B
:104E880005F50065A8420FD005F54065A8420BD08E
:104E980005F58065A84207D005F58065A84203D0CE
:104EA80005F50065A84204D14D6924F4803444EA2C
:104EB800052449684460026530BC81640362704718
:104EC800002C0140036A026A22F48012026230B4A4
:104ED8004468026D0D6822F0807222F4E04242EAD2
:104EE80005228D6823F4001343EA0553114DA842A7
:104EF80013D005F50065A8420FD005F54065A84216
:104F08000BD005F58065A84207D005F58065A84255
:104F180003D005F50065A84204D14D6924F4802426
:104F280044EA852449684460026530BCC164036270
:104F3800704700BF002C014090F83D30012B32D162
:104F480003681B49022280F83D20DA688B4242F050
:104F58000102DA6019D0B3F1804F16D0154A934296
:104F680013D002F5806293420FD002F5806293421B
:104F78000BD002F59432934207D002F54062934277
:104F880003D002F58052934207D199680A4A0A4031
:104F9800062A0AD0B2F5803F07D01A6842F001020B
:104FA80000201A607047012070470020704700BF3A
:104FB800002C01400004004007000100002956D1E0
:104FC80090F83E30012B5CD1022380F83E30036814
:104FD8000122186A01F01F0102FA01F120EA01001A
:104FE8001862186A414A0143934219625DD002F57A
:104FF800006293420FD002F5406293420BD002F553
:105008008062934207D002F58062934203D002F592
:105018000062934203D15A6C42F400425A64B3F1DD
:10502800804F16D0324A934213D002F580629342E1
:105038000FD002F5806293420BD002F5943293426E
:1050480007D002F54062934203D002F580529342A2
:1050580007D19968274A0A40062A14D0B2F5803F3A
:1050680011D01A6842F0010200201A607047042922
:1050780020D0082926D00C2907D190F84130012BDF
:1050880028D00120704700207047102926D090F8BA
:105098004330012BF5D1082918D00C291AD0102932
:1050A80020D0022380F8433091E75A6C42F4004242
:1050B8005A64CEE790F83F30012BE2D1022380F802
:1050C8003F3084E790F84030012BDAD1022380F892
:1050D80040307CE7022380F8413078E790F842308E
:1050E800012BCED1022380F8423070E7002C01401A
:1050F8000004004007000100036810B41A6A01F0B8
:105108001F044FF0010C0CFA04FC22EA0C021A628C
:105118002E4A1C6A1C62934225D002F50062934213
:1051280021D002F5406293421DD002F5806293427D
:1051380019D002F58062934215D002F500629342BD
:1051480011D01C6A41F21112144204D11C6A44F2B3
:105158004442144226D00123A1B980F83E300020F1
:105168005DF8044B70471C6A41F211121442E8D1F1
:105178001C6A44F244421442E3D15A6C22F40042BD
:105188005A64DEE7042912D0082919D00C2914D052
:1051980010290CBF80F8423080F843305DF8044B8A
:1051A800002070471A6822F001021A60D3E780F8DD
:1051B8003F305DF8044B0020704780F84130CEE75F
:1051C80080F840305DF8044B00207047002C014007
:1051D800FFF7F4BEFFF790BF00B590F83E3090F8A7
:1051E8003F2090F844C090F845E0DBB25FFA8CFCB1
:1051F800F1B9012B03D0012318465DF804FBBCF17B
:10520800010FF9D10268022380F83E3080F844305B
:10521800136A23F001031362136A43F00103136254
:105228001168002341F00101116018465DF804FB84
:105238000429D2B25FFA8EFE1CD0012BDBD1012AE1
:10524800DAD1BCF1010FD7D1BEF1010FD4D10223BD
:10525800026880F83E3080F83F3080F8443080F8AB
:105268004530136A23F001031362136A43F0010304
:1052780013620AE0012ABED1BEF1010FBBD102239D
:10528800026880F83F3080F84530136A23F0100335
:105298001362136A43F010031362C1E790F83C30BD
:1052A800012B00F0958070B40223046880F83D302B
:1052B800012280F83C20A568654B2B40A3600B6851
:1052C800702B00F0B48029D8502B00F0848040D98E
:1052D800602B1AD1236A256A4A68CE6825F0100522
:1052E8002562A16923F0A00321F4704143EA021367
:1052F80041EA0631A1612362A36823F4401323F035
:10530800700343F067030022A3600121002380F8A3
:105318003D1080F83C3070BC10467047B3F5005F14
:1053280074D043D94B498B4208D02FD94A498B4274
:1053380004D023F0200C10398C45E6D1A16821F463
:10534800401121F070010B4343F007030022A360D2
:10535800DBE7402B2FD14A68CE68216A256A25F001
:1053680001052562A36921F00A0123F0F003114326
:1053780043EA0613A3612162A36823F4401323F0D0
:10538800700343F047030022A360BEE7334A934209
:10539800D4D004D9324A9342D0D00122B5E723F0C1
:1053A8001002B2F5801FC9D00122AEE7B3F58052D2
:1053B80018BF0122A9E7A8D8202BBFD003D9302BCA
:1053C800BCD00122A1E733F01002B7D001229CE73C
:1053D8000222104670474A68CE68216A256A25F07D
:1053E80001052562A36921F00A0123F0F0031143A6
:1053F80043EA0613A3612162A36823F4401323F050
:10540800700343F057030022A3607EE7D1E90153FC
:10541800A268C9682B4322F47F4243EA012313435D
:10542800A360A36843F480430022A3606DE7D1E939
:105438000153A268C9682B4322F47F4243EA01233F
:105448001343A360A36843F077030022A3605CE7DB
:105458008800CEFF400010006000100020001000FF
:1054680030001000704700BF704700BF704700BF92
:10547800704700BF704700BF036870B5DE681C69DD
:10548800A207054601D5B1076CD4630701D570079B
:1054980055D4210701D532073ED4E00601D5F106DF
:1054A80026D4E20701D5F3077AD414F4025F69D051
:1054B80030067DD4600602D5710600F18B80A20605
:1054C80002D5B30600F18E80E00202D5F10200F1A8
:1054D8009180A20202D5B30200F19480600202D545
:1054E800710200F19780220201D533024FD470BDBA
:1054F8002B686FF010021A6108222A77DB6913F40F
:10550800407F284640F09780FFF7AEFF2846FFF718
:10551800AFFF00232B77C4E72B686FF008021A61EE
:1055280004222A77DB699B07284640F08180FFF731
:105538009BFF2846FFF79CFF00232B77ADE72B68DE
:105548006FF004021A6102222A779B6913F4407FE4
:1055580028466AD1FFF788FF2846FFF789FF00230E
:105568002B7796E76FF002021A61012202779B6996
:105578009A0757D1FFF778FF2846FFF779FF0023EE
:105588002B7782E7E20595D533061BD492E72B6883
:105598006FF4000228461A61BDE8704000F0DABBDB
:1055A8002B686FF001021A612846FFF75BFF7CE762
:1055B8002B686FF402521A61284600F0C1FBE1051E
:1055C8007FF578AF2B686FF480721A61284600F077
:1055D800B9FB6FE72B686FF040021A612846FFF7A6
:1055E80049FF6CE72B686FF020021A61284600F02B
:1055F800A5FB69E72B686FF480121A61284600F052
:10560800A3FB66E72B686FF400121A61284600F0C6
:105618009DFB63E72B686FF480021A61284600F04F
:1056280097FB60E7FFF722FFA9E7FFF71FFF96E761
:10563800FFF71CFF80E7FFF719FF6AE73C4A03689A
:10564800904230B44BD0B0F1804F2CD0A2F59432B8
:10565800904228D002F58062904224D002F5806200
:10566800904220D002F59432904252D002F5E05296
:10567800904258D02F4A904245D002F5806290421D
:1056880041D002F5806290423DD002F5006290421E
:1056980039D04D698C680A6823F080032B43036076
:1056A800C462826210E04A68CC6823F07003134336
:1056B80023F440734A69234323F080038C6813431F
:1056C8000A680360C4628262012343610369DB07DD
:1056D80003D5036923F00103036130BC70474C68AC
:1056E800CA6823F07003234323F4407313434A69C1
:1056F80023F08003134303608B68C3620B688362E3
:105708000B690363E0E7CC684A6923F440732343D9
:10571800EEE74C68CA6823F07003234323F4407310
:1057280013434A69E4E74A6823F070031343A1E787
:10573800002C01400040014070B310B590F83D3096
:10574800044603F0FF0213B32146022384F83D30D8
:1057580051F8040BFFF772FF012384F8483084F8EE
:105768003E3084F83F3084F8403084F8413084F883
:10577800423084F8433084F8443084F8453084F863
:10578800463084F8473084F83D30002010BD80F85A
:105798003C20FBF71FFDD7E70120704770B310B519
:1057A80090F83D30044603F0FF0213B3214602236C
:1057B80084F83D3051F8040BFFF740FF012384F8CB
:1057C800483084F83E3084F83F3084F8403084F81C
:1057D800413084F8423084F8433084F8443084F807
:1057E800453084F8463084F8473084F83D3000204E
:1057F80010BD80F83C20FBF725FDD7E70120704756
:10580800002852D0F8B590F83D300D46044603F014
:10581800FF02002B44D02146022384F83D3051F882
:10582800040B836823F4A03323F007038360FFF796
:1058380005FF2168AA698E688B69A8682F6A23F416
:10584800407340EA022023F00303034323F47C421D
:105858002B69E8691B0143EA0023E868034322F047
:10586800FC0243EA0733086A6F6913436A6820F049
:10587800AA0042EA071210432A68164301228E60E2
:105888008B61086284F8482084F83E2084F83F2021
:1058980084F8442084F8452084F83D200020F8BD91
:1058A80080F83C20FBF760FCB5E70120704700BF9B
:1058B800036A026A22F01002026270B444688269C4
:1058C8000D6822F0807222F4E64242EA05228D68D1
:1058D80023F0200343EA05131C4DA84217D005F511
:1058E8000065A84213D005F5E055A84225D0184D0B
:1058F800A84213D005F58065A8420FD005F580654C
:10590800A8420BD005F50065A8420FD106E0CD6886
:1059180023F0800343EA051323F04003D1E905652A
:1059280024F4406446EA050C44EA8C04496844605F
:10593800826170BC816303627047CD6823F0800385
:1059480043EA051323F04003D1E700BF002C0140D0
:105958000040014038B590F83C30012B00F08880B9
:10596800012304460D4680F83C30142A0CD8DFE8A1
:1059780002F0230B0B0B350B0B0B480B0B0B5A0BC5
:105988000B0B6D0B0B0B10000120002384F83C302F
:1059980038BD0068FFF796FA23682869196D41F445
:1059A80000611965196D21F4806119651A6D42EA63
:1059B80000221A650020E8E70068FFF769F9236804
:1059C8002869996941F008019961996921F00401F0
:1059D80099619A6902439A610020D6E70068FFF747
:1059E80067FF23682869996941F400619961996999
:1059F80021F4806199619A6942EA00229A61002043
:105A0800C3E70068FFF784F923682869D96941F07A
:105A18000801D961D96921F00401D961DA69024321
:105A2800DA610020B1E70068FFF7C2F92368286946
:105A3800D96941F40061D961D96921F48061D961DA
:105A4800DA6942EA0022DA6100209EE70068FFF77F
:105A580001FA23682869196D41F008011965196D63
:105A680021F0040119651A6D02431A6500208CE7BC
:105A7800022038BD002942D190F84430012B46D18C
:105A8800022380F8443003680422186A01F00F01E9
:105A980002FA01F120EA010018621A6A2848114343
:105AA80019625A6C834242F400425A6419D0B3F125
:105AB800804F16D0234A934213D002F58062934256
:105AC8000FD002F5806293420BD002F594329342D4
